{
  "_format": "hh-sol-artifact-1",
  "contractName": "CharityCampaignFactory",
  "sourceName": "contracts/CharityCampaignFactory.sol",
  "abi": [
    {
      "inputs": [],
      "stateMutability": "nonpayable",
      "type": "constructor"
    },
    {
      "inputs": [
        {
          "internalType": "address",
          "name": "owner",
          "type": "address"
        }
      ],
      "name": "OwnableInvalidOwner",
      "type": "error"
    },
    {
      "inputs": [
        {
          "internalType": "address",
          "name": "account",
          "type": "address"
        }
      ],
      "name": "OwnableUnauthorizedAccount",
      "type": "error"
    },
    {
      "inputs": [],
      "name": "ReentrancyGuardReentrantCall",
      "type": "error"
    },
    {
      "anonymous": false,
      "inputs": [
        {
          "indexed": true,
          "internalType": "uint256",
          "name": "campaignId",
          "type": "uint256"
        },
        {
          "indexed": true,
          "internalType": "address",
          "name": "creator",
          "type": "address"
        },
        {
          "indexed": false,
          "internalType": "uint256",
          "name": "totalRefunded",
          "type": "uint256"
        }
      ],
      "name": "CampaignCancelled",
      "type": "event"
    },
    {
      "anonymous": false,
      "inputs": [
        {
          "indexed": true,
          "internalType": "uint256",
          "name": "campaignId",
          "type": "uint256"
        },
        {
          "indexed": true,
          "internalType": "address",
          "name": "creator",
          "type": "address"
        },
        {
          "indexed": true,
          "internalType": "address",
          "name": "beneficiary",
          "type": "address"
        },
        {
          "indexed": false,
          "internalType": "string",
          "name": "title",
          "type": "string"
        },
        {
          "indexed": false,
          "internalType": "uint256",
          "name": "goalAmount",
          "type": "uint256"
        },
        {
          "indexed": false,
          "internalType": "uint256",
          "name": "deadline",
          "type": "uint256"
        },
        {
          "indexed": false,
          "internalType": "uint256",
          "name": "dbId",
          "type": "uint256"
        }
      ],
      "name": "CampaignCreated",
      "type": "event"
    },
    {
      "anonymous": false,
      "inputs": [
        {
          "indexed": true,
          "internalType": "uint256",
          "name": "campaignId",
          "type": "uint256"
        },
        {
          "indexed": false,
          "internalType": "string",
          "name": "newTitle",
          "type": "string"
        },
        {
          "indexed": false,
          "internalType": "string",
          "name": "newDescription",
          "type": "string"
        }
      ],
      "name": "CampaignEdited",
      "type": "event"
    },
    {
      "anonymous": false,
      "inputs": [
        {
          "indexed": true,
          "internalType": "uint256",
          "name": "campaignId",
          "type": "uint256"
        },
        {
          "indexed": false,
          "internalType": "uint256",
          "name": "totalRaised",
          "type": "uint256"
        },
        {
          "indexed": false,
          "internalType": "bool",
          "name": "goalReached",
          "type": "bool"
        }
      ],
      "name": "CampaignFinalized",
      "type": "event"
    },
    {
      "anonymous": false,
      "inputs": [
        {
          "indexed": true,
          "internalType": "uint256",
          "name": "campaignId",
          "type": "uint256"
        },
        {
          "indexed": true,
          "internalType": "address",
          "name": "admin",
          "type": "address"
        }
      ],
      "name": "CampaignPaused",
      "type": "event"
    },
    {
      "anonymous": false,
      "inputs": [
        {
          "indexed": true,
          "internalType": "uint256",
          "name": "campaignId",
          "type": "uint256"
        },
        {
          "indexed": true,
          "internalType": "address",
          "name": "admin",
          "type": "address"
        }
      ],
      "name": "CampaignUnpaused",
      "type": "event"
    },
    {
      "anonymous": false,
      "inputs": [
        {
          "indexed": true,
          "internalType": "uint256",
          "name": "campaignId",
          "type": "uint256"
        },
        {
          "indexed": true,
          "internalType": "address",
          "name": "donor",
          "type": "address"
        },
        {
          "indexed": false,
          "internalType": "uint256",
          "name": "amount",
          "type": "uint256"
        }
      ],
      "name": "DonationCancelled",
      "type": "event"
    },
    {
      "anonymous": false,
      "inputs": [
        {
          "indexed": true,
          "internalType": "uint256",
          "name": "campaignId",
          "type": "uint256"
        },
        {
          "indexed": true,
          "internalType": "address",
          "name": "donor",
          "type": "address"
        },
        {
          "indexed": false,
          "internalType": "uint256",
          "name": "amount",
          "type": "uint256"
        }
      ],
      "name": "DonationReceived",
      "type": "event"
    },
    {
      "anonymous": false,
      "inputs": [
        {
          "indexed": true,
          "internalType": "address",
          "name": "previousOwner",
          "type": "address"
        },
        {
          "indexed": true,
          "internalType": "address",
          "name": "newOwner",
          "type": "address"
        }
      ],
      "name": "OwnershipTransferred",
      "type": "event"
    },
    {
      "anonymous": false,
      "inputs": [
        {
          "indexed": true,
          "internalType": "uint256",
          "name": "campaignId",
          "type": "uint256"
        },
        {
          "indexed": true,
          "internalType": "address",
          "name": "donor",
          "type": "address"
        },
        {
          "indexed": false,
          "internalType": "uint256",
          "name": "amount",
          "type": "uint256"
        }
      ],
      "name": "RefundIssued",
      "type": "event"
    },
    {
      "inputs": [],
      "name": "DONATION_GRACE_PERIOD",
      "outputs": [
        {
          "internalType": "uint256",
          "name": "",
          "type": "uint256"
        }
      ],
      "stateMutability": "view",
      "type": "function"
    },
    {
      "inputs": [],
      "name": "MAX_CAMPAIGN_DURATION",
      "outputs": [
        {
          "internalType": "uint256",
          "name": "",
          "type": "uint256"
        }
      ],
      "stateMutability": "view",
      "type": "function"
    },
    {
      "inputs": [],
      "name": "MIN_CAMPAIGN_DURATION",
      "outputs": [
        {
          "internalType": "uint256",
          "name": "",
          "type": "uint256"
        }
      ],
      "stateMutability": "view",
      "type": "function"
    },
    {
      "inputs": [],
      "name": "MIN_GOAL_AMOUNT",
      "outputs": [
        {
          "internalType": "uint256",
          "name": "",
          "type": "uint256"
        }
      ],
      "stateMutability": "view",
      "type": "function"
    },
    {
      "inputs": [
        {
          "internalType": "uint256",
          "name": "",
          "type": "uint256"
        },
        {
          "internalType": "uint256",
          "name": "",
          "type": "uint256"
        }
      ],
      "name": "campaignDonors",
      "outputs": [
        {
          "internalType": "address",
          "name": "",
          "type": "address"
        }
      ],
      "stateMutability": "view",
      "type": "function"
    },
    {
      "inputs": [
        {
          "internalType": "uint256",
          "name": "",
          "type": "uint256"
        }
      ],
      "name": "campaigns",
      "outputs": [
        {
          "internalType": "address payable",
          "name": "beneficiary",
          "type": "address"
        },
        {
          "internalType": "string",
          "name": "title",
          "type": "string"
        },
        {
          "internalType": "string",
          "name": "description",
          "type": "string"
        },
        {
          "internalType": "uint256",
          "name": "goalAmount",
          "type": "uint256"
        },
        {
          "internalType": "uint256",
          "name": "deadline",
          "type": "uint256"
        },
        {
          "internalType": "uint256",
          "name": "totalRaised",
          "type": "uint256"
        },
        {
          "internalType": "bool",
          "name": "finalized",
          "type": "bool"
        },
        {
          "internalType": "bool",
          "name": "refundEnabled",
          "type": "bool"
        },
        {
          "internalType": "address",
          "name": "creator",
          "type": "address"
        },
        {
          "internalType": "uint256",
          "name": "dbId",
          "type": "uint256"
        },
        {
          "internalType": "bool",
          "name": "paused",
          "type": "bool"
        },
        {
          "internalType": "bool",
          "name": "cancelled",
          "type": "bool"
        },
        {
          "internalType": "uint256",
          "name": "createdAt",
          "type": "uint256"
        }
      ],
      "stateMutability": "view",
      "type": "function"
    },
    {
      "inputs": [
        {
          "internalType": "uint256",
          "name": "_campaignId",
          "type": "uint256"
        }
      ],
      "name": "cancelCampaign",
      "outputs": [],
      "stateMutability": "nonpayable",
      "type": "function"
    },
    {
      "inputs": [
        {
          "internalType": "uint256",
          "name": "_campaignId",
          "type": "uint256"
        }
      ],
      "name": "cancelDonation",
      "outputs": [],
      "stateMutability": "nonpayable",
      "type": "function"
    },
    {
      "inputs": [
        {
          "internalType": "uint256",
          "name": "_campaignId",
          "type": "uint256"
        }
      ],
      "name": "claimRefund",
      "outputs": [],
      "stateMutability": "nonpayable",
      "type": "function"
    },
    {
      "inputs": [
        {
          "internalType": "uint256",
          "name": "",
          "type": "uint256"
        },
        {
          "internalType": "address",
          "name": "",
          "type": "address"
        }
      ],
      "name": "contributions",
      "outputs": [
        {
          "internalType": "uint256",
          "name": "",
          "type": "uint256"
        }
      ],
      "stateMutability": "view",
      "type": "function"
    },
    {
      "inputs": [
        {
          "internalType": "address payable",
          "name": "_beneficiary",
          "type": "address"
        },
        {
          "internalType": "string",
          "name": "_title",
          "type": "string"
        },
        {
          "internalType": "string",
          "name": "_description",
          "type": "string"
        },
        {
          "internalType": "uint256",
          "name": "_goalAmount",
          "type": "uint256"
        },
        {
          "internalType": "uint256",
          "name": "_durationDays",
          "type": "uint256"
        },
        {
          "internalType": "uint256",
          "name": "_dbId",
          "type": "uint256"
        }
      ],
      "name": "createCampaign",
      "outputs": [
        {
          "internalType": "uint256",
          "name": "",
          "type": "uint256"
        }
      ],
      "stateMutability": "nonpayable",
      "type": "function"
    },
    {
      "inputs": [
        {
          "internalType": "uint256",
          "name": "_campaignId",
          "type": "uint256"
        }
      ],
      "name": "donate",
      "outputs": [],
      "stateMutability": "payable",
      "type": "function"
    },
    {
      "inputs": [
        {
          "internalType": "uint256",
          "name": "",
          "type": "uint256"
        },
        {
          "internalType": "address",
          "name": "",
          "type": "address"
        }
      ],
      "name": "donations",
      "outputs": [
        {
          "internalType": "uint256",
          "name": "amount",
          "type": "uint256"
        },
        {
          "internalType": "uint256",
          "name": "timestamp",
          "type": "uint256"
        },
        {
          "internalType": "bool",
          "name": "refunded",
          "type": "bool"
        }
      ],
      "stateMutability": "view",
      "type": "function"
    },
    {
      "inputs": [
        {
          "internalType": "uint256",
          "name": "_campaignId",
          "type": "uint256"
        },
        {
          "internalType": "string",
          "name": "_newTitle",
          "type": "string"
        },
        {
          "internalType": "string",
          "name": "_newDescription",
          "type": "string"
        }
      ],
      "name": "editCampaign",
      "outputs": [],
      "stateMutability": "nonpayable",
      "type": "function"
    },
    {
      "inputs": [
        {
          "internalType": "uint256",
          "name": "_campaignId",
          "type": "uint256"
        }
      ],
      "name": "finalizeCampaign",
      "outputs": [],
      "stateMutability": "nonpayable",
      "type": "function"
    },
    {
      "inputs": [
        {
          "internalType": "uint256",
          "name": "_campaignId",
          "type": "uint256"
        }
      ],
      "name": "getCampaign",
      "outputs": [
        {
          "internalType": "address",
          "name": "beneficiary",
          "type": "address"
        },
        {
          "internalType": "string",
          "name": "title",
          "type": "string"
        },
        {
          "internalType": "string",
          "name": "description",
          "type": "string"
        },
        {
          "internalType": "uint256",
          "name": "goalAmount",
          "type": "uint256"
        },
        {
          "internalType": "uint256",
          "name": "deadline",
          "type": "uint256"
        },
        {
          "internalType": "uint256",
          "name": "totalRaised",
          "type": "uint256"
        },
        {
          "internalType": "bool",
          "name": "finalized",
          "type": "bool"
        },
        {
          "internalType": "bool",
          "name": "refundEnabled",
          "type": "bool"
        },
        {
          "internalType": "address",
          "name": "creator",
          "type": "address"
        },
        {
          "internalType": "uint256",
          "name": "dbId",
          "type": "uint256"
        },
        {
          "internalType": "bool",
          "name": "paused",
          "type": "bool"
        },
        {
          "internalType": "bool",
          "name": "cancelled",
          "type": "bool"
        },
        {
          "internalType": "uint256",
          "name": "createdAt",
          "type": "uint256"
        }
      ],
      "stateMutability": "view",
      "type": "function"
    },
    {
      "inputs": [],
      "name": "getCampaignCount",
      "outputs": [
        {
          "internalType": "uint256",
          "name": "",
          "type": "uint256"
        }
      ],
      "stateMutability": "view",
      "type": "function"
    },
    {
      "inputs": [
        {
          "internalType": "uint256",
          "name": "_campaignId",
          "type": "uint256"
        },
        {
          "internalType": "address",
          "name": "_donor",
          "type": "address"
        }
      ],
      "name": "getContribution",
      "outputs": [
        {
          "internalType": "uint256",
          "name": "",
          "type": "uint256"
        }
      ],
      "stateMutability": "view",
      "type": "function"
    },
    {
      "inputs": [
        {
          "internalType": "uint256",
          "name": "_campaignId",
          "type": "uint256"
        },
        {
          "internalType": "uint256",
          "name": "_limit",
          "type": "uint256"
        }
      ],
      "name": "getTopDonors",
      "outputs": [
        {
          "internalType": "address[]",
          "name": "donors",
          "type": "address[]"
        },
        {
          "internalType": "uint256[]",
          "name": "amounts",
          "type": "uint256[]"
        }
      ],
      "stateMutability": "view",
      "type": "function"
    },
    {
      "inputs": [
        {
          "internalType": "address",
          "name": "_creator",
          "type": "address"
        }
      ],
      "name": "getUserCampaigns",
      "outputs": [
        {
          "internalType": "uint256[]",
          "name": "",
          "type": "uint256[]"
        }
      ],
      "stateMutability": "view",
      "type": "function"
    },
    {
      "inputs": [],
      "name": "owner",
      "outputs": [
        {
          "internalType": "address",
          "name": "",
          "type": "address"
        }
      ],
      "stateMutability": "view",
      "type": "function"
    },
    {
      "inputs": [
        {
          "internalType": "uint256",
          "name": "_campaignId",
          "type": "uint256"
        }
      ],
      "name": "pauseCampaign",
      "outputs": [],
      "stateMutability": "nonpayable",
      "type": "function"
    },
    {
      "inputs": [],
      "name": "renounceOwnership",
      "outputs": [],
      "stateMutability": "nonpayable",
      "type": "function"
    },
    {
      "inputs": [
        {
          "internalType": "address",
          "name": "newOwner",
          "type": "address"
        }
      ],
      "name": "transferOwnership",
      "outputs": [],
      "stateMutability": "nonpayable",
      "type": "function"
    },
    {
      "inputs": [
        {
          "internalType": "uint256",
          "name": "_campaignId",
          "type": "uint256"
        }
      ],
      "name": "unpauseCampaign",
      "outputs": [],
      "stateMutability": "nonpayable",
      "type": "function"
    },
    {
      "inputs": [
        {
          "internalType": "address",
          "name": "",
          "type": "address"
        },
        {
          "internalType": "uint256",
          "name": "",
          "type": "uint256"
        }
      ],
      "name": "userCampaigns",
      "outputs": [
        {
          "internalType": "uint256",
          "name": "",
          "type": "uint256"
        }
      ],
      "stateMutability": "view",
      "type": "function"
    }
  ],
  "bytecode": "0x6080806040523461007e5733156100685760008054336001600160a01b03198216811783556040519290916001600160a01b0316907f8be0079c531659141344cd1fd0a4f28419497f9722a3daafe3b4186f6b6457e09080a3600180556126cd90816100848239f35b631e4fbdf760e01b815260006004820152602490fd5b600080fdfe6080604052600436101561001257600080fd5b60003560e01c8063141961bc14611d2057806319ac74bd14611cc85780633d891f591461056f57806343a19a6514611c1d57806345598b4a14611a5b5780635598f8cc146119635780635b7baf64146117d25780636568a2f21461142a5780636b5ca27d146111ca5780636caa9218146111ac578063715018a614611153578063827039b61461114e5780638aea3dc91461114e5780638c7bc8381461112f5780638da5cb5b14611106578063993c800014610f3c578063a1e5084c14610eb1578063a3012d5314610762578063ab2d05da146106e3578063c8d6f3c7146106c1578063de99347a146105b7578063e081dbf91461056f578063ee1554a31461050b578063f14faf6f14610217578063f25e1e93146101cd5763f2fde38b1461013a57600080fd5b346101c85760203660031901126101c857610153611fec565b61015b6120fb565b6001600160a01b039081169081156101af57600054826bffffffffffffffffffffffff60a01b821617600055167f8be0079c531659141344cd1fd0a4f28419497f9722a3daafe3b4186f6b6457e0600080a3005b604051631e4fbdf760e01b815260006004820152602490fd5b600080fd5b346101c8576101db366120e5565b906000526006602052604060002080548210156101c8576020916101fe91612018565b905460405160039290921b1c6001600160a01b03168152f35b6020806003193601126101c8576004356102346002548210612185565b61024661024082611e20565b506121d1565b61025460c08201511561228a565b6101408101516104d15761016081015161048c57608001514210156104475761027b6122d6565b34156104025761028a81611e20565b5081600052600383526040600020336000528352604060002054156103b7575b816000526004835260406000203360005283526102cc3460406000205461216b565b90604051606081019080821067ffffffffffffffff8311176103a15760059361033d92604052815260028682014281526040830190600082528760005260048952604060002033600052895260406000209351845551600184015551151591019060ff801983541691151516179055565b82600052600384526040600020336000528452604060002061036034825461216b565b90550161036e34825461216b565b90557f0b5b4c52969ff7329ecf7ee536409fda87812b15a8622bc6e8cdeab3aee14a26604051923484523393a360018055005b634e487b7160e01b600052604160045260246000fd5b816000526006835260406000208054600160401b8110156103a1576103e191600182018155612018565b81546001600160a01b0360039290921b91821b19163390911b1790556102aa565b60405162461bcd60e51b815260048101839052601f60248201527f446f6e6174696f6e206d7573742062652067726561746572207468616e2030006044820152606490fd5b60405162461bcd60e51b815260048101839052601860248201527f43616d706169676e20646561646c696e652070617373656400000000000000006044820152606490fd5b60405162461bcd60e51b815260048101849052601b60248201527f43616d706169676e20686173206265656e2063616e63656c6c656400000000006044820152606490fd5b60405162461bcd60e51b815260048101849052601260248201527110d85b5c185a59db881a5cc81c185d5cd95960721b6044820152606490fd5b346101c85760403660031901126101c857610524612002565b600435600052600460205260406000209060018060a01b03166000526020526060604060002080549060ff600260018301549201541690604051928352602083015215156040820152f35b346101c85760403660031901126101c857610588612002565b600435600052600360205260406000209060018060a01b03166000526020526020604060002054604051908152f35b346101c85760203660031901126101c8576004356105d36120fb565b6105e06002548210612185565b6105e981611e20565b50600881019081549060ff821661067c576006015460ff166106375760ff1916600117905533907f0380a3e5443a5d671036b0710bc377d744a40a037c87271f064bce856b8707ea600080a3005b60405162461bcd60e51b815260206004820152601f60248201527f43616e6e6f742070617573652066696e616c697a65642063616d706169676e006044820152606490fd5b60405162461bcd60e51b815260206004820152601760248201527f43616d706169676e20616c7265616479207061757365640000000000000000006044820152606490fd5b346101c85760003660031901126101c8576020604051662386f26fc100008152f35b346101c8576107076106f4366120e5565b906107026002548210612185565b6123db565b604051906040820192604083528051809452606083019360208092019060005b8181106107455785870384870152858061074189886120b1565b0390f35b82516001600160a01b031687529583019591830191600101610727565b346101c85760c03660031901126101c8576004356001600160a01b03811681036101c85760243567ffffffffffffffff81116101c8576107a690369060040161204c565b90604491823567ffffffffffffffff81116101c8576107c990369060040161204c565b926084356001600160a01b03841615610e6d57606491662386f26fc10000833510610e34578115610df15761080084511515612127565b60c8845111610dbd5760a43515610d8457620151808083029283048103610b3a578210610d41576301e133808211610cfe575061083d904261216b565b936040519061084b82611eab565b60018060a01b0385168252836020830152604082015281356060820152846080820152600060a0820152600060c0820152600060e08201523361010082015260a4356101208201526000610140820152600061016082015242610180820152600254600160401b8110156103a1578060016108c99201600255611e20565b919091610ce857805182546001600160a01b0319166001600160a01b0391909116178255602081015180519067ffffffffffffffff82116103a15781906109136001860154611e71565b601f8111610c95575b50602090601f8311600114610c2357600092610c18575b50508160011b916000199060031b1c19161760018301555b604081015180519067ffffffffffffffff82116103a15761096f6002850154611e71565b601f8111610bd1575b50602090601f8311600114610b5b5791806009949261018094600092610b50575b50508160011b916000199060031b1c19161760028501555b606081015160038501556080810151600485015560a08101516005850155600684016109ef60c08301511515829060ff801983541691151516179055565b60e0820151815461ff00191690151560081b61ff0016178155610100820151815462010000600160b01b0360109290921b9190911662010000600160b01b0319909116179055610120810151600785015561014081015160088501805460ff191691151560ff16919091178155610a7c90610160830151815461ff00191690151560081b61ff0016179055565b01519101556002546000199485820194918511610b3a57336000526005602052604060002091825491600160401b8310156103a157602097610ae684899660017f9acde30d58f1090eba97bec1b8edd6738fbba1d83366d3771782db7efbdce03097018155612018565b819291549060031b9187831b921b1916179055610b0e60405196608088526080880190611fac565b943586890152604086015260a43560608601526001600160a01b031693339381900390a4604051908152f35b634e487b7160e01b600052601160045260246000fd5b015190508a80610999565b906002850160005260206000209160005b601f1985168110610bb9575092600994926001926101809583601f19811610610ba0575b505050811b0160028501556109b1565b015160001960f88460031b161c191690558a8080610b90565b91926020600181928685015181550194019201610b6c565b600285016000526020600020601f840160051c810160208510610c11575b601f830160051c82018110610c05575050610978565b60008155600101610bef565b5080610bef565b015190508880610933565b9250600185016000526020600020906000935b601f1984168510610c7a576001945083601f19811610610c61575b505050811b01600183015561094b565b015160001960f88460031b161c19169055888080610c51565b81810151835560209485019460019093019290910190610c36565b909150600185016000526020600020601f840160051c810160208510610ce1575b90849392915b601f830160051c82018110610cd257505061091c565b60008155859450600101610cbc565b5080610cb6565b634e487b7160e01b600052600060045260246000fd5b90507f43616d706169676e206475726174696f6e20746f6f206c6f6e670000000000006040519162461bcd60e51b835260206004840152601a6024840152820152fd5b90507f43616d706169676e206475726174696f6e20746f6f2073686f727400000000006040519162461bcd60e51b835260206004840152601b6024840152820152fd5b905072125b9d985b1a590819185d1858985cd9481251606a1b6040519162461bcd60e51b83526020600484015260136024840152820152fd5b90506d5469746c6520746f6f206c6f6e6760901b6040519162461bcd60e51b835260206004840152600e6024840152820152fd5b90507f4475726174696f6e206d75737420626520706f736974697665000000000000006040519162461bcd60e51b83526020600484015260196024840152820152fd5b905072476f616c20616d6f756e7420746f6f206c6f7760681b6040519162461bcd60e51b83526020600484015260136024840152820152fd5b60405162461bcd60e51b815260206004820152601b60248201527f496e76616c69642062656e65666963696172792061646472657373000000000081840152606490fd5b346101c8576020806003193601126101c8576001600160a01b03610ed3611fec565b1660005260058152604060002090604051808383829554938481520190600052836000209260005b85828210610f2657505050610f1292500383611ee4565b6107416040519282849384528301906120b1565b8554845260019586019588955093019201610efb565b346101c8576020806003193601126101c857600435610f5e6002548210612185565b610f666122d6565b610f6f81611e20565b509181600052600481526040600020336000528152604060002092610f9b60ff6006830154161561228a565b83549384156110cd57600281019081549060ff82166110885760010154620151808101809111610b3a57421161104c579160059160017f74a3feb743316d064e1428663f9180d4b8433272a67b548e399a722fd9f25cef959460ff1916179055846000526003835260406000203360005283526000604081205501611021858254612178565b905561103d600080808088335af16110376122f9565b50612329565b6040519384523393a360018055005b60405162461bcd60e51b815260048101859052601460248201527311dc9858d9481c195c9a5bd908195e1c1a5c995960621b6044820152606490fd5b60405162461bcd60e51b815260048101869052601960248201527f446f6e6174696f6e20616c726561647920726566756e646564000000000000006044820152606490fd5b60405162461bcd60e51b8152600481018490526011602482015270139bc8191bdb985d1a5bdb88199bdd5b99607a1b6044820152606490fd5b346101c85760003660031901126101c8576000546040516001600160a01b039091168152602090f35b346101c85760003660031901126101c85760206040516301e133808152f35b612093565b346101c85760003660031901126101c85761116c6120fb565b600080546001600160a01b0319811682556001600160a01b03167f8be0079c531659141344cd1fd0a4f28419497f9722a3daafe3b4186f6b6457e08280a3005b346101c85760003660031901126101c8576020600254604051908152f35b346101c85760203660031901126101c8576004356111eb6002548210612185565b6111f36122d6565b6111fc81611e20565b506006810180549161121160ff84161561228a565b6001600160a01b039033601085901c831614801561141d575b156113cd57600581019283549460038301548610801596600485015442108015906113c6575b1561136a5760ff19831660011784558780611361575b1561130957505050506000808093819354168554905af16112856122f9565b50156112c4577f58d612671e6b4848a067857f6d94e86ccf9b5e3c3938e0367f7b3e4bbacf2652916040915b549082519182526020820152a260018055005b60405162461bcd60e51b815260206004820152601e60248201527f5472616e7366657220746f2062656e6566696369617279206661696c656400006044820152606490fd5b7f58d612671e6b4848a067857f6d94e86ccf9b5e3c3938e0367f7b3e4bbacf2652979550604096945081611357575b50611345575b50506112b1565b61ffff1916610101179055858061133e565b9050151588611338565b50801515611266565b60405162461bcd60e51b815260206004820152602e60248201527f43616d706169676e20646561646c696e65206e6f74207265616368656420616e60448201526d190819dbd85b081b9bdd081b595d60921b6064820152608490fd5b5087611250565b60405162461bcd60e51b815260206004820152602260248201527f4f6e6c792063726561746f72206f72206f776e65722063616e2066696e616c696044820152617a6560f01b6064820152608490fd5b508160005416331461122a565b346101c85760603660031901126101c85760043567ffffffffffffffff6024358181116101c85761145f90369060040161204c565b906044358181116101c85761147890369060040161204c565b906114866002548510612185565b61148f84611e20565b506006810154909190601081901c6001600160a01b0316330361178d5760ff16611748576114bf84511515612127565b6001808301928551938385116103a1576114d98154611e71565b94601f95868111611700575b506020868211600114611699579080600294939260009161168e575b50600019600383901b1c191690851b1790555b019284519283116103a1576115298454611e71565b818111611646575b5060209083116001146115b8579282806115a89461159a97947fb5ee6f58aef80bee66f974df80f0c9c1e3878126cb7e52fcfe243cb07fefdcbd99976000936115ad575b501b916000199060031b1c19161790555b604051938493604085526040850190611fac565b908382036020850152611fac565b0390a2005b86015192508b611575565b601f9291921982169084600052806000209160005b8181106116305750927fb5ee6f58aef80bee66f974df80f0c9c1e3878126cb7e52fcfe243cb07fefdcbd9795926115a895928261159a999610611617575b5050811b019055611586565b85015160001960f88460031b161c19169055898061160b565b87830151845592850192602092830192016115cd565b8460005260206000208280860160051c82019260208710611685575b0160051c019083905b828110611679575050611531565b6000815501839061166b565b92508192611662565b90508901518b611501565b9291908490601f19811683600052856000209060005b8c8282106116e95750509582600297106116d0575b5050811b019055611514565b8b015160001960f88460031b161c191690558b806116c4565b8801518355602097880197899590930192016116af565b8260005260206000208780840160051c8201926020851061173f575b0160051c019085905b8281106117335750506114e5565b60008155018590611725565b9250819261171c565b60405162461bcd60e51b815260206004820152601e60248201527f43616e6e6f7420656469742066696e616c697a65642063616d706169676e00006044820152606490fd5b60405162461bcd60e51b815260206004820152601e60248201527f4f6e6c792063616d706169676e2063726561746f722063616e206564697400006044820152606490fd5b346101c8576020806003193601126101c8576004356117f46002548210612185565b6117fc6122d6565b600661180782611e20565b50015460ff8116156119255760081c60ff16156118d2578060005260038252604060002033600052825260406000205491821561188e577f7a482fdeb6bc9a1376f597068a214a7a39472bb2eff1b8cad21ba04f49ddca1b90826000526003815260406000203360005281526000604081205561103d600080808088335af16110376122f9565b6064906040519062461bcd60e51b82526004820152601960248201527f4e6f20636f6e747269627574696f6e20746f20726566756e64000000000000006044820152fd5b60405162461bcd60e51b815260048101839052602560248201527f526566756e6473206e6f7420656e61626c656420666f7220746869732063616d6044820152643830b4b3b760d91b6064820152608490fd5b60405162461bcd60e51b815260048101849052601660248201527510d85b5c185a59db881b9bdd08199a5b985b1a5e995960521b6044820152606490fd5b346101c85760203660031901126101c85761198f61024060043561198a6002548210612185565b611e20565b60018060a01b03808251169060208301519260408101519060608101519260808201519060a08301519060c084015115159060e0850151151590610100860151169161012086015193610140870151151595611a1f6101806101608a0151151599015199611a116040519e8f9e8f9081526101a0908160208201520190611fac565b8d810360408f015290611fac565b9960608c015260808b015260a08a015260c089015260e08801526101008701526101208601526101408501526101608401526101808301520390f35b346101c8576020806003193601126101c857600435611a7d6002548210612185565b611aa0611a8982611e20565b50610100916001600160a01b0391829184916121d1565b0151163314908115611c0f575b5015611bb457611abb6122d6565b611ac482611e20565b50906006820190815460ff8116611b7157600884019081549160ff8360081c16611b2c5761ff001992831684179055161790556005015460405190815233927f0f7f68c3235929bc579f89ca39893f34cca009140caeef3c2803dac725684f1c91a360018055005b60405162461bcd60e51b815260048101899052601a60248201527f43616d706169676e20616c72656164792063616e63656c6c65640000000000006044820152606490fd5b6064866040519062461bcd60e51b825280600483015260248201527f43616e6e6f742063616e63656c2066696e616c697a65642063616d706169676e6044820152fd5b60405162461bcd60e51b815260048101849052602d60248201527f4f6e6c792063726561746f72206f72206f776e65722063616e20706572666f7260448201526c36903a3434b99030b1ba34b7b760991b6064820152608490fd5b905060005416331484611aad565b346101c85760203660031901126101c857600435611c396120fb565b611c466002548210612185565b6008611c5182611e20565b5001805460ff811615611c8d5760ff1916905533907f0b4a66349bf9f3b39405b36ade37f1bd0d11fb73b9e7a8af888ce296f1032bb0600080a3005b60405162461bcd60e51b815260206004820152601360248201527210d85b5c185a59db881b9bdd081c185d5cd959606a1b6044820152606490fd5b346101c85760403660031901126101c857611ce1611fec565b6001600160a01b03166000908152600560205260409020805460243591908210156101c857602091611d1291612018565b90546040519160031b1c8152f35b346101c85760203660031901126101c8576004356002548110156101c857611d4790611e20565b5080546001600160a01b0390811690611d6260018401611f06565b9260ff611d7160028301611f06565b916003810154936004820154906005830154600684015490600785015493611dc86009600888015497015498611dba6040519d8e9d8e528d6101a0908160208201520190611fac565b8c810360408e015290611fac565b9860608b015260808a015260a0890152848116151560c0890152848160081c16151560e089015260101c16610100870152610120860152818116151561014086015260081c1615156101608401526101808301520390f35b600254811015611e5b57600a906002600052027f405787fa12a823e0f2b7631cc41b3ba8828b3321ca811111fa75cd3aa3bb5ace0190600090565b634e487b7160e01b600052603260045260246000fd5b90600182811c92168015611ea1575b6020831014611e8b57565b634e487b7160e01b600052602260045260246000fd5b91607f1691611e80565b6101a0810190811067ffffffffffffffff8211176103a157604052565b6020810190811067ffffffffffffffff8211176103a157604052565b90601f8019910116810190811067ffffffffffffffff8211176103a157604052565b9060405191826000825492611f1a84611e71565b908184526001948581169081600014611f895750600114611f46575b5050611f4492500383611ee4565b565b9093915060005260209081600020936000915b818310611f71575050611f4493508201013880611f36565b85548884018501529485019487945091830191611f59565b915050611f4494506020925060ff191682840152151560051b8201013880611f36565b919082519283825260005b848110611fd8575050826000602080949584010152601f8019910116010190565b602081830181015184830182015201611fb7565b600435906001600160a01b03821682036101c857565b602435906001600160a01b03821682036101c857565b8054821015611e5b5760005260206000200190600090565b67ffffffffffffffff81116103a157601f01601f191660200190565b81601f820112156101c85780359061206382612030565b926120716040519485611ee4565b828452602083830101116101c857816000926020809301838601378301015290565b346101c85760003660031901126101c8576020604051620151808152f35b90815180825260208080930193019160005b8281106120d1575050505090565b8351855293810193928101926001016120c3565b60409060031901126101c8576004359060243590565b6000546001600160a01b0316330361210f57565b60405163118cdaa760e01b8152336004820152602490fd5b1561212e57565b60405162461bcd60e51b81526020600482015260156024820152745469746c652063616e6e6f7420626520656d70747960581b6044820152606490fd5b91908201809211610b3a57565b91908203918211610b3a57565b1561218c57565b60405162461bcd60e51b815260206004820152601760248201527f43616d706169676e20646f6573206e6f742065786973740000000000000000006044820152606490fd5b906040516121de81611eab565b6101806009829460018060a01b038082541685526121fe60018301611f06565b602086015261220f60028301611f06565b60408601526003820154606086015260048201546080860152600582015460a0860152600682015460ff8116151560c087015260ff8160081c16151560e087015260101c16610100850152600781015461012085015260ff6008820154818116151561014087015260081c1615156101608501520154910152565b1561229157565b60405162461bcd60e51b815260206004820152601a60248201527f43616d706169676e20616c72656164792066696e616c697a65640000000000006044820152606490fd5b6002600154146122e7576002600155565b604051633ee5aeb560e01b8152600490fd5b3d15612324573d9061230a82612030565b916123186040519384611ee4565b82523d6000602084013e565b606090565b1561233057565b60405162461bcd60e51b81526020600482015260166024820152751499599d5b99081d1c985b9cd9995c8819985a5b195960521b6044820152606490fd5b67ffffffffffffffff81116103a15760051b60200190565b906123908261236e565b61239d6040519182611ee4565b82815280926123ae601f199161236e565b0190602036910137565b6000198114610b3a5760010190565b8051821015611e5b5760209160051b010190565b6000928184526020906006825260408086209381518086868298549384815201908a52868a20928a5b888282106126785750505061241b92500386611ee4565b845195861561264d5780871015612647575085915b61243987612386565b9561244388612386565b95895b8981106125f55750505050508591600019918287019187831191825b6125e1578386101561257257895b61247a878b612178565b86810190811161255e578110156125445761249581896123c7565b51600182019081831161253057906124bf92916124b2828c6123c7565b51116124c4575b506123b8565b612470565b6124ce828b6123c7565b516124d9828c6123c7565b516124e4848d6123c7565b526124ef828c6123c7565b526001600160a01b0390612529908c612522858561250d82856123c7565b51169561251a85856123c7565b5116926123c7565b528c6123c7565b52386124b9565b634e487b7160e01b8d52601160045260248dfd5b509194612553909391936123b8565b949182939193612462565b634e487b7160e01b8c52601160045260248cfd5b959450965050505061258382612386565b9261258d83612386565b955b83811061259e57505050509190565b6125dc906001600160a01b036125b482856123c7565b51166125c082886123c7565b526125cb81856123c7565b516125d6828a6123c7565b526123b8565b61258f565b634e487b7160e01b8a52601160045260248afd5b612642906001600160a01b038061260c83876123c7565b5116612618838d6123c7565b52868d5260038452858d209061262e83876123c7565b51168d528352848c20546125d6828b6123c7565b612446565b91612430565b5050925092505080519061266082611ec8565b838252519261266e84611ec8565b8084523681379190565b85546001600160a01b031684526001958601958b95509301920161240456fea2646970667358221220eee6941bf061b55d2393140b47c0bb41f52db597d54a1de1b62239715aa7809864736f6c63430008140033",
  "linkReferences": {},
  "deployedLinkReferences": {}
}