{
  "_format": "hh-sol-artifact-1",
  "contractName": "CharityCampaignFactory",
  "sourceName": "contracts/CharityCampaignFactory.sol",
  "abi": [
    {
      "inputs": [],
      "stateMutability": "nonpayable",
      "type": "constructor"
    },
    {
      "inputs": [
        {
          "internalType": "address",
          "name": "owner",
          "type": "address"
        }
      ],
      "name": "OwnableInvalidOwner",
      "type": "error"
    },
    {
      "inputs": [
        {
          "internalType": "address",
          "name": "account",
          "type": "address"
        }
      ],
      "name": "OwnableUnauthorizedAccount",
      "type": "error"
    },
    {
      "inputs": [],
      "name": "ReentrancyGuardReentrantCall",
      "type": "error"
    },
    {
      "anonymous": false,
      "inputs": [
        {
          "indexed": true,
          "internalType": "uint256",
          "name": "campaignId",
          "type": "uint256"
        },
        {
          "indexed": true,
          "internalType": "address",
          "name": "creator",
          "type": "address"
        },
        {
          "indexed": true,
          "internalType": "address",
          "name": "beneficiary",
          "type": "address"
        },
        {
          "indexed": false,
          "internalType": "string",
          "name": "title",
          "type": "string"
        },
        {
          "indexed": false,
          "internalType": "uint256",
          "name": "goalAmount",
          "type": "uint256"
        },
        {
          "indexed": false,
          "internalType": "uint256",
          "name": "deadline",
          "type": "uint256"
        }
      ],
      "name": "CampaignCreated",
      "type": "event"
    },
    {
      "anonymous": false,
      "inputs": [
        {
          "indexed": true,
          "internalType": "uint256",
          "name": "campaignId",
          "type": "uint256"
        },
        {
          "indexed": false,
          "internalType": "uint256",
          "name": "totalRaised",
          "type": "uint256"
        },
        {
          "indexed": false,
          "internalType": "bool",
          "name": "goalReached",
          "type": "bool"
        }
      ],
      "name": "CampaignFinalized",
      "type": "event"
    },
    {
      "anonymous": false,
      "inputs": [
        {
          "indexed": true,
          "internalType": "uint256",
          "name": "campaignId",
          "type": "uint256"
        },
        {
          "indexed": true,
          "internalType": "address",
          "name": "donor",
          "type": "address"
        },
        {
          "indexed": false,
          "internalType": "uint256",
          "name": "amount",
          "type": "uint256"
        }
      ],
      "name": "DonationReceived",
      "type": "event"
    },
    {
      "anonymous": false,
      "inputs": [
        {
          "indexed": true,
          "internalType": "address",
          "name": "previousOwner",
          "type": "address"
        },
        {
          "indexed": true,
          "internalType": "address",
          "name": "newOwner",
          "type": "address"
        }
      ],
      "name": "OwnershipTransferred",
      "type": "event"
    },
    {
      "anonymous": false,
      "inputs": [
        {
          "indexed": true,
          "internalType": "uint256",
          "name": "campaignId",
          "type": "uint256"
        },
        {
          "indexed": true,
          "internalType": "address",
          "name": "donor",
          "type": "address"
        },
        {
          "indexed": false,
          "internalType": "uint256",
          "name": "amount",
          "type": "uint256"
        }
      ],
      "name": "RefundIssued",
      "type": "event"
    },
    {
      "inputs": [
        {
          "internalType": "uint256",
          "name": "",
          "type": "uint256"
        },
        {
          "internalType": "uint256",
          "name": "",
          "type": "uint256"
        }
      ],
      "name": "campaignDonors",
      "outputs": [
        {
          "internalType": "address",
          "name": "",
          "type": "address"
        }
      ],
      "stateMutability": "view",
      "type": "function"
    },
    {
      "inputs": [
        {
          "internalType": "uint256",
          "name": "",
          "type": "uint256"
        }
      ],
      "name": "campaigns",
      "outputs": [
        {
          "internalType": "address payable",
          "name": "beneficiary",
          "type": "address"
        },
        {
          "internalType": "string",
          "name": "title",
          "type": "string"
        },
        {
          "internalType": "string",
          "name": "description",
          "type": "string"
        },
        {
          "internalType": "uint256",
          "name": "goalAmount",
          "type": "uint256"
        },
        {
          "internalType": "uint256",
          "name": "deadline",
          "type": "uint256"
        },
        {
          "internalType": "uint256",
          "name": "totalRaised",
          "type": "uint256"
        },
        {
          "internalType": "bool",
          "name": "finalized",
          "type": "bool"
        },
        {
          "internalType": "bool",
          "name": "refundEnabled",
          "type": "bool"
        },
        {
          "internalType": "address",
          "name": "creator",
          "type": "address"
        }
      ],
      "stateMutability": "view",
      "type": "function"
    },
    {
      "inputs": [
        {
          "internalType": "uint256",
          "name": "_campaignId",
          "type": "uint256"
        }
      ],
      "name": "claimRefund",
      "outputs": [],
      "stateMutability": "nonpayable",
      "type": "function"
    },
    {
      "inputs": [
        {
          "internalType": "uint256",
          "name": "",
          "type": "uint256"
        },
        {
          "internalType": "address",
          "name": "",
          "type": "address"
        }
      ],
      "name": "contributions",
      "outputs": [
        {
          "internalType": "uint256",
          "name": "",
          "type": "uint256"
        }
      ],
      "stateMutability": "view",
      "type": "function"
    },
    {
      "inputs": [
        {
          "internalType": "address payable",
          "name": "_beneficiary",
          "type": "address"
        },
        {
          "internalType": "string",
          "name": "_title",
          "type": "string"
        },
        {
          "internalType": "string",
          "name": "_description",
          "type": "string"
        },
        {
          "internalType": "uint256",
          "name": "_goalAmount",
          "type": "uint256"
        },
        {
          "internalType": "uint256",
          "name": "_durationDays",
          "type": "uint256"
        }
      ],
      "name": "createCampaign",
      "outputs": [
        {
          "internalType": "uint256",
          "name": "",
          "type": "uint256"
        }
      ],
      "stateMutability": "nonpayable",
      "type": "function"
    },
    {
      "inputs": [
        {
          "internalType": "uint256",
          "name": "_campaignId",
          "type": "uint256"
        }
      ],
      "name": "donate",
      "outputs": [],
      "stateMutability": "payable",
      "type": "function"
    },
    {
      "inputs": [
        {
          "internalType": "uint256",
          "name": "_campaignId",
          "type": "uint256"
        }
      ],
      "name": "finalizeCampaign",
      "outputs": [],
      "stateMutability": "nonpayable",
      "type": "function"
    },
    {
      "inputs": [
        {
          "internalType": "uint256",
          "name": "_campaignId",
          "type": "uint256"
        }
      ],
      "name": "getCampaign",
      "outputs": [
        {
          "internalType": "address",
          "name": "beneficiary",
          "type": "address"
        },
        {
          "internalType": "string",
          "name": "title",
          "type": "string"
        },
        {
          "internalType": "string",
          "name": "description",
          "type": "string"
        },
        {
          "internalType": "uint256",
          "name": "goalAmount",
          "type": "uint256"
        },
        {
          "internalType": "uint256",
          "name": "deadline",
          "type": "uint256"
        },
        {
          "internalType": "uint256",
          "name": "totalRaised",
          "type": "uint256"
        },
        {
          "internalType": "bool",
          "name": "finalized",
          "type": "bool"
        },
        {
          "internalType": "bool",
          "name": "refundEnabled",
          "type": "bool"
        },
        {
          "internalType": "address",
          "name": "creator",
          "type": "address"
        }
      ],
      "stateMutability": "view",
      "type": "function"
    },
    {
      "inputs": [],
      "name": "getCampaignCount",
      "outputs": [
        {
          "internalType": "uint256",
          "name": "",
          "type": "uint256"
        }
      ],
      "stateMutability": "view",
      "type": "function"
    },
    {
      "inputs": [
        {
          "internalType": "uint256",
          "name": "_campaignId",
          "type": "uint256"
        },
        {
          "internalType": "address",
          "name": "_donor",
          "type": "address"
        }
      ],
      "name": "getContribution",
      "outputs": [
        {
          "internalType": "uint256",
          "name": "",
          "type": "uint256"
        }
      ],
      "stateMutability": "view",
      "type": "function"
    },
    {
      "inputs": [
        {
          "internalType": "uint256",
          "name": "_campaignId",
          "type": "uint256"
        },
        {
          "internalType": "uint256",
          "name": "_limit",
          "type": "uint256"
        }
      ],
      "name": "getTopDonors",
      "outputs": [
        {
          "internalType": "address[]",
          "name": "donors",
          "type": "address[]"
        },
        {
          "internalType": "uint256[]",
          "name": "amounts",
          "type": "uint256[]"
        }
      ],
      "stateMutability": "view",
      "type": "function"
    },
    {
      "inputs": [
        {
          "internalType": "address",
          "name": "_creator",
          "type": "address"
        }
      ],
      "name": "getUserCampaigns",
      "outputs": [
        {
          "internalType": "uint256[]",
          "name": "",
          "type": "uint256[]"
        }
      ],
      "stateMutability": "view",
      "type": "function"
    },
    {
      "inputs": [],
      "name": "owner",
      "outputs": [
        {
          "internalType": "address",
          "name": "",
          "type": "address"
        }
      ],
      "stateMutability": "view",
      "type": "function"
    },
    {
      "inputs": [],
      "name": "renounceOwnership",
      "outputs": [],
      "stateMutability": "nonpayable",
      "type": "function"
    },
    {
      "inputs": [
        {
          "internalType": "address",
          "name": "newOwner",
          "type": "address"
        }
      ],
      "name": "transferOwnership",
      "outputs": [],
      "stateMutability": "nonpayable",
      "type": "function"
    },
    {
      "inputs": [
        {
          "internalType": "address",
          "name": "",
          "type": "address"
        },
        {
          "internalType": "uint256",
          "name": "",
          "type": "uint256"
        }
      ],
      "name": "userCampaigns",
      "outputs": [
        {
          "internalType": "uint256",
          "name": "",
          "type": "uint256"
        }
      ],
      "stateMutability": "view",
      "type": "function"
    }
  ],
  "bytecode": "0x608060405234801561001057600080fd5b50338061003757604051631e4fbdf760e01b81526000600482015260240160405180910390fd5b6100408161004a565b506001805561009a565b600080546001600160a01b038381166001600160a01b0319831681178455604051919092169283917f8be0079c531659141344cd1fd0a4f28419497f9722a3daafe3b4186f6b6457e09190a35050565b6120bf806100a96000396000f3fe6080604052600436106100f35760003560e01c8063715018a61161008a578063e081dbf911610059578063e081dbf9146102d1578063f14faf6f146102f1578063f25e1e9314610304578063f2fde38b1461032457600080fd5b8063715018a61461022f5780638da5cb5b14610244578063a1e5084c14610276578063ab2d05da146102a357600080fd5b80635598f8cc116100c65780635598f8cc146101b85780635b7baf64146101d85780636b5ca27d146101fa5780636caa92181461021a57600080fd5b8063075843c3146100f8578063141961bc1461012b57806319ac74bd146101605780633d891f5914610180575b600080fd5b34801561010457600080fd5b50610118610113366004611bb7565b610344565b6040519081526020015b60405180910390f35b34801561013757600080fd5b5061014b610146366004611c3f565b61069b565b60405161012299989796959493929190611c9e565b34801561016c57600080fd5b5061011861017b366004611d12565b610822565b34801561018c57600080fd5b5061011861019b366004611d3e565b600360209081526000928352604080842090915290825290205481565b3480156101c457600080fd5b5061014b6101d3366004611c3f565b610853565b3480156101e457600080fd5b506101f86101f3366004611c3f565b610ac4565b005b34801561020657600080fd5b506101f8610215366004611c3f565b610d20565b34801561022657600080fd5b50600254610118565b34801561023b57600080fd5b506101f8611013565b34801561025057600080fd5b506000546001600160a01b03165b6040516001600160a01b039091168152602001610122565b34801561028257600080fd5b50610296610291366004611d6e565b611027565b6040516101229190611dcd565b3480156102af57600080fd5b506102c36102be366004611de0565b611093565b604051610122929190611e02565b3480156102dd57600080fd5b506101186102ec366004611d3e565b6115d9565b6101f86102ff366004611c3f565b611603565b34801561031057600080fd5b5061025e61031f366004611de0565b6119e2565b34801561033057600080fd5b506101f861033f366004611d6e565b611a1a565b60006001600160a01b0386166103a15760405162461bcd60e51b815260206004820152601b60248201527f496e76616c69642062656e65666963696172792061646472657373000000000060448201526064015b60405180910390fd5b600083116103fc5760405162461bcd60e51b815260206004820152602260248201527f476f616c20616d6f756e74206d7573742062652067726561746572207468616e604482015261020360f41b6064820152608401610398565b60008211801561040e575061016d8211155b61044d5760405162461bcd60e51b815260206004820152601060248201526f24b73b30b634b210323ab930ba34b7b760811b6044820152606401610398565b60008551116104965760405162461bcd60e51b81526020600482015260156024820152745469746c652063616e6e6f7420626520656d70747960581b6044820152606401610398565b60006104a58362015180611e78565b6104af9042611e8f565b60408051610120810182526001600160a01b038a81168252602082018a81529282018990526060820188905260808201849052600060a0830181905260c0830181905260e083018190523361010084015260028054600181018255915282517f405787fa12a823e0f2b7631cc41b3ba8828b3321ca811111fa75cd3aa3bb5ace600790920291820180546001600160a01b031916919093161782559251939450909283927f405787fa12a823e0f2b7631cc41b3ba8828b3321ca811111fa75cd3aa3bb5acf01906105809082611f2b565b50604082015160028201906105959082611f2b565b50606082015160038201556080820151600482015560a0820151600582015560c08201516006909101805460e08401516101009485015161ffff1990921693151561ff001916939093179215159093029190911762010000600160b01b031916620100006001600160a01b039093169290920291909117905560025460009061062090600190611feb565b33600081815260046020908152604080832080546001810182559084529190922001839055519192506001600160a01b038b169183907fab59b1925b9e9f5979fb63f46375f2f218e34df984a2b8725b5539447952b8e090610687908d908c908a90611ffe565b60405180910390a498975050505050505050565b600281815481106106ab57600080fd5b6000918252602090912060079091020180546001820180546001600160a01b039092169350906106da90611ea2565b80601f016020809104026020016040519081016040528092919081815260200182805461070690611ea2565b80156107535780601f1061072857610100808354040283529160200191610753565b820191906000526020600020905b81548152906001019060200180831161073657829003601f168201915b50505050509080600201805461076890611ea2565b80601f016020809104026020016040519081016040528092919081815260200182805461079490611ea2565b80156107e15780601f106107b6576101008083540402835291602001916107e1565b820191906000526020600020905b8154815290600101906020018083116107c457829003601f168201915b505050506003830154600484015460058501546006909501549394919390925060ff808216916101008104909116906201000090046001600160a01b031689565b6004602052816000526040600020818154811061083e57600080fd5b90600052602060002001600091509150505481565b60006060806000806000806000808960028054905081106108865760405162461bcd60e51b815260040161039890612023565b600060028c8154811061089b5761089b61205a565b600091825260209182902060408051610120810190915260079092020180546001600160a01b0316825260018101805492939192918401916108dc90611ea2565b80601f016020809104026020016040519081016040528092919081815260200182805461090890611ea2565b80156109555780601f1061092a57610100808354040283529160200191610955565b820191906000526020600020905b81548152906001019060200180831161093857829003601f168201915b5050505050815260200160028201805461096e90611ea2565b80601f016020809104026020016040519081016040528092919081815260200182805461099a90611ea2565b80156109e75780601f106109bc576101008083540402835291602001916109e7565b820191906000526020600020905b8154815290600101906020018083116109ca57829003601f168201915b505050505081526020016003820154815260200160048201548152602001600582015481526020016006820160009054906101000a900460ff161515151581526020016006820160019054906101000a900460ff161515151581526020016006820160029054906101000a90046001600160a01b03166001600160a01b03166001600160a01b0316815250509050806000015181602001518260400151836060015184608001518560a001518660c001518760e001518861010001519a509a509a509a509a509a509a509a509a5050509193959799909294969850565b60025481908110610ae75760405162461bcd60e51b815260040161039890612023565b610aef611a58565b600060028381548110610b0457610b0461205a565b60009182526020909120600790910201600681015490915060ff16610b645760405162461bcd60e51b815260206004820152601660248201527510d85b5c185a59db881b9bdd08199a5b985b1a5e995960521b6044820152606401610398565b6006810154610100900460ff16610bcb5760405162461bcd60e51b815260206004820152602560248201527f526566756e6473206e6f7420656e61626c656420666f7220746869732063616d6044820152643830b4b3b760d91b6064820152608401610398565b600083815260036020908152604080832033845290915290205480610c325760405162461bcd60e51b815260206004820152601960248201527f4e6f20636f6e747269627574696f6e20746f20726566756e64000000000000006044820152606401610398565b60008481526003602090815260408083203380855292528083208390555183908381818185875af1925050503d8060008114610c8a576040519150601f19603f3d011682016040523d82523d6000602084013e610c8f565b606091505b5050905080610cd95760405162461bcd60e51b81526020600482015260166024820152751499599d5b99081d1c985b9cd9995c8819985a5b195960521b6044820152606401610398565b604051828152339086907f7a482fdeb6bc9a1376f597068a214a7a39472bb2eff1b8cad21ba04f49ddca1b9060200160405180910390a3505050610d1c60018055565b5050565b60025481908110610d435760405162461bcd60e51b815260040161039890612023565b610d4b611a58565b600060028381548110610d6057610d6061205a565b60009182526020909120600790910201600681015490915060ff1615610dc85760405162461bcd60e51b815260206004820152601a60248201527f43616d706169676e20616c72656164792066696e616c697a65640000000000006044820152606401610398565b60068101546201000090046001600160a01b0316331480610df357506000546001600160a01b031633145b610e4a5760405162461bcd60e51b815260206004820152602260248201527f4f6e6c792063726561746f72206f72206f776e65722063616e2066696e616c696044820152617a6560f01b6064820152608401610398565b60008160030154826005015410159050816004015442101580610e6a5750805b610ecd5760405162461bcd60e51b815260206004820152602e60248201527f43616d706169676e20646561646c696e65206e6f74207265616368656420616e60448201526d190819dbd85b081b9bdd081b595d60921b6064820152608401610398565b60068201805460ff19166001179055808015610eed575060008260050154115b15610f9e57815460058301546040516000926001600160a01b031691908381818185875af1925050503d8060008114610f42576040519150601f19603f3d011682016040523d82523d6000602084013e610f47565b606091505b5050905080610f985760405162461bcd60e51b815260206004820152601e60248201527f5472616e7366657220746f2062656e6566696369617279206661696c656400006044820152606401610398565b50610fc7565b80158015610fb0575060008260050154115b15610fc75760068201805461ff0019166101001790555b600582015460408051918252821515602083015285917f58d612671e6b4848a067857f6d94e86ccf9b5e3c3938e0367f7b3e4bbacf2652910160405180910390a25050610d1c60018055565b61101b611a82565b6110256000611aaf565b565b6001600160a01b03811660009081526004602090815260409182902080548351818402810184019094528084526060939283018282801561108757602002820191906000526020600020905b815481526020019060010190808311611073575b50505050509050919050565b6060808360028054905081106110bb5760405162461bcd60e51b815260040161039890612023565b60008581526005602090815260408083208054825181850281018501909352808352919290919083018282801561111b57602002820191906000526020600020905b81546001600160a01b031681526001909101906020018083116110fd575b505050505090506000815190508060000361115157505060408051600080825260208201908152818301909252935091506115d1565b60008682106111605786611162565b815b905060008267ffffffffffffffff81111561117f5761117f611b14565b6040519080825280602002602001820160405280156111a8578160200160208202803683370190505b50905060008367ffffffffffffffff8111156111c6576111c6611b14565b6040519080825280602002602001820160405280156111ef578160200160208202803683370190505b50905060005b848110156112c85785818151811061120f5761120f61205a565b60200260200101518382815181106112295761122961205a565b60200260200101906001600160a01b031690816001600160a01b031681525050600360008c815260200190815260200160002060008783815181106112705761127061205a565b60200260200101516001600160a01b03166001600160a01b03168152602001908152602001600020548282815181106112ab576112ab61205a565b6020908102919091010152806112c081612070565b9150506111f5565b5060005b6112d7600186611feb565b81101561149f5760005b60016112ed8388611feb565b6112f79190611feb565b81101561148c578261130a826001611e8f565b8151811061131a5761131a61205a565b60200260200101518382815181106113345761133461205a565b6020026020010151101561147a5760008382815181106113565761135661205a565b602002602001015190508382600161136e9190611e8f565b8151811061137e5761137e61205a565b60200260200101518483815181106113985761139861205a565b602090810291909101015280846113b0846001611e8f565b815181106113c0576113c061205a565b60200260200101818152505060008583815181106113e0576113e061205a565b60200260200101519050858360016113f89190611e8f565b815181106114085761140861205a565b60200260200101518684815181106114225761142261205a565b6001600160a01b03909216602092830291909101909101528086611447856001611e8f565b815181106114575761145761205a565b60200260200101906001600160a01b031690816001600160a01b03168152505050505b8061148481612070565b9150506112e1565b508061149781612070565b9150506112cc565b508267ffffffffffffffff8111156114b9576114b9611b14565b6040519080825280602002602001820160405280156114e2578160200160208202803683370190505b5097508267ffffffffffffffff8111156114fe576114fe611b14565b604051908082528060200260200182016040528015611527578160200160208202803683370190505b50965060005b838110156115ca578281815181106115475761154761205a565b60200260200101518982815181106115615761156161205a565b60200260200101906001600160a01b031690816001600160a01b0316815250508181815181106115935761159361205a565b60200260200101518882815181106115ad576115ad61205a565b6020908102919091010152806115c281612070565b91505061152d565b5050505050505b509250929050565b60008281526003602090815260408083206001600160a01b03851684529091529020545b92915050565b600254819081106116265760405162461bcd60e51b815260040161039890612023565b8160006002828154811061163c5761163c61205a565b600091825260209182902060408051610120810190915260079092020180546001600160a01b03168252600181018054929391929184019161167d90611ea2565b80601f01602080910402602001604051908101604052809291908181526020018280546116a990611ea2565b80156116f65780601f106116cb576101008083540402835291602001916116f6565b820191906000526020600020905b8154815290600101906020018083116116d957829003601f168201915b5050505050815260200160028201805461170f90611ea2565b80601f016020809104026020016040519081016040528092919081815260200182805461173b90611ea2565b80156117885780601f1061175d57610100808354040283529160200191611788565b820191906000526020600020905b81548152906001019060200180831161176b57829003601f168201915b505050918352505060038201546020820152600482015460408201526005820154606082015260069091015460ff80821615156080840152610100820416151560a08301526201000090046001600160a01b031660c091820152810151909150156118355760405162461bcd60e51b815260206004820152601a60248201527f43616d706169676e20616c72656164792066696e616c697a65640000000000006044820152606401610398565b806080015142106118885760405162461bcd60e51b815260206004820152601860248201527f43616d706169676e20646561646c696e652070617373656400000000000000006044820152606401610398565b611890611a58565b600034116118e05760405162461bcd60e51b815260206004820152601f60248201527f446f6e6174696f6e206d7573742062652067726561746572207468616e2030006044820152606401610398565b6000600285815481106118f5576118f561205a565b6000918252602080832088845260038252604080852033865290925290832054600790920201925090036119525760008581526005602090815260408220805460018101825590835291200180546001600160a01b031916331790555b60008581526003602090815260408083203384529091528120805434929061197b908490611e8f565b92505081905550348160050160008282546119969190611e8f565b9091555050604051348152339086907f0b5b4c52969ff7329ecf7ee536409fda87812b15a8622bc6e8cdeab3aee14a269060200160405180910390a3506119dc60018055565b50505050565b600560205281600052604060002081815481106119fe57600080fd5b6000918252602090912001546001600160a01b03169150829050565b611a22611a82565b6001600160a01b038116611a4c57604051631e4fbdf760e01b815260006004820152602401610398565b611a5581611aaf565b50565b600260015403611a7b57604051633ee5aeb560e01b815260040160405180910390fd5b6002600155565b6000546001600160a01b031633146110255760405163118cdaa760e01b8152336004820152602401610398565b600080546001600160a01b038381166001600160a01b0319831681178455604051919092169283917f8be0079c531659141344cd1fd0a4f28419497f9722a3daafe3b4186f6b6457e09190a35050565b6001600160a01b0381168114611a5557600080fd5b634e487b7160e01b600052604160045260246000fd5b600082601f830112611b3b57600080fd5b813567ffffffffffffffff80821115611b5657611b56611b14565b604051601f8301601f19908116603f01168101908282118183101715611b7e57611b7e611b14565b81604052838152866020858801011115611b9757600080fd5b836020870160208301376000602085830101528094505050505092915050565b600080600080600060a08688031215611bcf57600080fd5b8535611bda81611aff565b9450602086013567ffffffffffffffff80821115611bf757600080fd5b611c0389838a01611b2a565b95506040880135915080821115611c1957600080fd5b50611c2688828901611b2a565b9598949750949560608101359550608001359392505050565b600060208284031215611c5157600080fd5b5035919050565b6000815180845260005b81811015611c7e57602081850181015186830182015201611c62565b506000602082860101526020601f19601f83011685010191505092915050565b6001600160a01b038a8116825261012060208301819052600091611cc48483018d611c58565b91508382036040850152611cd8828c611c58565b606085019a909a526080840198909852505060a081019490945291151560c0840152151560e0830152909116610100909101529392505050565b60008060408385031215611d2557600080fd5b8235611d3081611aff565b946020939093013593505050565b60008060408385031215611d5157600080fd5b823591506020830135611d6381611aff565b809150509250929050565b600060208284031215611d8057600080fd5b8135611d8b81611aff565b9392505050565b600081518084526020808501945080840160005b83811015611dc257815187529582019590820190600101611da6565b509495945050505050565b602081526000611d8b6020830184611d92565b60008060408385031215611df357600080fd5b50508035926020909101359150565b604080825283519082018190526000906020906060840190828701845b82811015611e445781516001600160a01b031684529284019290840190600101611e1f565b50505083810382850152611e588186611d92565b9695505050505050565b634e487b7160e01b600052601160045260246000fd5b80820281158282048414176115fd576115fd611e62565b808201808211156115fd576115fd611e62565b600181811c90821680611eb657607f821691505b602082108103611ed657634e487b7160e01b600052602260045260246000fd5b50919050565b601f821115611f2657600081815260208120601f850160051c81016020861015611f035750805b601f850160051c820191505b81811015611f2257828155600101611f0f565b5050505b505050565b815167ffffffffffffffff811115611f4557611f45611b14565b611f5981611f538454611ea2565b84611edc565b602080601f831160018114611f8e5760008415611f765750858301515b600019600386901b1c1916600185901b178555611f22565b600085815260208120601f198616915b82811015611fbd57888601518255948401946001909101908401611f9e565b5085821015611fdb5787850151600019600388901b60f8161c191681555b5050505050600190811b01905550565b818103818111156115fd576115fd611e62565b6060815260006120116060830186611c58565b60208301949094525060400152919050565b60208082526017908201527f43616d706169676e20646f6573206e6f74206578697374000000000000000000604082015260600190565b634e487b7160e01b600052603260045260246000fd5b60006001820161208257612082611e62565b506001019056fea2646970667358221220c9055ddf25ebf6bffa9908bc5c3219f9157b078bbd0703798e0338cbe63a7b2464736f6c63430008140033",
  "linkReferences": {},
  "deployedLinkReferences": {}
}