{
  "_format": "hh-sol-artifact-1",
  "contractName": "CharityCampaignFactory",
  "sourceName": "contracts/CharityCampaignFactory.sol",
  "abi": [
    {
      "inputs": [],
      "stateMutability": "nonpayable",
      "type": "constructor"
    },
    {
      "inputs": [
        {
          "internalType": "address",
          "name": "owner",
          "type": "address"
        }
      ],
      "name": "OwnableInvalidOwner",
      "type": "error"
    },
    {
      "inputs": [
        {
          "internalType": "address",
          "name": "account",
          "type": "address"
        }
      ],
      "name": "OwnableUnauthorizedAccount",
      "type": "error"
    },
    {
      "inputs": [],
      "name": "ReentrancyGuardReentrantCall",
      "type": "error"
    },
    {
      "anonymous": false,
      "inputs": [
        {
          "indexed": true,
          "internalType": "uint256",
          "name": "campaignId",
          "type": "uint256"
        },
        {
          "indexed": true,
          "internalType": "address",
          "name": "creator",
          "type": "address"
        },
        {
          "indexed": false,
          "internalType": "uint256",
          "name": "totalRefunded",
          "type": "uint256"
        }
      ],
      "name": "CampaignCancelled",
      "type": "event"
    },
    {
      "anonymous": false,
      "inputs": [
        {
          "indexed": true,
          "internalType": "uint256",
          "name": "campaignId",
          "type": "uint256"
        },
        {
          "indexed": true,
          "internalType": "address",
          "name": "creator",
          "type": "address"
        },
        {
          "indexed": true,
          "internalType": "address",
          "name": "beneficiary",
          "type": "address"
        },
        {
          "indexed": false,
          "internalType": "string",
          "name": "title",
          "type": "string"
        },
        {
          "indexed": false,
          "internalType": "uint256",
          "name": "goalAmount",
          "type": "uint256"
        },
        {
          "indexed": false,
          "internalType": "uint256",
          "name": "deadline",
          "type": "uint256"
        },
        {
          "indexed": false,
          "internalType": "string",
          "name": "dbUuid",
          "type": "string"
        }
      ],
      "name": "CampaignCreated",
      "type": "event"
    },
    {
      "anonymous": false,
      "inputs": [
        {
          "indexed": true,
          "internalType": "uint256",
          "name": "campaignId",
          "type": "uint256"
        },
        {
          "indexed": false,
          "internalType": "string",
          "name": "newTitle",
          "type": "string"
        },
        {
          "indexed": false,
          "internalType": "string",
          "name": "newDescription",
          "type": "string"
        }
      ],
      "name": "CampaignEdited",
      "type": "event"
    },
    {
      "anonymous": false,
      "inputs": [
        {
          "indexed": true,
          "internalType": "uint256",
          "name": "campaignId",
          "type": "uint256"
        },
        {
          "indexed": false,
          "internalType": "uint256",
          "name": "totalRaised",
          "type": "uint256"
        },
        {
          "indexed": false,
          "internalType": "bool",
          "name": "goalReached",
          "type": "bool"
        }
      ],
      "name": "CampaignFinalized",
      "type": "event"
    },
    {
      "anonymous": false,
      "inputs": [
        {
          "indexed": true,
          "internalType": "uint256",
          "name": "campaignId",
          "type": "uint256"
        },
        {
          "indexed": true,
          "internalType": "address",
          "name": "admin",
          "type": "address"
        }
      ],
      "name": "CampaignPaused",
      "type": "event"
    },
    {
      "anonymous": false,
      "inputs": [
        {
          "indexed": true,
          "internalType": "uint256",
          "name": "campaignId",
          "type": "uint256"
        },
        {
          "indexed": true,
          "internalType": "address",
          "name": "admin",
          "type": "address"
        }
      ],
      "name": "CampaignUnpaused",
      "type": "event"
    },
    {
      "anonymous": false,
      "inputs": [
        {
          "indexed": true,
          "internalType": "uint256",
          "name": "campaignId",
          "type": "uint256"
        },
        {
          "indexed": true,
          "internalType": "address",
          "name": "donor",
          "type": "address"
        },
        {
          "indexed": false,
          "internalType": "uint256",
          "name": "amount",
          "type": "uint256"
        }
      ],
      "name": "DonationCancelled",
      "type": "event"
    },
    {
      "anonymous": false,
      "inputs": [
        {
          "indexed": true,
          "internalType": "uint256",
          "name": "campaignId",
          "type": "uint256"
        },
        {
          "indexed": true,
          "internalType": "address",
          "name": "donor",
          "type": "address"
        },
        {
          "indexed": false,
          "internalType": "uint256",
          "name": "amount",
          "type": "uint256"
        }
      ],
      "name": "DonationReceived",
      "type": "event"
    },
    {
      "anonymous": false,
      "inputs": [
        {
          "indexed": true,
          "internalType": "address",
          "name": "previousOwner",
          "type": "address"
        },
        {
          "indexed": true,
          "internalType": "address",
          "name": "newOwner",
          "type": "address"
        }
      ],
      "name": "OwnershipTransferred",
      "type": "event"
    },
    {
      "anonymous": false,
      "inputs": [
        {
          "indexed": true,
          "internalType": "uint256",
          "name": "campaignId",
          "type": "uint256"
        },
        {
          "indexed": true,
          "internalType": "address",
          "name": "donor",
          "type": "address"
        },
        {
          "indexed": false,
          "internalType": "uint256",
          "name": "amount",
          "type": "uint256"
        }
      ],
      "name": "RefundIssued",
      "type": "event"
    },
    {
      "inputs": [],
      "name": "DONATION_GRACE_PERIOD",
      "outputs": [
        {
          "internalType": "uint256",
          "name": "",
          "type": "uint256"
        }
      ],
      "stateMutability": "view",
      "type": "function"
    },
    {
      "inputs": [],
      "name": "MAX_CAMPAIGN_DURATION",
      "outputs": [
        {
          "internalType": "uint256",
          "name": "",
          "type": "uint256"
        }
      ],
      "stateMutability": "view",
      "type": "function"
    },
    {
      "inputs": [],
      "name": "MIN_CAMPAIGN_DURATION",
      "outputs": [
        {
          "internalType": "uint256",
          "name": "",
          "type": "uint256"
        }
      ],
      "stateMutability": "view",
      "type": "function"
    },
    {
      "inputs": [],
      "name": "MIN_GOAL_AMOUNT",
      "outputs": [
        {
          "internalType": "uint256",
          "name": "",
          "type": "uint256"
        }
      ],
      "stateMutability": "view",
      "type": "function"
    },
    {
      "inputs": [
        {
          "internalType": "uint256",
          "name": "",
          "type": "uint256"
        },
        {
          "internalType": "uint256",
          "name": "",
          "type": "uint256"
        }
      ],
      "name": "campaignDonors",
      "outputs": [
        {
          "internalType": "address",
          "name": "",
          "type": "address"
        }
      ],
      "stateMutability": "view",
      "type": "function"
    },
    {
      "inputs": [
        {
          "internalType": "uint256",
          "name": "",
          "type": "uint256"
        }
      ],
      "name": "campaigns",
      "outputs": [
        {
          "internalType": "address payable",
          "name": "beneficiary",
          "type": "address"
        },
        {
          "internalType": "string",
          "name": "title",
          "type": "string"
        },
        {
          "internalType": "string",
          "name": "description",
          "type": "string"
        },
        {
          "internalType": "uint256",
          "name": "goalAmount",
          "type": "uint256"
        },
        {
          "internalType": "uint256",
          "name": "deadline",
          "type": "uint256"
        },
        {
          "internalType": "uint256",
          "name": "totalRaised",
          "type": "uint256"
        },
        {
          "internalType": "bool",
          "name": "finalized",
          "type": "bool"
        },
        {
          "internalType": "bool",
          "name": "refundEnabled",
          "type": "bool"
        },
        {
          "internalType": "address",
          "name": "creator",
          "type": "address"
        },
        {
          "internalType": "string",
          "name": "dbUuid",
          "type": "string"
        },
        {
          "internalType": "bool",
          "name": "paused",
          "type": "bool"
        },
        {
          "internalType": "bool",
          "name": "cancelled",
          "type": "bool"
        },
        {
          "internalType": "uint256",
          "name": "createdAt",
          "type": "uint256"
        }
      ],
      "stateMutability": "view",
      "type": "function"
    },
    {
      "inputs": [
        {
          "internalType": "uint256",
          "name": "_campaignId",
          "type": "uint256"
        }
      ],
      "name": "cancelCampaign",
      "outputs": [],
      "stateMutability": "nonpayable",
      "type": "function"
    },
    {
      "inputs": [
        {
          "internalType": "uint256",
          "name": "_campaignId",
          "type": "uint256"
        }
      ],
      "name": "cancelDonation",
      "outputs": [],
      "stateMutability": "nonpayable",
      "type": "function"
    },
    {
      "inputs": [
        {
          "internalType": "uint256",
          "name": "_campaignId",
          "type": "uint256"
        }
      ],
      "name": "claimRefund",
      "outputs": [],
      "stateMutability": "nonpayable",
      "type": "function"
    },
    {
      "inputs": [
        {
          "internalType": "uint256",
          "name": "",
          "type": "uint256"
        },
        {
          "internalType": "address",
          "name": "",
          "type": "address"
        }
      ],
      "name": "contributions",
      "outputs": [
        {
          "internalType": "uint256",
          "name": "",
          "type": "uint256"
        }
      ],
      "stateMutability": "view",
      "type": "function"
    },
    {
      "inputs": [
        {
          "internalType": "address payable",
          "name": "_beneficiary",
          "type": "address"
        },
        {
          "internalType": "string",
          "name": "_title",
          "type": "string"
        },
        {
          "internalType": "string",
          "name": "_description",
          "type": "string"
        },
        {
          "internalType": "uint256",
          "name": "_goalAmount",
          "type": "uint256"
        },
        {
          "internalType": "uint256",
          "name": "_durationDays",
          "type": "uint256"
        },
        {
          "internalType": "string",
          "name": "_dbUuid",
          "type": "string"
        }
      ],
      "name": "createCampaign",
      "outputs": [
        {
          "internalType": "uint256",
          "name": "",
          "type": "uint256"
        }
      ],
      "stateMutability": "nonpayable",
      "type": "function"
    },
    {
      "inputs": [
        {
          "internalType": "uint256",
          "name": "_campaignId",
          "type": "uint256"
        }
      ],
      "name": "donate",
      "outputs": [],
      "stateMutability": "payable",
      "type": "function"
    },
    {
      "inputs": [
        {
          "internalType": "uint256",
          "name": "",
          "type": "uint256"
        },
        {
          "internalType": "address",
          "name": "",
          "type": "address"
        }
      ],
      "name": "donations",
      "outputs": [
        {
          "internalType": "uint256",
          "name": "amount",
          "type": "uint256"
        },
        {
          "internalType": "uint256",
          "name": "timestamp",
          "type": "uint256"
        },
        {
          "internalType": "bool",
          "name": "refunded",
          "type": "bool"
        }
      ],
      "stateMutability": "view",
      "type": "function"
    },
    {
      "inputs": [
        {
          "internalType": "uint256",
          "name": "_campaignId",
          "type": "uint256"
        },
        {
          "internalType": "string",
          "name": "_newTitle",
          "type": "string"
        },
        {
          "internalType": "string",
          "name": "_newDescription",
          "type": "string"
        }
      ],
      "name": "editCampaign",
      "outputs": [],
      "stateMutability": "nonpayable",
      "type": "function"
    },
    {
      "inputs": [
        {
          "internalType": "uint256",
          "name": "_campaignId",
          "type": "uint256"
        }
      ],
      "name": "finalizeCampaign",
      "outputs": [],
      "stateMutability": "nonpayable",
      "type": "function"
    },
    {
      "inputs": [
        {
          "internalType": "uint256",
          "name": "_campaignId",
          "type": "uint256"
        }
      ],
      "name": "getCampaign",
      "outputs": [
        {
          "internalType": "address",
          "name": "beneficiary",
          "type": "address"
        },
        {
          "internalType": "string",
          "name": "title",
          "type": "string"
        },
        {
          "internalType": "string",
          "name": "description",
          "type": "string"
        },
        {
          "internalType": "uint256",
          "name": "goalAmount",
          "type": "uint256"
        },
        {
          "internalType": "uint256",
          "name": "deadline",
          "type": "uint256"
        },
        {
          "internalType": "uint256",
          "name": "totalRaised",
          "type": "uint256"
        },
        {
          "internalType": "bool",
          "name": "finalized",
          "type": "bool"
        },
        {
          "internalType": "bool",
          "name": "refundEnabled",
          "type": "bool"
        },
        {
          "internalType": "address",
          "name": "creator",
          "type": "address"
        },
        {
          "internalType": "string",
          "name": "dbUuid",
          "type": "string"
        },
        {
          "internalType": "bool",
          "name": "paused",
          "type": "bool"
        },
        {
          "internalType": "bool",
          "name": "cancelled",
          "type": "bool"
        },
        {
          "internalType": "uint256",
          "name": "createdAt",
          "type": "uint256"
        }
      ],
      "stateMutability": "view",
      "type": "function"
    },
    {
      "inputs": [],
      "name": "getCampaignCount",
      "outputs": [
        {
          "internalType": "uint256",
          "name": "",
          "type": "uint256"
        }
      ],
      "stateMutability": "view",
      "type": "function"
    },
    {
      "inputs": [
        {
          "internalType": "uint256",
          "name": "_campaignId",
          "type": "uint256"
        },
        {
          "internalType": "address",
          "name": "_donor",
          "type": "address"
        }
      ],
      "name": "getContribution",
      "outputs": [
        {
          "internalType": "uint256",
          "name": "",
          "type": "uint256"
        }
      ],
      "stateMutability": "view",
      "type": "function"
    },
    {
      "inputs": [
        {
          "internalType": "uint256",
          "name": "_campaignId",
          "type": "uint256"
        },
        {
          "internalType": "uint256",
          "name": "_limit",
          "type": "uint256"
        }
      ],
      "name": "getTopDonors",
      "outputs": [
        {
          "internalType": "address[]",
          "name": "donors",
          "type": "address[]"
        },
        {
          "internalType": "uint256[]",
          "name": "amounts",
          "type": "uint256[]"
        }
      ],
      "stateMutability": "view",
      "type": "function"
    },
    {
      "inputs": [
        {
          "internalType": "address",
          "name": "_creator",
          "type": "address"
        }
      ],
      "name": "getUserCampaigns",
      "outputs": [
        {
          "internalType": "uint256[]",
          "name": "",
          "type": "uint256[]"
        }
      ],
      "stateMutability": "view",
      "type": "function"
    },
    {
      "inputs": [],
      "name": "owner",
      "outputs": [
        {
          "internalType": "address",
          "name": "",
          "type": "address"
        }
      ],
      "stateMutability": "view",
      "type": "function"
    },
    {
      "inputs": [
        {
          "internalType": "uint256",
          "name": "_campaignId",
          "type": "uint256"
        }
      ],
      "name": "pauseCampaign",
      "outputs": [],
      "stateMutability": "nonpayable",
      "type": "function"
    },
    {
      "inputs": [],
      "name": "renounceOwnership",
      "outputs": [],
      "stateMutability": "nonpayable",
      "type": "function"
    },
    {
      "inputs": [
        {
          "internalType": "address",
          "name": "newOwner",
          "type": "address"
        }
      ],
      "name": "transferOwnership",
      "outputs": [],
      "stateMutability": "nonpayable",
      "type": "function"
    },
    {
      "inputs": [
        {
          "internalType": "uint256",
          "name": "_campaignId",
          "type": "uint256"
        }
      ],
      "name": "unpauseCampaign",
      "outputs": [],
      "stateMutability": "nonpayable",
      "type": "function"
    },
    {
      "inputs": [
        {
          "internalType": "address",
          "name": "",
          "type": "address"
        },
        {
          "internalType": "uint256",
          "name": "",
          "type": "uint256"
        }
      ],
      "name": "userCampaigns",
      "outputs": [
        {
          "internalType": "uint256",
          "name": "",
          "type": "uint256"
        }
      ],
      "stateMutability": "view",
      "type": "function"
    }
  ],
  "bytecode": "0x6080806040523461007e5733156100685760008054336001600160a01b03198216811783556040519290916001600160a01b0316907f8be0079c531659141344cd1fd0a4f28419497f9722a3daafe3b4186f6b6457e09080a36001805561283b90816100848239f35b631e4fbdf760e01b815260006004820152602490fd5b600080fdfe6080604052600436101561001257600080fd5b60003560e01c8063141961bc14611e7757806319ac74bd14611e1f5780633d891f591461056e57806343a19a6514611d7457806345598b4a14611bb25780635598f8cc14611aa35780635b7baf64146119125780636568a2f21461156b5780636b5ca27d1461130b5780636caa9218146112ed578063715018a614611294578063827039b61461128f5780638aea3dc91461128f5780638c7bc838146112705780638da5cb5b14611247578063993c80001461107d5780639943e3a1146107ec578063a1e5084c14610761578063ab2d05da146106e2578063c8d6f3c7146106c0578063de99347a146105b6578063e081dbf91461056e578063ee1554a31461050a578063f14faf6f14610217578063f25e1e93146101cd5763f2fde38b1461013a57600080fd5b346101c85760203660031901126101c857610153612155565b61015b612263565b6001600160a01b039081169081156101af57600054826bffffffffffffffffffffffff60a01b821617600055167f8be0079c531659141344cd1fd0a4f28419497f9722a3daafe3b4186f6b6457e0600080a3005b604051631e4fbdf760e01b815260006004820152602490fd5b600080fd5b346101c8576101db3661224d565b906000526006602052604060002080548210156101c8576020916101fe91612181565b905460405160039290921b1c6001600160a01b03168152f35b6020806003193601126101c85760043561023460025482106122ed565b61024661024082611f8c565b50612339565b61025460c0820151156123f9565b6101408101516104d05761016081015161048b57608001514210156104465761027b612445565b34156104015761028a81611f8c565b5081600052600383526040600020336000528352604060002054156103b6575b816000526004835260406000203360005283526102cc346040600020546122d3565b9060405160608101908082106001600160401b038311176103a05760059361033c92604052815260028682014281526040830190600082528760005260048952604060002033600052895260406000209351845551600184015551151591019060ff801983541691151516179055565b82600052600384526040600020336000528452604060002061035f3482546122d3565b90550161036d3482546122d3565b90557f0b5b4c52969ff7329ecf7ee536409fda87812b15a8622bc6e8cdeab3aee14a26604051923484523393a360018055005b634e487b7160e01b600052604160045260246000fd5b816000526006835260406000208054600160401b8110156103a0576103e091600182018155612181565b81546001600160a01b0360039290921b91821b19163390911b1790556102aa565b60405162461bcd60e51b815260048101839052601f60248201527f446f6e6174696f6e206d7573742062652067726561746572207468616e2030006044820152606490fd5b60405162461bcd60e51b815260048101839052601860248201527f43616d706169676e20646561646c696e652070617373656400000000000000006044820152606490fd5b60405162461bcd60e51b815260048101849052601b60248201527f43616d706169676e20686173206265656e2063616e63656c6c656400000000006044820152606490fd5b60405162461bcd60e51b815260048101849052601260248201527110d85b5c185a59db881a5cc81c185d5cd95960721b6044820152606490fd5b346101c85760403660031901126101c85761052361216b565b600435600052600460205260406000209060018060a01b03166000526020526060604060002080549060ff600260018301549201541690604051928352602083015215156040820152f35b346101c85760403660031901126101c85761058761216b565b600435600052600360205260406000209060018060a01b03166000526020526020604060002054604051908152f35b346101c85760203660031901126101c8576004356105d2612263565b6105df60025482106122ed565b6105e881611f8c565b50600881019081549060ff821661067b576006015460ff166106365760ff1916600117905533907f0380a3e5443a5d671036b0710bc377d744a40a037c87271f064bce856b8707ea600080a3005b60405162461bcd60e51b815260206004820152601f60248201527f43616e6e6f742070617573652066696e616c697a65642063616d706169676e006044820152606490fd5b60405162461bcd60e51b815260206004820152601760248201527f43616d706169676e20616c7265616479207061757365640000000000000000006044820152606490fd5b346101c85760003660031901126101c8576020604051662386f26fc100008152f35b346101c8576107066106f33661224d565b9061070160025482106122ed565b612549565b604051906040820192604083528051809452606083019360208092019060005b818110610744578587038487015285806107408988612219565b0390f35b82516001600160a01b031687529583019591830191600101610726565b346101c8576020806003193601126101c8576001600160a01b03610783612155565b1660005260058152604060002090604051808383829554938481520190600052836000209260005b858282106107d6575050506107c29250038361204e565b610740604051928284938452830190612219565b85548452600195860195889550930192016107ab565b346101c85760c03660031901126101c8576004356001600160a01b03811681036101c8576024356001600160401b0381116101c85761082f9036906004016121b4565b604480356001600160401b0381116101c85761084f9036906004016121b4565b6084359060a4356001600160401b0381116101c8576108729036906004016121b4565b916001600160a01b0386161561103957606493662386f26fc10000853510611000578115610fbd576108a68651151561228f565b60c8865111610f8957835115610f4e57620151808083029283048103610c36578210610f0b576301e133808211610ec857506108e290426122d3565b90604051906108f082612017565b60018060a01b0387168252856020830152604082015283356060820152816080820152600060a0820152600060c0820152600060e082015233610100820152826101208201526000610140820152600061016082015242610180820152600254600160401b8110156103a05780600161096c9201600255611f8c565b919091610eb257805182546001600160a01b0319166001600160a01b039190911617825560208101518051906001600160401b0382116103a05781906109b56001860154611fdd565b601f8111610e5f575b50602090601f8311600114610ded57600092610de2575b50508160011b916000199060031b1c19161760018301555b60408101518051906001600160401b0382116103a0578190610a126002860154611fdd565b601f8111610d8f575b50602090601f8311600114610d1d57600092610d12575b50508160011b916000199060031b1c19161760028301555b606081015160038301556080810151600483015560a0810151600583015560068201610a8860c08301511515829060ff801983541691151516179055565b60e0820151815461ff00191690151560081b61ff0016178155610100820151815462010000600160b01b03191660109190911b62010000600160b01b03161790556101208101518051906001600160401b0382116103a057610aed6007850154611fdd565b601f8111610ccb575b50602090601f8311600114610c575791806009949261018094600092610c4c575b50508160011b916000199060031b1c19161760078501555b610b6f60088501610b536101408401511515829060ff801983541691151516179055565b610160830151815461ff00191690151560081b61ff0016179055565b01519101556002546000198082019590918611610c36573360005260056020526040600020908154600160401b8110156103a05760209888957f062ba947acd0d1c1e4b6d9645eb93a9456b0a9c54fd2b3afba5321ab45429acf95610be084610c07976001610c2b97018155612181565b819291549060031b918a831b921b1916179055604051948594608086526080860190612115565b9835848c0152604084015282880360608401526001600160a01b0316963396612115565b0390a4604051908152f35b634e487b7160e01b600052601160045260246000fd5b015190508b80610b17565b90601f198316916007860160005260206000209260005b818110610cb35750926001928592610180966009989610610c9a575b505050811b016007850155610b2f565b015160001960f88460031b161c191690558b8080610c8a565b92936020600181928786015181550195019301610c6e565b600785016000526020600020601f840160051c810160208510610d0b575b601f830160051c82018110610cff575050610af6565b60008155600101610ce9565b5080610ce9565b015190508980610a32565b9250600285016000526020600020906000935b601f1984168510610d74576001945083601f19811610610d5b575b505050811b016002830155610a4a565b015160001960f88460031b161c19169055898080610d4b565b81810151835560209485019460019093019290910190610d30565b909150600285016000526020600020601f840160051c810160208510610ddb575b90849392915b601f830160051c82018110610dcc575050610a1b565b60008155859450600101610db6565b5080610db0565b0151905089806109d5565b9250600185016000526020600020906000935b601f1984168510610e44576001945083601f19811610610e2b575b505050811b0160018301556109ed565b015160001960f88460031b161c19169055898080610e1b565b81810151835560209485019460019093019290910190610e00565b909150600185016000526020600020601f840160051c810160208510610eab575b90849392915b601f830160051c82018110610e9c5750506109be565b60008155859450600101610e86565b5080610e80565b634e487b7160e01b600052600060045260246000fd5b84907f43616d706169676e206475726174696f6e20746f6f206c6f6e670000000000006040519162461bcd60e51b835260206004840152601a6024840152820152fd5b84907f43616d706169676e206475726174696f6e20746f6f2073686f727400000000006040519162461bcd60e51b835260206004840152601b6024840152820152fd5b849074125b9d985b1a590819185d1858985cd94815555251605a1b6040519162461bcd60e51b83526020600484015260156024840152820152fd5b84906d5469746c6520746f6f206c6f6e6760901b6040519162461bcd60e51b835260206004840152600e6024840152820152fd5b84907f4475726174696f6e206d75737420626520706f736974697665000000000000006040519162461bcd60e51b83526020600484015260196024840152820152fd5b849072476f616c20616d6f756e7420746f6f206c6f7760681b6040519162461bcd60e51b83526020600484015260136024840152820152fd5b60405162461bcd60e51b815260206004820152601b60248201527f496e76616c69642062656e65666963696172792061646472657373000000000081860152606490fd5b346101c8576020806003193601126101c85760043561109f60025482106122ed565b6110a7612445565b6110b081611f8c565b5091816000526004815260406000203360005281526040600020926110dc60ff600683015416156123f9565b835493841561120e57600281019081549060ff82166111c95760010154620151808101809111610c3657421161118d579160059160017f74a3feb743316d064e1428663f9180d4b8433272a67b548e399a722fd9f25cef959460ff19161790558460005260038352604060002033600052835260006040812055016111628582546122e0565b905561117e600080808088335af1611178612468565b50612498565b6040519384523393a360018055005b60405162461bcd60e51b815260048101859052601460248201527311dc9858d9481c195c9a5bd908195e1c1a5c995960621b6044820152606490fd5b60405162461bcd60e51b815260048101869052601960248201527f446f6e6174696f6e20616c726561647920726566756e646564000000000000006044820152606490fd5b60405162461bcd60e51b8152600481018490526011602482015270139bc8191bdb985d1a5bdb88199bdd5b99607a1b6044820152606490fd5b346101c85760003660031901126101c8576000546040516001600160a01b039091168152602090f35b346101c85760003660031901126101c85760206040516301e133808152f35b6121fb565b346101c85760003660031901126101c8576112ad612263565b600080546001600160a01b0319811682556001600160a01b03167f8be0079c531659141344cd1fd0a4f28419497f9722a3daafe3b4186f6b6457e08280a3005b346101c85760003660031901126101c8576020600254604051908152f35b346101c85760203660031901126101c85760043561132c60025482106122ed565b611334612445565b61133d81611f8c565b506006810180549161135260ff8416156123f9565b6001600160a01b039033601085901c831614801561155e575b1561150e5760058101928354946003830154861080159660048501544210801590611507575b156114ab5760ff198316600117845587806114a2575b1561144a57505050506000808093819354168554905af16113c6612468565b5015611405577f58d612671e6b4848a067857f6d94e86ccf9b5e3c3938e0367f7b3e4bbacf2652916040915b549082519182526020820152a260018055005b60405162461bcd60e51b815260206004820152601e60248201527f5472616e7366657220746f2062656e6566696369617279206661696c656400006044820152606490fd5b7f58d612671e6b4848a067857f6d94e86ccf9b5e3c3938e0367f7b3e4bbacf2652979550604096945081611498575b50611486575b50506113f2565b61ffff1916610101179055858061147f565b9050151588611479565b508015156113a7565b60405162461bcd60e51b815260206004820152602e60248201527f43616d706169676e20646561646c696e65206e6f74207265616368656420616e60448201526d190819dbd85b081b9bdd081b595d60921b6064820152608490fd5b5087611391565b60405162461bcd60e51b815260206004820152602260248201527f4f6e6c792063726561746f72206f72206f776e65722063616e2066696e616c696044820152617a6560f01b6064820152608490fd5b508160005416331461136b565b346101c85760603660031901126101c8576004356001600160401b036024358181116101c85761159f9036906004016121b4565b906044358181116101c8576115b89036906004016121b4565b906115c660025485106122ed565b6115cf84611f8c565b506006810154909190601081901c6001600160a01b031633036118cd5760ff16611888576115ff8451151561228f565b6001808301928551938385116103a0576116198154611fdd565b94601f95868111611840575b5060208682116001146117d957908060029493926000916117ce575b50600019600383901b1c191690851b1790555b019284519283116103a0576116698454611fdd565b818111611786575b5060209083116001146116f8579282806116e8946116da97947fb5ee6f58aef80bee66f974df80f0c9c1e3878126cb7e52fcfe243cb07fefdcbd99976000936116ed575b501b916000199060031b1c19161790555b604051938493604085526040850190612115565b908382036020850152612115565b0390a2005b86015192508b6116b5565b601f9291921982169084600052806000209160005b8181106117705750927fb5ee6f58aef80bee66f974df80f0c9c1e3878126cb7e52fcfe243cb07fefdcbd9795926116e89592826116da999610611757575b5050811b0190556116c6565b85015160001960f88460031b161c19169055898061174b565b878301518455928501926020928301920161170d565b8460005260206000208280860160051c820192602087106117c5575b0160051c019083905b8281106117b9575050611671565b600081550183906117ab565b925081926117a2565b90508901518b611641565b9291908490601f19811683600052856000209060005b8c828210611829575050958260029710611810575b5050811b019055611654565b8b015160001960f88460031b161c191690558b80611804565b8801518355602097880197899590930192016117ef565b8260005260206000208780840160051c8201926020851061187f575b0160051c019085905b828110611873575050611625565b60008155018590611865565b9250819261185c565b60405162461bcd60e51b815260206004820152601e60248201527f43616e6e6f7420656469742066696e616c697a65642063616d706169676e00006044820152606490fd5b60405162461bcd60e51b815260206004820152601e60248201527f4f6e6c792063616d706169676e2063726561746f722063616e206564697400006044820152606490fd5b346101c8576020806003193601126101c85760043561193460025482106122ed565b61193c612445565b600661194782611f8c565b50015460ff811615611a655760081c60ff1615611a1257806000526003825260406000203360005282526040600020549182156119ce577f7a482fdeb6bc9a1376f597068a214a7a39472bb2eff1b8cad21ba04f49ddca1b90826000526003815260406000203360005281526000604081205561117e600080808088335af1611178612468565b6064906040519062461bcd60e51b82526004820152601960248201527f4e6f20636f6e747269627574696f6e20746f20726566756e64000000000000006044820152fd5b60405162461bcd60e51b815260048101839052602560248201527f526566756e6473206e6f7420656e61626c656420666f7220746869732063616d6044820152643830b4b3b760d91b6064820152608490fd5b60405162461bcd60e51b815260048101849052601660248201527510d85b5c185a59db881b9bdd08199a5b985b1a5e995960521b6044820152606490fd5b346101c85760203660031901126101c8576004356002548110611ac5906122ed565b611ace90611f8c565b50611ad890612339565b600160a01b60019003808251169060208301519260408101519060608101519260808201519360a08301519160c084015115159060e08501511515906101008601511691610120860151946101408701511515986101608801511515976101800151986040519c8d9c8d528c6101a06020819201528d01611b5891612115565b8c810360408e0152611b6991612115565b9560608c015260808b015260a08a015260c089015260e0880152610100870152858103610120870152611b9b91612115565b926101408501526101608401526101808301520390f35b346101c8576020806003193601126101c857600435611bd460025482106122ed565b611bf7611be082611f8c565b50610100916001600160a01b039182918491612339565b0151163314908115611d66575b5015611d0b57611c12612445565b611c1b82611f8c565b50906006820190815460ff8116611cc857600884019081549160ff8360081c16611c835761ff001992831684179055161790556005015460405190815233927f0f7f68c3235929bc579f89ca39893f34cca009140caeef3c2803dac725684f1c91a360018055005b60405162461bcd60e51b815260048101899052601a60248201527f43616d706169676e20616c72656164792063616e63656c6c65640000000000006044820152606490fd5b6064866040519062461bcd60e51b825280600483015260248201527f43616e6e6f742063616e63656c2066696e616c697a65642063616d706169676e6044820152fd5b60405162461bcd60e51b815260048101849052602d60248201527f4f6e6c792063726561746f72206f72206f776e65722063616e20706572666f7260448201526c36903a3434b99030b1ba34b7b760991b6064820152608490fd5b905060005416331484611c04565b346101c85760203660031901126101c857600435611d90612263565b611d9d60025482106122ed565b6008611da882611f8c565b5001805460ff811615611de45760ff1916905533907f0b4a66349bf9f3b39405b36ade37f1bd0d11fb73b9e7a8af888ce296f1032bb0600080a3005b60405162461bcd60e51b815260206004820152601360248201527210d85b5c185a59db881b9bdd081c185d5cd959606a1b6044820152606490fd5b346101c85760403660031901126101c857611e38612155565b6001600160a01b03166000908152600560205260409020805460243591908210156101c857602091611e6991612181565b90546040519160031b1c8152f35b346101c85760203660031901126101c8576004356002548110156101c857611e9e90611f8c565b5080546001600160a01b039190821690611eba6001820161206f565b9260ff611f6a611ecc6002850161206f565b926003850154906004860154906005870154600688015490611ef060078a0161206f565b93611f2b600960088c01549b015499611f1d6040519e8f9e8f9081526101a0908160208201520190612115565b8d810360408f015290612115565b9560608c015260808b015260a08a0152858116151560c08a0152858160081c16151560e08a015260101c16610100880152868203610120880152612115565b92818116151561014086015260081c1615156101608401526101808301520390f35b600254811015611fc757600a906002600052027f405787fa12a823e0f2b7631cc41b3ba8828b3321ca811111fa75cd3aa3bb5ace0190600090565b634e487b7160e01b600052603260045260246000fd5b90600182811c9216801561200d575b6020831014611ff757565b634e487b7160e01b600052602260045260246000fd5b91607f1691611fec565b6101a081019081106001600160401b038211176103a057604052565b602081019081106001600160401b038211176103a057604052565b90601f801991011681019081106001600160401b038211176103a057604052565b906040519182600082549261208384611fdd565b9081845260019485811690816000146120f257506001146120af575b50506120ad9250038361204e565b565b9093915060005260209081600020936000915b8183106120da5750506120ad9350820101388061209f565b855488840185015294850194879450918301916120c2565b9150506120ad94506020925060ff191682840152151560051b820101388061209f565b919082519283825260005b848110612141575050826000602080949584010152601f8019910116010190565b602081830181015184830182015201612120565b600435906001600160a01b03821682036101c857565b602435906001600160a01b03821682036101c857565b8054821015611fc75760005260206000200190600090565b6001600160401b0381116103a057601f01601f191660200190565b81601f820112156101c8578035906121cb82612199565b926121d9604051948561204e565b828452602083830101116101c857816000926020809301838601378301015290565b346101c85760003660031901126101c8576020604051620151808152f35b90815180825260208080930193019160005b828110612239575050505090565b83518552938101939281019260010161222b565b60409060031901126101c8576004359060243590565b6000546001600160a01b0316330361227757565b60405163118cdaa760e01b8152336004820152602490fd5b1561229657565b60405162461bcd60e51b81526020600482015260156024820152745469746c652063616e6e6f7420626520656d70747960581b6044820152606490fd5b91908201809211610c3657565b91908203918211610c3657565b156122f457565b60405162461bcd60e51b815260206004820152601760248201527f43616d706169676e20646f6573206e6f742065786973740000000000000000006044820152606490fd5b9060405161234681612017565b6101806009829460018060a01b038082541685526123666001830161206f565b60208601526123776002830161206f565b60408601526003820154606086015260048201546080860152600582015460a0860152600682015460ff8116151560c087015260ff8160081c16151560e087015260101c166101008501526123ce6007820161206f565b61012085015260ff6008820154818116151561014087015260081c1615156101608501520154910152565b1561240057565b60405162461bcd60e51b815260206004820152601a60248201527f43616d706169676e20616c72656164792066696e616c697a65640000000000006044820152606490fd5b600260015414612456576002600155565b604051633ee5aeb560e01b8152600490fd5b3d15612493573d9061247982612199565b91612487604051938461204e565b82523d6000602084013e565b606090565b1561249f57565b60405162461bcd60e51b81526020600482015260166024820152751499599d5b99081d1c985b9cd9995c8819985a5b195960521b6044820152606490fd5b6001600160401b0381116103a05760051b60200190565b906124fe826124dd565b61250b604051918261204e565b828152809261251c601f19916124dd565b0190602036910137565b6000198114610c365760010190565b8051821015611fc75760209160051b010190565b6000928184526020906006825260408086209381518086868298549384815201908a52868a20928a5b888282106127e6575050506125899250038661204e565b84519586156127bb57808710156127b5575085915b6125a7876124f4565b956125b1886124f4565b95895b8981106127635750505050508591600019918287019187831191825b61274f57838610156126e057895b6125e8878b6122e0565b8681019081116126cc578110156126b2576126038189612535565b51600182019081831161269e579061262d9291612620828c612535565b5111612632575b50612526565b6125de565b61263c828b612535565b51612647828c612535565b51612652848d612535565b5261265d828c612535565b526001600160a01b0390612697908c612690858561267b8285612535565b5116956126888585612535565b511692612535565b528c612535565b5238612627565b634e487b7160e01b8d52601160045260248dfd5b5091946126c190939193612526565b9491829391936125d0565b634e487b7160e01b8c52601160045260248cfd5b95945096505050506126f1826124f4565b926126fb836124f4565b955b83811061270c57505050509190565b61274a906001600160a01b036127228285612535565b511661272e8288612535565b526127398185612535565b51612744828a612535565b52612526565b6126fd565b634e487b7160e01b8a52601160045260248afd5b6127b0906001600160a01b038061277a8387612535565b5116612786838d612535565b52868d5260038452858d209061279c8387612535565b51168d528352848c2054612744828b612535565b6125b4565b9161259e565b505092509250508051906127ce82612033565b83825251926127dc84612033565b8084523681379190565b85546001600160a01b031684526001958601958b95509301920161257256fea26469706673582212200db7934bffeeb7ef4d1a67373f2be451355765b75a40da722ccb5c987486a51d64736f6c63430008140033",
  "linkReferences": {},
  "deployedLinkReferences": {}
}