{
  "_format": "hh-sol-artifact-1",
  "contractName": "CharityCampaignFactory",
  "sourceName": "contracts/CharityCampaignFactory.sol",
  "abi": [
    {
      "inputs": [],
      "stateMutability": "nonpayable",
      "type": "constructor"
    },
    {
      "inputs": [
        {
          "internalType": "address",
          "name": "owner",
          "type": "address"
        }
      ],
      "name": "OwnableInvalidOwner",
      "type": "error"
    },
    {
      "inputs": [
        {
          "internalType": "address",
          "name": "account",
          "type": "address"
        }
      ],
      "name": "OwnableUnauthorizedAccount",
      "type": "error"
    },
    {
      "inputs": [],
      "name": "ReentrancyGuardReentrantCall",
      "type": "error"
    },
    {
      "anonymous": false,
      "inputs": [
        {
          "indexed": true,
          "internalType": "uint256",
          "name": "campaignId",
          "type": "uint256"
        },
        {
          "indexed": true,
          "internalType": "address",
          "name": "creator",
          "type": "address"
        },
        {
          "indexed": true,
          "internalType": "address",
          "name": "beneficiary",
          "type": "address"
        },
        {
          "indexed": false,
          "internalType": "string",
          "name": "title",
          "type": "string"
        },
        {
          "indexed": false,
          "internalType": "uint256",
          "name": "goalAmount",
          "type": "uint256"
        },
        {
          "indexed": false,
          "internalType": "uint256",
          "name": "deadline",
          "type": "uint256"
        }
      ],
      "name": "CampaignCreated",
      "type": "event"
    },
    {
      "anonymous": false,
      "inputs": [
        {
          "indexed": true,
          "internalType": "uint256",
          "name": "campaignId",
          "type": "uint256"
        },
        {
          "indexed": false,
          "internalType": "string",
          "name": "newTitle",
          "type": "string"
        },
        {
          "indexed": false,
          "internalType": "string",
          "name": "newDescription",
          "type": "string"
        }
      ],
      "name": "CampaignEdited",
      "type": "event"
    },
    {
      "anonymous": false,
      "inputs": [
        {
          "indexed": true,
          "internalType": "uint256",
          "name": "campaignId",
          "type": "uint256"
        },
        {
          "indexed": false,
          "internalType": "uint256",
          "name": "totalRaised",
          "type": "uint256"
        },
        {
          "indexed": false,
          "internalType": "bool",
          "name": "goalReached",
          "type": "bool"
        }
      ],
      "name": "CampaignFinalized",
      "type": "event"
    },
    {
      "anonymous": false,
      "inputs": [
        {
          "indexed": true,
          "internalType": "uint256",
          "name": "campaignId",
          "type": "uint256"
        },
        {
          "indexed": true,
          "internalType": "address",
          "name": "donor",
          "type": "address"
        },
        {
          "indexed": false,
          "internalType": "uint256",
          "name": "amount",
          "type": "uint256"
        }
      ],
      "name": "DonationReceived",
      "type": "event"
    },
    {
      "anonymous": false,
      "inputs": [
        {
          "indexed": true,
          "internalType": "address",
          "name": "previousOwner",
          "type": "address"
        },
        {
          "indexed": true,
          "internalType": "address",
          "name": "newOwner",
          "type": "address"
        }
      ],
      "name": "OwnershipTransferred",
      "type": "event"
    },
    {
      "anonymous": false,
      "inputs": [
        {
          "indexed": true,
          "internalType": "uint256",
          "name": "campaignId",
          "type": "uint256"
        },
        {
          "indexed": true,
          "internalType": "address",
          "name": "donor",
          "type": "address"
        },
        {
          "indexed": false,
          "internalType": "uint256",
          "name": "amount",
          "type": "uint256"
        }
      ],
      "name": "RefundIssued",
      "type": "event"
    },
    {
      "inputs": [
        {
          "internalType": "uint256",
          "name": "",
          "type": "uint256"
        },
        {
          "internalType": "uint256",
          "name": "",
          "type": "uint256"
        }
      ],
      "name": "campaignDonors",
      "outputs": [
        {
          "internalType": "address",
          "name": "",
          "type": "address"
        }
      ],
      "stateMutability": "view",
      "type": "function"
    },
    {
      "inputs": [
        {
          "internalType": "uint256",
          "name": "",
          "type": "uint256"
        }
      ],
      "name": "campaigns",
      "outputs": [
        {
          "internalType": "address payable",
          "name": "beneficiary",
          "type": "address"
        },
        {
          "internalType": "string",
          "name": "title",
          "type": "string"
        },
        {
          "internalType": "string",
          "name": "description",
          "type": "string"
        },
        {
          "internalType": "uint256",
          "name": "goalAmount",
          "type": "uint256"
        },
        {
          "internalType": "uint256",
          "name": "deadline",
          "type": "uint256"
        },
        {
          "internalType": "uint256",
          "name": "totalRaised",
          "type": "uint256"
        },
        {
          "internalType": "bool",
          "name": "finalized",
          "type": "bool"
        },
        {
          "internalType": "bool",
          "name": "refundEnabled",
          "type": "bool"
        },
        {
          "internalType": "address",
          "name": "creator",
          "type": "address"
        }
      ],
      "stateMutability": "view",
      "type": "function"
    },
    {
      "inputs": [
        {
          "internalType": "uint256",
          "name": "_campaignId",
          "type": "uint256"
        }
      ],
      "name": "claimRefund",
      "outputs": [],
      "stateMutability": "nonpayable",
      "type": "function"
    },
    {
      "inputs": [
        {
          "internalType": "uint256",
          "name": "",
          "type": "uint256"
        },
        {
          "internalType": "address",
          "name": "",
          "type": "address"
        }
      ],
      "name": "contributions",
      "outputs": [
        {
          "internalType": "uint256",
          "name": "",
          "type": "uint256"
        }
      ],
      "stateMutability": "view",
      "type": "function"
    },
    {
      "inputs": [
        {
          "internalType": "address payable",
          "name": "_beneficiary",
          "type": "address"
        },
        {
          "internalType": "string",
          "name": "_title",
          "type": "string"
        },
        {
          "internalType": "string",
          "name": "_description",
          "type": "string"
        },
        {
          "internalType": "uint256",
          "name": "_goalAmount",
          "type": "uint256"
        },
        {
          "internalType": "uint256",
          "name": "_durationDays",
          "type": "uint256"
        }
      ],
      "name": "createCampaign",
      "outputs": [
        {
          "internalType": "uint256",
          "name": "",
          "type": "uint256"
        }
      ],
      "stateMutability": "nonpayable",
      "type": "function"
    },
    {
      "inputs": [
        {
          "internalType": "uint256",
          "name": "_campaignId",
          "type": "uint256"
        }
      ],
      "name": "donate",
      "outputs": [],
      "stateMutability": "payable",
      "type": "function"
    },
    {
      "inputs": [
        {
          "internalType": "uint256",
          "name": "_campaignId",
          "type": "uint256"
        },
        {
          "internalType": "string",
          "name": "_newTitle",
          "type": "string"
        },
        {
          "internalType": "string",
          "name": "_newDescription",
          "type": "string"
        }
      ],
      "name": "editCampaign",
      "outputs": [],
      "stateMutability": "nonpayable",
      "type": "function"
    },
    {
      "inputs": [
        {
          "internalType": "uint256",
          "name": "_campaignId",
          "type": "uint256"
        }
      ],
      "name": "finalizeCampaign",
      "outputs": [],
      "stateMutability": "nonpayable",
      "type": "function"
    },
    {
      "inputs": [
        {
          "internalType": "uint256",
          "name": "_campaignId",
          "type": "uint256"
        }
      ],
      "name": "getCampaign",
      "outputs": [
        {
          "internalType": "address",
          "name": "beneficiary",
          "type": "address"
        },
        {
          "internalType": "string",
          "name": "title",
          "type": "string"
        },
        {
          "internalType": "string",
          "name": "description",
          "type": "string"
        },
        {
          "internalType": "uint256",
          "name": "goalAmount",
          "type": "uint256"
        },
        {
          "internalType": "uint256",
          "name": "deadline",
          "type": "uint256"
        },
        {
          "internalType": "uint256",
          "name": "totalRaised",
          "type": "uint256"
        },
        {
          "internalType": "bool",
          "name": "finalized",
          "type": "bool"
        },
        {
          "internalType": "bool",
          "name": "refundEnabled",
          "type": "bool"
        },
        {
          "internalType": "address",
          "name": "creator",
          "type": "address"
        }
      ],
      "stateMutability": "view",
      "type": "function"
    },
    {
      "inputs": [],
      "name": "getCampaignCount",
      "outputs": [
        {
          "internalType": "uint256",
          "name": "",
          "type": "uint256"
        }
      ],
      "stateMutability": "view",
      "type": "function"
    },
    {
      "inputs": [
        {
          "internalType": "uint256",
          "name": "_campaignId",
          "type": "uint256"
        },
        {
          "internalType": "address",
          "name": "_donor",
          "type": "address"
        }
      ],
      "name": "getContribution",
      "outputs": [
        {
          "internalType": "uint256",
          "name": "",
          "type": "uint256"
        }
      ],
      "stateMutability": "view",
      "type": "function"
    },
    {
      "inputs": [
        {
          "internalType": "uint256",
          "name": "_campaignId",
          "type": "uint256"
        },
        {
          "internalType": "uint256",
          "name": "_limit",
          "type": "uint256"
        }
      ],
      "name": "getTopDonors",
      "outputs": [
        {
          "internalType": "address[]",
          "name": "donors",
          "type": "address[]"
        },
        {
          "internalType": "uint256[]",
          "name": "amounts",
          "type": "uint256[]"
        }
      ],
      "stateMutability": "view",
      "type": "function"
    },
    {
      "inputs": [
        {
          "internalType": "address",
          "name": "_creator",
          "type": "address"
        }
      ],
      "name": "getUserCampaigns",
      "outputs": [
        {
          "internalType": "uint256[]",
          "name": "",
          "type": "uint256[]"
        }
      ],
      "stateMutability": "view",
      "type": "function"
    },
    {
      "inputs": [],
      "name": "owner",
      "outputs": [
        {
          "internalType": "address",
          "name": "",
          "type": "address"
        }
      ],
      "stateMutability": "view",
      "type": "function"
    },
    {
      "inputs": [],
      "name": "renounceOwnership",
      "outputs": [],
      "stateMutability": "nonpayable",
      "type": "function"
    },
    {
      "inputs": [
        {
          "internalType": "address",
          "name": "newOwner",
          "type": "address"
        }
      ],
      "name": "transferOwnership",
      "outputs": [],
      "stateMutability": "nonpayable",
      "type": "function"
    },
    {
      "inputs": [
        {
          "internalType": "address",
          "name": "",
          "type": "address"
        },
        {
          "internalType": "uint256",
          "name": "",
          "type": "uint256"
        }
      ],
      "name": "userCampaigns",
      "outputs": [
        {
          "internalType": "uint256",
          "name": "",
          "type": "uint256"
        }
      ],
      "stateMutability": "view",
      "type": "function"
    }
  ],
  "bytecode": "0x608060405234801561001057600080fd5b50338061003757604051631e4fbdf760e01b81526000600482015260240160405180910390fd5b6100408161004a565b506001805561009a565b600080546001600160a01b038381166001600160a01b0319831681178455604051919092169283917f8be0079c531659141344cd1fd0a4f28419497f9722a3daafe3b4186f6b6457e09190a35050565b612342806100a96000396000f3fe6080604052600436106100fe5760003560e01c80636caa921811610095578063ab2d05da11610064578063ab2d05da146102ce578063e081dbf9146102fc578063f14faf6f1461031c578063f25e1e931461032f578063f2fde38b1461034f57600080fd5b80636caa921814610245578063715018a61461025a5780638da5cb5b1461026f578063a1e5084c146102a157600080fd5b80635598f8cc116100d15780635598f8cc146101c35780635b7baf64146101e35780636568a2f2146102055780636b5ca27d1461022557600080fd5b8063075843c314610103578063141961bc1461013657806319ac74bd1461016b5780633d891f591461018b575b600080fd5b34801561010f57600080fd5b5061012361011e366004611d9f565b61036f565b6040519081526020015b60405180910390f35b34801561014257600080fd5b50610156610151366004611e27565b6106c6565b60405161012d99989796959493929190611e86565b34801561017757600080fd5b50610123610186366004611efa565b61084d565b34801561019757600080fd5b506101236101a6366004611f26565b600360209081526000928352604080842090915290825290205481565b3480156101cf57600080fd5b506101566101de366004611e27565b61087e565b3480156101ef57600080fd5b506102036101fe366004611e27565b610aef565b005b34801561021157600080fd5b50610203610220366004611f56565b610d4b565b34801561023157600080fd5b50610203610240366004611e27565b610f08565b34801561025157600080fd5b50600254610123565b34801561026657600080fd5b506102036111fb565b34801561027b57600080fd5b506000546001600160a01b03165b6040516001600160a01b03909116815260200161012d565b3480156102ad57600080fd5b506102c16102bc366004611fc3565b61120f565b60405161012d9190612022565b3480156102da57600080fd5b506102ee6102e9366004612035565b61127b565b60405161012d929190612057565b34801561030857600080fd5b50610123610317366004611f26565b6117c1565b61020361032a366004611e27565b6117eb565b34801561033b57600080fd5b5061028961034a366004612035565b611bca565b34801561035b57600080fd5b5061020361036a366004611fc3565b611c02565b60006001600160a01b0386166103cc5760405162461bcd60e51b815260206004820152601b60248201527f496e76616c69642062656e65666963696172792061646472657373000000000060448201526064015b60405180910390fd5b600083116104275760405162461bcd60e51b815260206004820152602260248201527f476f616c20616d6f756e74206d7573742062652067726561746572207468616e604482015261020360f41b60648201526084016103c3565b600082118015610439575061016d8211155b6104785760405162461bcd60e51b815260206004820152601060248201526f24b73b30b634b210323ab930ba34b7b760811b60448201526064016103c3565b60008551116104c15760405162461bcd60e51b81526020600482015260156024820152745469746c652063616e6e6f7420626520656d70747960581b60448201526064016103c3565b60006104d083620151806120cd565b6104da90426120e4565b60408051610120810182526001600160a01b038a81168252602082018a81529282018990526060820188905260808201849052600060a0830181905260c0830181905260e083018190523361010084015260028054600181018255915282517f405787fa12a823e0f2b7631cc41b3ba8828b3321ca811111fa75cd3aa3bb5ace600790920291820180546001600160a01b031916919093161782559251939450909283927f405787fa12a823e0f2b7631cc41b3ba8828b3321ca811111fa75cd3aa3bb5acf01906105ab9082612180565b50604082015160028201906105c09082612180565b50606082015160038201556080820151600482015560a0820151600582015560c08201516006909101805460e08401516101009485015161ffff1990921693151561ff001916939093179215159093029190911762010000600160b01b031916620100006001600160a01b039093169290920291909117905560025460009061064b90600190612240565b33600081815260046020908152604080832080546001810182559084529190922001839055519192506001600160a01b038b169183907fab59b1925b9e9f5979fb63f46375f2f218e34df984a2b8725b5539447952b8e0906106b2908d908c908a90612253565b60405180910390a498975050505050505050565b600281815481106106d657600080fd5b6000918252602090912060079091020180546001820180546001600160a01b03909216935090610705906120f7565b80601f0160208091040260200160405190810160405280929190818152602001828054610731906120f7565b801561077e5780601f106107535761010080835404028352916020019161077e565b820191906000526020600020905b81548152906001019060200180831161076157829003601f168201915b505050505090806002018054610793906120f7565b80601f01602080910402602001604051908101604052809291908181526020018280546107bf906120f7565b801561080c5780601f106107e15761010080835404028352916020019161080c565b820191906000526020600020905b8154815290600101906020018083116107ef57829003601f168201915b505050506003830154600484015460058501546006909501549394919390925060ff808216916101008104909116906201000090046001600160a01b031689565b6004602052816000526040600020818154811061086957600080fd5b90600052602060002001600091509150505481565b60006060806000806000806000808960028054905081106108b15760405162461bcd60e51b81526004016103c390612278565b600060028c815481106108c6576108c66122af565b600091825260209182902060408051610120810190915260079092020180546001600160a01b031682526001810180549293919291840191610907906120f7565b80601f0160208091040260200160405190810160405280929190818152602001828054610933906120f7565b80156109805780601f1061095557610100808354040283529160200191610980565b820191906000526020600020905b81548152906001019060200180831161096357829003601f168201915b50505050508152602001600282018054610999906120f7565b80601f01602080910402602001604051908101604052809291908181526020018280546109c5906120f7565b8015610a125780601f106109e757610100808354040283529160200191610a12565b820191906000526020600020905b8154815290600101906020018083116109f557829003601f168201915b505050505081526020016003820154815260200160048201548152602001600582015481526020016006820160009054906101000a900460ff161515151581526020016006820160019054906101000a900460ff161515151581526020016006820160029054906101000a90046001600160a01b03166001600160a01b03166001600160a01b0316815250509050806000015181602001518260400151836060015184608001518560a001518660c001518760e001518861010001519a509a509a509a509a509a509a509a509a5050509193959799909294969850565b60025481908110610b125760405162461bcd60e51b81526004016103c390612278565b610b1a611c40565b600060028381548110610b2f57610b2f6122af565b60009182526020909120600790910201600681015490915060ff16610b8f5760405162461bcd60e51b815260206004820152601660248201527510d85b5c185a59db881b9bdd08199a5b985b1a5e995960521b60448201526064016103c3565b6006810154610100900460ff16610bf65760405162461bcd60e51b815260206004820152602560248201527f526566756e6473206e6f7420656e61626c656420666f7220746869732063616d6044820152643830b4b3b760d91b60648201526084016103c3565b600083815260036020908152604080832033845290915290205480610c5d5760405162461bcd60e51b815260206004820152601960248201527f4e6f20636f6e747269627574696f6e20746f20726566756e640000000000000060448201526064016103c3565b60008481526003602090815260408083203380855292528083208390555183908381818185875af1925050503d8060008114610cb5576040519150601f19603f3d011682016040523d82523d6000602084013e610cba565b606091505b5050905080610d045760405162461bcd60e51b81526020600482015260166024820152751499599d5b99081d1c985b9cd9995c8819985a5b195960521b60448201526064016103c3565b604051828152339086907f7a482fdeb6bc9a1376f597068a214a7a39472bb2eff1b8cad21ba04f49ddca1b9060200160405180910390a3505050610d4760018055565b5050565b60025483908110610d6e5760405162461bcd60e51b81526004016103c390612278565b600060028581548110610d8357610d836122af565b906000526020600020906007020190508060060160029054906101000a90046001600160a01b03166001600160a01b0316336001600160a01b031614610e0b5760405162461bcd60e51b815260206004820152601e60248201527f4f6e6c792063616d706169676e2063726561746f722063616e2065646974000060448201526064016103c3565b600681015460ff1615610e605760405162461bcd60e51b815260206004820152601e60248201527f43616e6e6f7420656469742066696e616c697a65642063616d706169676e000060448201526064016103c3565b6000845111610ea95760405162461bcd60e51b81526020600482015260156024820152745469746c652063616e6e6f7420626520656d70747960581b60448201526064016103c3565b60018101610eb78582612180565b5060028101610ec68482612180565b50847fb5ee6f58aef80bee66f974df80f0c9c1e3878126cb7e52fcfe243cb07fefdcbd8585604051610ef99291906122c5565b60405180910390a25050505050565b60025481908110610f2b5760405162461bcd60e51b81526004016103c390612278565b610f33611c40565b600060028381548110610f4857610f486122af565b60009182526020909120600790910201600681015490915060ff1615610fb05760405162461bcd60e51b815260206004820152601a60248201527f43616d706169676e20616c72656164792066696e616c697a656400000000000060448201526064016103c3565b60068101546201000090046001600160a01b0316331480610fdb57506000546001600160a01b031633145b6110325760405162461bcd60e51b815260206004820152602260248201527f4f6e6c792063726561746f72206f72206f776e65722063616e2066696e616c696044820152617a6560f01b60648201526084016103c3565b600081600301548260050154101590508160040154421015806110525750805b6110b55760405162461bcd60e51b815260206004820152602e60248201527f43616d706169676e20646561646c696e65206e6f74207265616368656420616e60448201526d190819dbd85b081b9bdd081b595d60921b60648201526084016103c3565b60068201805460ff191660011790558080156110d5575060008260050154115b1561118657815460058301546040516000926001600160a01b031691908381818185875af1925050503d806000811461112a576040519150601f19603f3d011682016040523d82523d6000602084013e61112f565b606091505b50509050806111805760405162461bcd60e51b815260206004820152601e60248201527f5472616e7366657220746f2062656e6566696369617279206661696c6564000060448201526064016103c3565b506111af565b80158015611198575060008260050154115b156111af5760068201805461ff0019166101001790555b600582015460408051918252821515602083015285917f58d612671e6b4848a067857f6d94e86ccf9b5e3c3938e0367f7b3e4bbacf2652910160405180910390a25050610d4760018055565b611203611c6a565b61120d6000611c97565b565b6001600160a01b03811660009081526004602090815260409182902080548351818402810184019094528084526060939283018282801561126f57602002820191906000526020600020905b81548152602001906001019080831161125b575b50505050509050919050565b6060808360028054905081106112a35760405162461bcd60e51b81526004016103c390612278565b60008581526005602090815260408083208054825181850281018501909352808352919290919083018282801561130357602002820191906000526020600020905b81546001600160a01b031681526001909101906020018083116112e5575b505050505090506000815190508060000361133957505060408051600080825260208201908152818301909252935091506117b9565b6000868210611348578661134a565b815b905060008267ffffffffffffffff81111561136757611367611cfc565b604051908082528060200260200182016040528015611390578160200160208202803683370190505b50905060008367ffffffffffffffff8111156113ae576113ae611cfc565b6040519080825280602002602001820160405280156113d7578160200160208202803683370190505b50905060005b848110156114b0578581815181106113f7576113f76122af565b6020026020010151838281518110611411576114116122af565b60200260200101906001600160a01b031690816001600160a01b031681525050600360008c81526020019081526020016000206000878381518110611458576114586122af565b60200260200101516001600160a01b03166001600160a01b0316815260200190815260200160002054828281518110611493576114936122af565b6020908102919091010152806114a8816122f3565b9150506113dd565b5060005b6114bf600186612240565b8110156116875760005b60016114d58388612240565b6114df9190612240565b81101561167457826114f28260016120e4565b81518110611502576115026122af565b602002602001015183828151811061151c5761151c6122af565b6020026020010151101561166257600083828151811061153e5761153e6122af565b602002602001015190508382600161155691906120e4565b81518110611566576115666122af565b6020026020010151848381518110611580576115806122af565b602090810291909101015280846115988460016120e4565b815181106115a8576115a86122af565b60200260200101818152505060008583815181106115c8576115c86122af565b60200260200101519050858360016115e091906120e4565b815181106115f0576115f06122af565b602002602001015186848151811061160a5761160a6122af565b6001600160a01b0390921660209283029190910190910152808661162f8560016120e4565b8151811061163f5761163f6122af565b60200260200101906001600160a01b031690816001600160a01b03168152505050505b8061166c816122f3565b9150506114c9565b508061167f816122f3565b9150506114b4565b508267ffffffffffffffff8111156116a1576116a1611cfc565b6040519080825280602002602001820160405280156116ca578160200160208202803683370190505b5097508267ffffffffffffffff8111156116e6576116e6611cfc565b60405190808252806020026020018201604052801561170f578160200160208202803683370190505b50965060005b838110156117b25782818151811061172f5761172f6122af565b6020026020010151898281518110611749576117496122af565b60200260200101906001600160a01b031690816001600160a01b03168152505081818151811061177b5761177b6122af565b6020026020010151888281518110611795576117956122af565b6020908102919091010152806117aa816122f3565b915050611715565b5050505050505b509250929050565b60008281526003602090815260408083206001600160a01b03851684529091529020545b92915050565b6002548190811061180e5760405162461bcd60e51b81526004016103c390612278565b81600060028281548110611824576118246122af565b600091825260209182902060408051610120810190915260079092020180546001600160a01b031682526001810180549293919291840191611865906120f7565b80601f0160208091040260200160405190810160405280929190818152602001828054611891906120f7565b80156118de5780601f106118b3576101008083540402835291602001916118de565b820191906000526020600020905b8154815290600101906020018083116118c157829003601f168201915b505050505081526020016002820180546118f7906120f7565b80601f0160208091040260200160405190810160405280929190818152602001828054611923906120f7565b80156119705780601f1061194557610100808354040283529160200191611970565b820191906000526020600020905b81548152906001019060200180831161195357829003601f168201915b505050918352505060038201546020820152600482015460408201526005820154606082015260069091015460ff80821615156080840152610100820416151560a08301526201000090046001600160a01b031660c09182015281015190915015611a1d5760405162461bcd60e51b815260206004820152601a60248201527f43616d706169676e20616c72656164792066696e616c697a656400000000000060448201526064016103c3565b80608001514210611a705760405162461bcd60e51b815260206004820152601860248201527f43616d706169676e20646561646c696e6520706173736564000000000000000060448201526064016103c3565b611a78611c40565b60003411611ac85760405162461bcd60e51b815260206004820152601f60248201527f446f6e6174696f6e206d7573742062652067726561746572207468616e20300060448201526064016103c3565b600060028581548110611add57611add6122af565b600091825260208083208884526003825260408085203386529092529083205460079092020192509003611b3a5760008581526005602090815260408220805460018101825590835291200180546001600160a01b031916331790555b600085815260036020908152604080832033845290915281208054349290611b639084906120e4565b9250508190555034816005016000828254611b7e91906120e4565b9091555050604051348152339086907f0b5b4c52969ff7329ecf7ee536409fda87812b15a8622bc6e8cdeab3aee14a269060200160405180910390a350611bc460018055565b50505050565b60056020528160005260406000208181548110611be657600080fd5b6000918252602090912001546001600160a01b03169150829050565b611c0a611c6a565b6001600160a01b038116611c3457604051631e4fbdf760e01b8152600060048201526024016103c3565b611c3d81611c97565b50565b600260015403611c6357604051633ee5aeb560e01b815260040160405180910390fd5b6002600155565b6000546001600160a01b0316331461120d5760405163118cdaa760e01b81523360048201526024016103c3565b600080546001600160a01b038381166001600160a01b0319831681178455604051919092169283917f8be0079c531659141344cd1fd0a4f28419497f9722a3daafe3b4186f6b6457e09190a35050565b6001600160a01b0381168114611c3d57600080fd5b634e487b7160e01b600052604160045260246000fd5b600082601f830112611d2357600080fd5b813567ffffffffffffffff80821115611d3e57611d3e611cfc565b604051601f8301601f19908116603f01168101908282118183101715611d6657611d66611cfc565b81604052838152866020858801011115611d7f57600080fd5b836020870160208301376000602085830101528094505050505092915050565b600080600080600060a08688031215611db757600080fd5b8535611dc281611ce7565b9450602086013567ffffffffffffffff80821115611ddf57600080fd5b611deb89838a01611d12565b95506040880135915080821115611e0157600080fd5b50611e0e88828901611d12565b9598949750949560608101359550608001359392505050565b600060208284031215611e3957600080fd5b5035919050565b6000815180845260005b81811015611e6657602081850181015186830182015201611e4a565b506000602082860101526020601f19601f83011685010191505092915050565b6001600160a01b038a8116825261012060208301819052600091611eac8483018d611e40565b91508382036040850152611ec0828c611e40565b606085019a909a526080840198909852505060a081019490945291151560c0840152151560e0830152909116610100909101529392505050565b60008060408385031215611f0d57600080fd5b8235611f1881611ce7565b946020939093013593505050565b60008060408385031215611f3957600080fd5b823591506020830135611f4b81611ce7565b809150509250929050565b600080600060608486031215611f6b57600080fd5b83359250602084013567ffffffffffffffff80821115611f8a57600080fd5b611f9687838801611d12565b93506040860135915080821115611fac57600080fd5b50611fb986828701611d12565b9150509250925092565b600060208284031215611fd557600080fd5b8135611fe081611ce7565b9392505050565b600081518084526020808501945080840160005b8381101561201757815187529582019590820190600101611ffb565b509495945050505050565b602081526000611fe06020830184611fe7565b6000806040838503121561204857600080fd5b50508035926020909101359150565b604080825283519082018190526000906020906060840190828701845b828110156120995781516001600160a01b031684529284019290840190600101612074565b505050838103828501526120ad8186611fe7565b9695505050505050565b634e487b7160e01b600052601160045260246000fd5b80820281158282048414176117e5576117e56120b7565b808201808211156117e5576117e56120b7565b600181811c9082168061210b57607f821691505b60208210810361212b57634e487b7160e01b600052602260045260246000fd5b50919050565b601f82111561217b57600081815260208120601f850160051c810160208610156121585750805b601f850160051c820191505b8181101561217757828155600101612164565b5050505b505050565b815167ffffffffffffffff81111561219a5761219a611cfc565b6121ae816121a884546120f7565b84612131565b602080601f8311600181146121e357600084156121cb5750858301515b600019600386901b1c1916600185901b178555612177565b600085815260208120601f198616915b82811015612212578886015182559484019460019091019084016121f3565b50858210156122305787850151600019600388901b60f8161c191681555b5050505050600190811b01905550565b818103818111156117e5576117e56120b7565b6060815260006122666060830186611e40565b60208301949094525060400152919050565b60208082526017908201527f43616d706169676e20646f6573206e6f74206578697374000000000000000000604082015260600190565b634e487b7160e01b600052603260045260246000fd5b6040815260006122d86040830185611e40565b82810360208401526122ea8185611e40565b95945050505050565b600060018201612305576123056120b7565b506001019056fea2646970667358221220142bc43105359e2a15255a50158eaf3e474dc4ea191d87cd94af6be960af6eea64736f6c63430008140033",
  "linkReferences": {},
  "deployedLinkReferences": {}
}