{
  "_format": "hh-sol-artifact-1",
  "contractName": "CharityCampaignFactory",
  "sourceName": "contracts/CharityCampaignFactory.sol",
  "abi": [
    {
      "inputs": [],
      "stateMutability": "nonpayable",
      "type": "constructor"
    },
    {
      "inputs": [
        {
          "internalType": "address",
          "name": "owner",
          "type": "address"
        }
      ],
      "name": "OwnableInvalidOwner",
      "type": "error"
    },
    {
      "inputs": [
        {
          "internalType": "address",
          "name": "account",
          "type": "address"
        }
      ],
      "name": "OwnableUnauthorizedAccount",
      "type": "error"
    },
    {
      "inputs": [],
      "name": "ReentrancyGuardReentrantCall",
      "type": "error"
    },
    {
      "anonymous": false,
      "inputs": [
        {
          "indexed": true,
          "internalType": "uint256",
          "name": "campaignId",
          "type": "uint256"
        },
        {
          "indexed": true,
          "internalType": "address",
          "name": "creator",
          "type": "address"
        },
        {
          "indexed": true,
          "internalType": "address",
          "name": "beneficiary",
          "type": "address"
        },
        {
          "indexed": false,
          "internalType": "string",
          "name": "title",
          "type": "string"
        },
        {
          "indexed": false,
          "internalType": "uint256",
          "name": "goalAmount",
          "type": "uint256"
        },
        {
          "indexed": false,
          "internalType": "uint256",
          "name": "deadline",
          "type": "uint256"
        }
      ],
      "name": "CampaignCreated",
      "type": "event"
    },
    {
      "anonymous": false,
      "inputs": [
        {
          "indexed": true,
          "internalType": "uint256",
          "name": "campaignId",
          "type": "uint256"
        },
        {
          "indexed": false,
          "internalType": "uint256",
          "name": "totalRaised",
          "type": "uint256"
        },
        {
          "indexed": false,
          "internalType": "bool",
          "name": "goalReached",
          "type": "bool"
        }
      ],
      "name": "CampaignFinalized",
      "type": "event"
    },
    {
      "anonymous": false,
      "inputs": [
        {
          "indexed": true,
          "internalType": "uint256",
          "name": "campaignId",
          "type": "uint256"
        },
        {
          "indexed": true,
          "internalType": "address",
          "name": "donor",
          "type": "address"
        },
        {
          "indexed": false,
          "internalType": "uint256",
          "name": "amount",
          "type": "uint256"
        }
      ],
      "name": "DonationReceived",
      "type": "event"
    },
    {
      "anonymous": false,
      "inputs": [
        {
          "indexed": true,
          "internalType": "address",
          "name": "previousOwner",
          "type": "address"
        },
        {
          "indexed": true,
          "internalType": "address",
          "name": "newOwner",
          "type": "address"
        }
      ],
      "name": "OwnershipTransferred",
      "type": "event"
    },
    {
      "anonymous": false,
      "inputs": [
        {
          "indexed": true,
          "internalType": "uint256",
          "name": "campaignId",
          "type": "uint256"
        },
        {
          "indexed": true,
          "internalType": "address",
          "name": "donor",
          "type": "address"
        },
        {
          "indexed": false,
          "internalType": "uint256",
          "name": "amount",
          "type": "uint256"
        }
      ],
      "name": "RefundIssued",
      "type": "event"
    },
    {
      "inputs": [
        {
          "internalType": "uint256",
          "name": "",
          "type": "uint256"
        }
      ],
      "name": "campaigns",
      "outputs": [
        {
          "internalType": "address payable",
          "name": "beneficiary",
          "type": "address"
        },
        {
          "internalType": "string",
          "name": "title",
          "type": "string"
        },
        {
          "internalType": "string",
          "name": "description",
          "type": "string"
        },
        {
          "internalType": "uint256",
          "name": "goalAmount",
          "type": "uint256"
        },
        {
          "internalType": "uint256",
          "name": "deadline",
          "type": "uint256"
        },
        {
          "internalType": "uint256",
          "name": "totalRaised",
          "type": "uint256"
        },
        {
          "internalType": "bool",
          "name": "finalized",
          "type": "bool"
        },
        {
          "internalType": "bool",
          "name": "refundEnabled",
          "type": "bool"
        },
        {
          "internalType": "address",
          "name": "creator",
          "type": "address"
        }
      ],
      "stateMutability": "view",
      "type": "function"
    },
    {
      "inputs": [
        {
          "internalType": "uint256",
          "name": "_campaignId",
          "type": "uint256"
        }
      ],
      "name": "claimRefund",
      "outputs": [],
      "stateMutability": "nonpayable",
      "type": "function"
    },
    {
      "inputs": [
        {
          "internalType": "uint256",
          "name": "",
          "type": "uint256"
        },
        {
          "internalType": "address",
          "name": "",
          "type": "address"
        }
      ],
      "name": "contributions",
      "outputs": [
        {
          "internalType": "uint256",
          "name": "",
          "type": "uint256"
        }
      ],
      "stateMutability": "view",
      "type": "function"
    },
    {
      "inputs": [
        {
          "internalType": "address payable",
          "name": "_beneficiary",
          "type": "address"
        },
        {
          "internalType": "string",
          "name": "_title",
          "type": "string"
        },
        {
          "internalType": "string",
          "name": "_description",
          "type": "string"
        },
        {
          "internalType": "uint256",
          "name": "_goalAmount",
          "type": "uint256"
        },
        {
          "internalType": "uint256",
          "name": "_durationDays",
          "type": "uint256"
        }
      ],
      "name": "createCampaign",
      "outputs": [
        {
          "internalType": "uint256",
          "name": "",
          "type": "uint256"
        }
      ],
      "stateMutability": "nonpayable",
      "type": "function"
    },
    {
      "inputs": [
        {
          "internalType": "uint256",
          "name": "_campaignId",
          "type": "uint256"
        }
      ],
      "name": "donate",
      "outputs": [],
      "stateMutability": "payable",
      "type": "function"
    },
    {
      "inputs": [
        {
          "internalType": "uint256",
          "name": "_campaignId",
          "type": "uint256"
        }
      ],
      "name": "finalizeCampaign",
      "outputs": [],
      "stateMutability": "nonpayable",
      "type": "function"
    },
    {
      "inputs": [
        {
          "internalType": "uint256",
          "name": "_campaignId",
          "type": "uint256"
        }
      ],
      "name": "getCampaign",
      "outputs": [
        {
          "internalType": "address",
          "name": "beneficiary",
          "type": "address"
        },
        {
          "internalType": "string",
          "name": "title",
          "type": "string"
        },
        {
          "internalType": "string",
          "name": "description",
          "type": "string"
        },
        {
          "internalType": "uint256",
          "name": "goalAmount",
          "type": "uint256"
        },
        {
          "internalType": "uint256",
          "name": "deadline",
          "type": "uint256"
        },
        {
          "internalType": "uint256",
          "name": "totalRaised",
          "type": "uint256"
        },
        {
          "internalType": "bool",
          "name": "finalized",
          "type": "bool"
        },
        {
          "internalType": "bool",
          "name": "refundEnabled",
          "type": "bool"
        },
        {
          "internalType": "address",
          "name": "creator",
          "type": "address"
        }
      ],
      "stateMutability": "view",
      "type": "function"
    },
    {
      "inputs": [],
      "name": "getCampaignCount",
      "outputs": [
        {
          "internalType": "uint256",
          "name": "",
          "type": "uint256"
        }
      ],
      "stateMutability": "view",
      "type": "function"
    },
    {
      "inputs": [
        {
          "internalType": "uint256",
          "name": "_campaignId",
          "type": "uint256"
        },
        {
          "internalType": "address",
          "name": "_donor",
          "type": "address"
        }
      ],
      "name": "getContribution",
      "outputs": [
        {
          "internalType": "uint256",
          "name": "",
          "type": "uint256"
        }
      ],
      "stateMutability": "view",
      "type": "function"
    },
    {
      "inputs": [
        {
          "internalType": "address",
          "name": "_creator",
          "type": "address"
        }
      ],
      "name": "getUserCampaigns",
      "outputs": [
        {
          "internalType": "uint256[]",
          "name": "",
          "type": "uint256[]"
        }
      ],
      "stateMutability": "view",
      "type": "function"
    },
    {
      "inputs": [],
      "name": "owner",
      "outputs": [
        {
          "internalType": "address",
          "name": "",
          "type": "address"
        }
      ],
      "stateMutability": "view",
      "type": "function"
    },
    {
      "inputs": [],
      "name": "renounceOwnership",
      "outputs": [],
      "stateMutability": "nonpayable",
      "type": "function"
    },
    {
      "inputs": [
        {
          "internalType": "address",
          "name": "newOwner",
          "type": "address"
        }
      ],
      "name": "transferOwnership",
      "outputs": [],
      "stateMutability": "nonpayable",
      "type": "function"
    },
    {
      "inputs": [
        {
          "internalType": "address",
          "name": "",
          "type": "address"
        },
        {
          "internalType": "uint256",
          "name": "",
          "type": "uint256"
        }
      ],
      "name": "userCampaigns",
      "outputs": [
        {
          "internalType": "uint256",
          "name": "",
          "type": "uint256"
        }
      ],
      "stateMutability": "view",
      "type": "function"
    }
  ],
  "bytecode": "0x608060405234801561001057600080fd5b50338061003757604051631e4fbdf760e01b81526000600482015260240160405180910390fd5b6100408161004a565b506001805561009a565b600080546001600160a01b038381166001600160a01b0319831681178455604051919092169283917f8be0079c531659141344cd1fd0a4f28419497f9722a3daafe3b4186f6b6457e09190a35050565b6119c0806100a96000396000f3fe6080604052600436106100dd5760003560e01c80636caa92181161007f578063a1e5084c11610059578063a1e5084c14610256578063e081dbf914610283578063f14faf6f146102a3578063f2fde38b146102b657600080fd5b80636caa921814610204578063715018a6146102195780638da5cb5b1461022e57600080fd5b80633d891f59116100bb5780633d891f591461016a5780635598f8cc146101a25780635b7baf64146101c25780636b5ca27d146101e457600080fd5b8063075843c3146100e2578063141961bc1461011557806319ac74bd1461014a575b600080fd5b3480156100ee57600080fd5b506101026100fd36600461155d565b6102d6565b6040519081526020015b60405180910390f35b34801561012157600080fd5b506101356101303660046115e5565b61062d565b60405161010c99989796959493929190611644565b34801561015657600080fd5b506101026101653660046116b8565b6107b4565b34801561017657600080fd5b506101026101853660046116e4565b600360209081526000928352604080842090915290825290205481565b3480156101ae57600080fd5b506101356101bd3660046115e5565b6107e5565b3480156101ce57600080fd5b506101e26101dd3660046115e5565b610a56565b005b3480156101f057600080fd5b506101e26101ff3660046115e5565b610cb2565b34801561021057600080fd5b50600254610102565b34801561022557600080fd5b506101e2610f83565b34801561023a57600080fd5b506000546040516001600160a01b03909116815260200161010c565b34801561026257600080fd5b50610276610271366004611714565b610f97565b60405161010c9190611738565b34801561028f57600080fd5b5061010261029e3660046116e4565b611003565b6101e26102b13660046115e5565b61102d565b3480156102c257600080fd5b506101e26102d1366004611714565b6113c0565b60006001600160a01b0386166103335760405162461bcd60e51b815260206004820152601b60248201527f496e76616c69642062656e65666963696172792061646472657373000000000060448201526064015b60405180910390fd5b6000831161038e5760405162461bcd60e51b815260206004820152602260248201527f476f616c20616d6f756e74206d7573742062652067726561746572207468616e604482015261020360f41b606482015260840161032a565b6000821180156103a0575061016d8211155b6103df5760405162461bcd60e51b815260206004820152601060248201526f24b73b30b634b210323ab930ba34b7b760811b604482015260640161032a565b60008551116104285760405162461bcd60e51b81526020600482015260156024820152745469746c652063616e6e6f7420626520656d70747960581b604482015260640161032a565b60006104378362015180611792565b61044190426117a9565b60408051610120810182526001600160a01b038a81168252602082018a81529282018990526060820188905260808201849052600060a0830181905260c0830181905260e083018190523361010084015260028054600181018255915282517f405787fa12a823e0f2b7631cc41b3ba8828b3321ca811111fa75cd3aa3bb5ace600790920291820180546001600160a01b031916919093161782559251939450909283927f405787fa12a823e0f2b7631cc41b3ba8828b3321ca811111fa75cd3aa3bb5acf01906105129082611845565b50604082015160028201906105279082611845565b50606082015160038201556080820151600482015560a0820151600582015560c08201516006909101805460e08401516101009485015161ffff1990921693151561ff001916939093179215159093029190911762010000600160b01b031916620100006001600160a01b03909316929092029190911790556002546000906105b290600190611905565b33600081815260046020908152604080832080546001810182559084529190922001839055519192506001600160a01b038b169183907fab59b1925b9e9f5979fb63f46375f2f218e34df984a2b8725b5539447952b8e090610619908d908c908a90611918565b60405180910390a498975050505050505050565b6002818154811061063d57600080fd5b6000918252602090912060079091020180546001820180546001600160a01b0390921693509061066c906117bc565b80601f0160208091040260200160405190810160405280929190818152602001828054610698906117bc565b80156106e55780601f106106ba576101008083540402835291602001916106e5565b820191906000526020600020905b8154815290600101906020018083116106c857829003601f168201915b5050505050908060020180546106fa906117bc565b80601f0160208091040260200160405190810160405280929190818152602001828054610726906117bc565b80156107735780601f1061074857610100808354040283529160200191610773565b820191906000526020600020905b81548152906001019060200180831161075657829003601f168201915b505050506003830154600484015460058501546006909501549394919390925060ff808216916101008104909116906201000090046001600160a01b031689565b600460205281600052604060002081815481106107d057600080fd5b90600052602060002001600091509150505481565b60006060806000806000806000808960028054905081106108185760405162461bcd60e51b815260040161032a9061193d565b600060028c8154811061082d5761082d611974565b600091825260209182902060408051610120810190915260079092020180546001600160a01b03168252600181018054929391929184019161086e906117bc565b80601f016020809104026020016040519081016040528092919081815260200182805461089a906117bc565b80156108e75780601f106108bc576101008083540402835291602001916108e7565b820191906000526020600020905b8154815290600101906020018083116108ca57829003601f168201915b50505050508152602001600282018054610900906117bc565b80601f016020809104026020016040519081016040528092919081815260200182805461092c906117bc565b80156109795780601f1061094e57610100808354040283529160200191610979565b820191906000526020600020905b81548152906001019060200180831161095c57829003601f168201915b505050505081526020016003820154815260200160048201548152602001600582015481526020016006820160009054906101000a900460ff161515151581526020016006820160019054906101000a900460ff161515151581526020016006820160029054906101000a90046001600160a01b03166001600160a01b03166001600160a01b0316815250509050806000015181602001518260400151836060015184608001518560a001518660c001518760e001518861010001519a509a509a509a509a509a509a509a509a5050509193959799909294969850565b60025481908110610a795760405162461bcd60e51b815260040161032a9061193d565b610a816113fe565b600060028381548110610a9657610a96611974565b60009182526020909120600790910201600681015490915060ff16610af65760405162461bcd60e51b815260206004820152601660248201527510d85b5c185a59db881b9bdd08199a5b985b1a5e995960521b604482015260640161032a565b6006810154610100900460ff16610b5d5760405162461bcd60e51b815260206004820152602560248201527f526566756e6473206e6f7420656e61626c656420666f7220746869732063616d6044820152643830b4b3b760d91b606482015260840161032a565b600083815260036020908152604080832033845290915290205480610bc45760405162461bcd60e51b815260206004820152601960248201527f4e6f20636f6e747269627574696f6e20746f20726566756e6400000000000000604482015260640161032a565b60008481526003602090815260408083203380855292528083208390555183908381818185875af1925050503d8060008114610c1c576040519150601f19603f3d011682016040523d82523d6000602084013e610c21565b606091505b5050905080610c6b5760405162461bcd60e51b81526020600482015260166024820152751499599d5b99081d1c985b9cd9995c8819985a5b195960521b604482015260640161032a565b604051828152339086907f7a482fdeb6bc9a1376f597068a214a7a39472bb2eff1b8cad21ba04f49ddca1b9060200160405180910390a3505050610cae60018055565b5050565b60025481908110610cd55760405162461bcd60e51b815260040161032a9061193d565b610cdd6113fe565b600060028381548110610cf257610cf2611974565b60009182526020909120600790910201600681015490915060ff1615610d5a5760405162461bcd60e51b815260206004820152601a60248201527f43616d706169676e20616c72656164792066696e616c697a6564000000000000604482015260640161032a565b60068101546201000090046001600160a01b0316331480610d8557506000546001600160a01b031633145b610ddc5760405162461bcd60e51b815260206004820152602260248201527f4f6e6c792063726561746f72206f72206f776e65722063616e2066696e616c696044820152617a6560f01b606482015260840161032a565b8060040154421015610e305760405162461bcd60e51b815260206004820152601d60248201527f43616d706169676e20646561646c696e65206e6f742072656163686564000000604482015260640161032a565b60068101805460ff1916600117905560038101546005820154108015908190610e5d575060008260050154115b15610f0e57815460058301546040516000926001600160a01b031691908381818185875af1925050503d8060008114610eb2576040519150601f19603f3d011682016040523d82523d6000602084013e610eb7565b606091505b5050905080610f085760405162461bcd60e51b815260206004820152601e60248201527f5472616e7366657220746f2062656e6566696369617279206661696c65640000604482015260640161032a565b50610f37565b80158015610f20575060008260050154115b15610f375760068201805461ff0019166101001790555b600582015460408051918252821515602083015285917f58d612671e6b4848a067857f6d94e86ccf9b5e3c3938e0367f7b3e4bbacf2652910160405180910390a25050610cae60018055565b610f8b611428565b610f956000611455565b565b6001600160a01b038116600090815260046020908152604091829020805483518184028101840190945280845260609392830182828015610ff757602002820191906000526020600020905b815481526020019060010190808311610fe3575b50505050509050919050565b60008281526003602090815260408083206001600160a01b03851684529091529020545b92915050565b600254819081106110505760405162461bcd60e51b815260040161032a9061193d565b8160006002828154811061106657611066611974565b600091825260209182902060408051610120810190915260079092020180546001600160a01b0316825260018101805492939192918401916110a7906117bc565b80601f01602080910402602001604051908101604052809291908181526020018280546110d3906117bc565b80156111205780601f106110f557610100808354040283529160200191611120565b820191906000526020600020905b81548152906001019060200180831161110357829003601f168201915b50505050508152602001600282018054611139906117bc565b80601f0160208091040260200160405190810160405280929190818152602001828054611165906117bc565b80156111b25780601f10611187576101008083540402835291602001916111b2565b820191906000526020600020905b81548152906001019060200180831161119557829003601f168201915b505050918352505060038201546020820152600482015460408201526005820154606082015260069091015460ff80821615156080840152610100820416151560a08301526201000090046001600160a01b031660c0918201528101519091501561125f5760405162461bcd60e51b815260206004820152601a60248201527f43616d706169676e20616c72656164792066696e616c697a6564000000000000604482015260640161032a565b806080015142106112b25760405162461bcd60e51b815260206004820152601860248201527f43616d706169676e20646561646c696e65207061737365640000000000000000604482015260640161032a565b6112ba6113fe565b6000341161130a5760405162461bcd60e51b815260206004820152601f60248201527f446f6e6174696f6e206d7573742062652067726561746572207468616e203000604482015260640161032a565b60006002858154811061131f5761131f611974565b60009182526020808320888452600382526040808520338652909252908320805460079093029091019350349290916113599084906117a9565b925050819055503481600501600082825461137491906117a9565b9091555050604051348152339086907f0b5b4c52969ff7329ecf7ee536409fda87812b15a8622bc6e8cdeab3aee14a269060200160405180910390a3506113ba60018055565b50505050565b6113c8611428565b6001600160a01b0381166113f257604051631e4fbdf760e01b81526000600482015260240161032a565b6113fb81611455565b50565b60026001540361142157604051633ee5aeb560e01b815260040160405180910390fd5b6002600155565b6000546001600160a01b03163314610f955760405163118cdaa760e01b815233600482015260240161032a565b600080546001600160a01b038381166001600160a01b0319831681178455604051919092169283917f8be0079c531659141344cd1fd0a4f28419497f9722a3daafe3b4186f6b6457e09190a35050565b6001600160a01b03811681146113fb57600080fd5b634e487b7160e01b600052604160045260246000fd5b600082601f8301126114e157600080fd5b813567ffffffffffffffff808211156114fc576114fc6114ba565b604051601f8301601f19908116603f01168101908282118183101715611524576115246114ba565b8160405283815286602085880101111561153d57600080fd5b836020870160208301376000602085830101528094505050505092915050565b600080600080600060a0868803121561157557600080fd5b8535611580816114a5565b9450602086013567ffffffffffffffff8082111561159d57600080fd5b6115a989838a016114d0565b955060408801359150808211156115bf57600080fd5b506115cc888289016114d0565b9598949750949560608101359550608001359392505050565b6000602082840312156115f757600080fd5b5035919050565b6000815180845260005b8181101561162457602081850181015186830182015201611608565b506000602082860101526020601f19601f83011685010191505092915050565b6001600160a01b038a811682526101206020830181905260009161166a8483018d6115fe565b9150838203604085015261167e828c6115fe565b606085019a909a526080840198909852505060a081019490945291151560c0840152151560e0830152909116610100909101529392505050565b600080604083850312156116cb57600080fd5b82356116d6816114a5565b946020939093013593505050565b600080604083850312156116f757600080fd5b823591506020830135611709816114a5565b809150509250929050565b60006020828403121561172657600080fd5b8135611731816114a5565b9392505050565b6020808252825182820181905260009190848201906040850190845b8181101561177057835183529284019291840191600101611754565b50909695505050505050565b634e487b7160e01b600052601160045260246000fd5b80820281158282048414176110275761102761177c565b808201808211156110275761102761177c565b600181811c908216806117d057607f821691505b6020821081036117f057634e487b7160e01b600052602260045260246000fd5b50919050565b601f82111561184057600081815260208120601f850160051c8101602086101561181d5750805b601f850160051c820191505b8181101561183c57828155600101611829565b5050505b505050565b815167ffffffffffffffff81111561185f5761185f6114ba565b6118738161186d84546117bc565b846117f6565b602080601f8311600181146118a857600084156118905750858301515b600019600386901b1c1916600185901b17855561183c565b600085815260208120601f198616915b828110156118d7578886015182559484019460019091019084016118b8565b50858210156118f55787850151600019600388901b60f8161c191681555b5050505050600190811b01905550565b818103818111156110275761102761177c565b60608152600061192b60608301866115fe565b60208301949094525060400152919050565b60208082526017908201527f43616d706169676e20646f6573206e6f74206578697374000000000000000000604082015260600190565b634e487b7160e01b600052603260045260246000fdfea26469706673582212201917571d72ffdc047a4b875095f77c22b098b2aefbbe04ba54368963aef5aa8c64736f6c63430008140033",
  "linkReferences": {},
  "deployedLinkReferences": {}
}