{
  "_format": "hh-sol-artifact-1",
  "contractName": "CharityCampaignFactory",
  "sourceName": "contracts/CharityCampaignFactory.sol",
  "abi": [
    {
      "inputs": [],
      "stateMutability": "nonpayable",
      "type": "constructor"
    },
    {
      "inputs": [
        {
          "internalType": "address",
          "name": "owner",
          "type": "address"
        }
      ],
      "name": "OwnableInvalidOwner",
      "type": "error"
    },
    {
      "inputs": [
        {
          "internalType": "address",
          "name": "account",
          "type": "address"
        }
      ],
      "name": "OwnableUnauthorizedAccount",
      "type": "error"
    },
    {
      "inputs": [],
      "name": "ReentrancyGuardReentrantCall",
      "type": "error"
    },
    {
      "anonymous": false,
      "inputs": [
        {
          "indexed": true,
          "internalType": "bytes32",
          "name": "uuidKey",
          "type": "bytes32"
        },
        {
          "indexed": true,
          "internalType": "address",
          "name": "creator",
          "type": "address"
        },
        {
          "indexed": false,
          "internalType": "uint256",
          "name": "totalRefunded",
          "type": "uint256"
        }
      ],
      "name": "CampaignCancelled",
      "type": "event"
    },
    {
      "anonymous": false,
      "inputs": [
        {
          "indexed": true,
          "internalType": "bytes32",
          "name": "uuidKey",
          "type": "bytes32"
        },
        {
          "indexed": true,
          "internalType": "address",
          "name": "creator",
          "type": "address"
        },
        {
          "indexed": true,
          "internalType": "address",
          "name": "beneficiary",
          "type": "address"
        },
        {
          "indexed": false,
          "internalType": "string",
          "name": "title",
          "type": "string"
        },
        {
          "indexed": false,
          "internalType": "uint256",
          "name": "goalAmount",
          "type": "uint256"
        },
        {
          "indexed": false,
          "internalType": "uint256",
          "name": "deadline",
          "type": "uint256"
        },
        {
          "indexed": false,
          "internalType": "string",
          "name": "dbUuid",
          "type": "string"
        }
      ],
      "name": "CampaignCreated",
      "type": "event"
    },
    {
      "anonymous": false,
      "inputs": [
        {
          "indexed": true,
          "internalType": "bytes32",
          "name": "uuidKey",
          "type": "bytes32"
        },
        {
          "indexed": false,
          "internalType": "string",
          "name": "newTitle",
          "type": "string"
        },
        {
          "indexed": false,
          "internalType": "string",
          "name": "newDescription",
          "type": "string"
        }
      ],
      "name": "CampaignEdited",
      "type": "event"
    },
    {
      "anonymous": false,
      "inputs": [
        {
          "indexed": true,
          "internalType": "bytes32",
          "name": "uuidKey",
          "type": "bytes32"
        },
        {
          "indexed": false,
          "internalType": "uint256",
          "name": "totalRaised",
          "type": "uint256"
        },
        {
          "indexed": false,
          "internalType": "bool",
          "name": "goalReached",
          "type": "bool"
        }
      ],
      "name": "CampaignFinalized",
      "type": "event"
    },
    {
      "anonymous": false,
      "inputs": [
        {
          "indexed": true,
          "internalType": "bytes32",
          "name": "uuidKey",
          "type": "bytes32"
        },
        {
          "indexed": true,
          "internalType": "address",
          "name": "admin",
          "type": "address"
        }
      ],
      "name": "CampaignPaused",
      "type": "event"
    },
    {
      "anonymous": false,
      "inputs": [
        {
          "indexed": true,
          "internalType": "bytes32",
          "name": "uuidKey",
          "type": "bytes32"
        },
        {
          "indexed": true,
          "internalType": "address",
          "name": "admin",
          "type": "address"
        }
      ],
      "name": "CampaignUnpaused",
      "type": "event"
    },
    {
      "anonymous": false,
      "inputs": [
        {
          "indexed": true,
          "internalType": "bytes32",
          "name": "uuidKey",
          "type": "bytes32"
        },
        {
          "indexed": true,
          "internalType": "address",
          "name": "donor",
          "type": "address"
        },
        {
          "indexed": false,
          "internalType": "uint256",
          "name": "amount",
          "type": "uint256"
        }
      ],
      "name": "DonationCancelled",
      "type": "event"
    },
    {
      "anonymous": false,
      "inputs": [
        {
          "indexed": true,
          "internalType": "bytes32",
          "name": "uuidKey",
          "type": "bytes32"
        },
        {
          "indexed": true,
          "internalType": "address",
          "name": "donor",
          "type": "address"
        },
        {
          "indexed": false,
          "internalType": "uint256",
          "name": "amount",
          "type": "uint256"
        }
      ],
      "name": "DonationReceived",
      "type": "event"
    },
    {
      "anonymous": false,
      "inputs": [
        {
          "indexed": true,
          "internalType": "address",
          "name": "previousOwner",
          "type": "address"
        },
        {
          "indexed": true,
          "internalType": "address",
          "name": "newOwner",
          "type": "address"
        }
      ],
      "name": "OwnershipTransferred",
      "type": "event"
    },
    {
      "anonymous": false,
      "inputs": [
        {
          "indexed": true,
          "internalType": "bytes32",
          "name": "uuidKey",
          "type": "bytes32"
        },
        {
          "indexed": true,
          "internalType": "address",
          "name": "donor",
          "type": "address"
        },
        {
          "indexed": false,
          "internalType": "uint256",
          "name": "amount",
          "type": "uint256"
        }
      ],
      "name": "RefundIssued",
      "type": "event"
    },
    {
      "inputs": [],
      "name": "DONATION_GRACE_PERIOD",
      "outputs": [
        {
          "internalType": "uint256",
          "name": "",
          "type": "uint256"
        }
      ],
      "stateMutability": "view",
      "type": "function"
    },
    {
      "inputs": [],
      "name": "MAX_CAMPAIGN_DURATION",
      "outputs": [
        {
          "internalType": "uint256",
          "name": "",
          "type": "uint256"
        }
      ],
      "stateMutability": "view",
      "type": "function"
    },
    {
      "inputs": [],
      "name": "MIN_CAMPAIGN_DURATION",
      "outputs": [
        {
          "internalType": "uint256",
          "name": "",
          "type": "uint256"
        }
      ],
      "stateMutability": "view",
      "type": "function"
    },
    {
      "inputs": [],
      "name": "MIN_GOAL_AMOUNT",
      "outputs": [
        {
          "internalType": "uint256",
          "name": "",
          "type": "uint256"
        }
      ],
      "stateMutability": "view",
      "type": "function"
    },
    {
      "inputs": [
        {
          "internalType": "bytes32",
          "name": "",
          "type": "bytes32"
        },
        {
          "internalType": "uint256",
          "name": "",
          "type": "uint256"
        }
      ],
      "name": "campaignDonors",
      "outputs": [
        {
          "internalType": "address",
          "name": "",
          "type": "address"
        }
      ],
      "stateMutability": "view",
      "type": "function"
    },
    {
      "inputs": [
        {
          "internalType": "uint256",
          "name": "",
          "type": "uint256"
        }
      ],
      "name": "campaignKeys",
      "outputs": [
        {
          "internalType": "bytes32",
          "name": "",
          "type": "bytes32"
        }
      ],
      "stateMutability": "view",
      "type": "function"
    },
    {
      "inputs": [
        {
          "internalType": "string",
          "name": "_dbUuid",
          "type": "string"
        }
      ],
      "name": "cancelCampaign",
      "outputs": [],
      "stateMutability": "nonpayable",
      "type": "function"
    },
    {
      "inputs": [
        {
          "internalType": "string",
          "name": "_dbUuid",
          "type": "string"
        }
      ],
      "name": "cancelDonation",
      "outputs": [],
      "stateMutability": "nonpayable",
      "type": "function"
    },
    {
      "inputs": [
        {
          "internalType": "string",
          "name": "_dbUuid",
          "type": "string"
        }
      ],
      "name": "claimRefund",
      "outputs": [],
      "stateMutability": "nonpayable",
      "type": "function"
    },
    {
      "inputs": [
        {
          "internalType": "bytes32",
          "name": "",
          "type": "bytes32"
        },
        {
          "internalType": "address",
          "name": "",
          "type": "address"
        }
      ],
      "name": "contributions",
      "outputs": [
        {
          "internalType": "uint256",
          "name": "",
          "type": "uint256"
        }
      ],
      "stateMutability": "view",
      "type": "function"
    },
    {
      "inputs": [
        {
          "internalType": "address payable",
          "name": "_beneficiary",
          "type": "address"
        },
        {
          "internalType": "string",
          "name": "_title",
          "type": "string"
        },
        {
          "internalType": "string",
          "name": "_description",
          "type": "string"
        },
        {
          "internalType": "uint256",
          "name": "_goalAmount",
          "type": "uint256"
        },
        {
          "internalType": "uint256",
          "name": "_durationDays",
          "type": "uint256"
        },
        {
          "internalType": "string",
          "name": "_dbUuid",
          "type": "string"
        }
      ],
      "name": "createCampaign",
      "outputs": [
        {
          "internalType": "bytes32",
          "name": "",
          "type": "bytes32"
        }
      ],
      "stateMutability": "nonpayable",
      "type": "function"
    },
    {
      "inputs": [
        {
          "internalType": "string",
          "name": "_dbUuid",
          "type": "string"
        }
      ],
      "name": "donate",
      "outputs": [],
      "stateMutability": "payable",
      "type": "function"
    },
    {
      "inputs": [
        {
          "internalType": "bytes32",
          "name": "",
          "type": "bytes32"
        },
        {
          "internalType": "address",
          "name": "",
          "type": "address"
        }
      ],
      "name": "donations",
      "outputs": [
        {
          "internalType": "uint256",
          "name": "amount",
          "type": "uint256"
        },
        {
          "internalType": "uint256",
          "name": "timestamp",
          "type": "uint256"
        },
        {
          "internalType": "bool",
          "name": "refunded",
          "type": "bool"
        }
      ],
      "stateMutability": "view",
      "type": "function"
    },
    {
      "inputs": [
        {
          "internalType": "string",
          "name": "_dbUuid",
          "type": "string"
        },
        {
          "internalType": "string",
          "name": "_newTitle",
          "type": "string"
        },
        {
          "internalType": "string",
          "name": "_newDescription",
          "type": "string"
        }
      ],
      "name": "editCampaign",
      "outputs": [],
      "stateMutability": "nonpayable",
      "type": "function"
    },
    {
      "inputs": [
        {
          "internalType": "string",
          "name": "_dbUuid",
          "type": "string"
        }
      ],
      "name": "finalizeCampaign",
      "outputs": [],
      "stateMutability": "nonpayable",
      "type": "function"
    },
    {
      "inputs": [
        {
          "internalType": "string",
          "name": "_dbUuid",
          "type": "string"
        }
      ],
      "name": "getCampaign",
      "outputs": [
        {
          "internalType": "address",
          "name": "beneficiary",
          "type": "address"
        },
        {
          "internalType": "string",
          "name": "title",
          "type": "string"
        },
        {
          "internalType": "string",
          "name": "description",
          "type": "string"
        },
        {
          "internalType": "uint256",
          "name": "goalAmount",
          "type": "uint256"
        },
        {
          "internalType": "uint256",
          "name": "deadline",
          "type": "uint256"
        },
        {
          "internalType": "uint256",
          "name": "totalRaised",
          "type": "uint256"
        },
        {
          "internalType": "bool",
          "name": "finalized",
          "type": "bool"
        },
        {
          "internalType": "bool",
          "name": "refundEnabled",
          "type": "bool"
        },
        {
          "internalType": "address",
          "name": "creator",
          "type": "address"
        },
        {
          "internalType": "string",
          "name": "dbUuid",
          "type": "string"
        },
        {
          "internalType": "bool",
          "name": "paused",
          "type": "bool"
        },
        {
          "internalType": "bool",
          "name": "cancelled",
          "type": "bool"
        },
        {
          "internalType": "uint256",
          "name": "createdAt",
          "type": "uint256"
        }
      ],
      "stateMutability": "view",
      "type": "function"
    },
    {
      "inputs": [
        {
          "internalType": "bytes32",
          "name": "_uuidKey",
          "type": "bytes32"
        }
      ],
      "name": "getCampaignByKey",
      "outputs": [
        {
          "internalType": "address",
          "name": "beneficiary",
          "type": "address"
        },
        {
          "internalType": "string",
          "name": "title",
          "type": "string"
        },
        {
          "internalType": "string",
          "name": "description",
          "type": "string"
        },
        {
          "internalType": "uint256",
          "name": "goalAmount",
          "type": "uint256"
        },
        {
          "internalType": "uint256",
          "name": "deadline",
          "type": "uint256"
        },
        {
          "internalType": "uint256",
          "name": "totalRaised",
          "type": "uint256"
        },
        {
          "internalType": "bool",
          "name": "finalized",
          "type": "bool"
        },
        {
          "internalType": "bool",
          "name": "refundEnabled",
          "type": "bool"
        },
        {
          "internalType": "address",
          "name": "creator",
          "type": "address"
        },
        {
          "internalType": "string",
          "name": "dbUuid",
          "type": "string"
        },
        {
          "internalType": "bool",
          "name": "paused",
          "type": "bool"
        },
        {
          "internalType": "bool",
          "name": "cancelled",
          "type": "bool"
        },
        {
          "internalType": "uint256",
          "name": "createdAt",
          "type": "uint256"
        }
      ],
      "stateMutability": "view",
      "type": "function"
    },
    {
      "inputs": [],
      "name": "getCampaignCount",
      "outputs": [
        {
          "internalType": "uint256",
          "name": "",
          "type": "uint256"
        }
      ],
      "stateMutability": "view",
      "type": "function"
    },
    {
      "inputs": [
        {
          "internalType": "string",
          "name": "_dbUuid",
          "type": "string"
        },
        {
          "internalType": "address",
          "name": "_donor",
          "type": "address"
        }
      ],
      "name": "getContribution",
      "outputs": [
        {
          "internalType": "uint256",
          "name": "",
          "type": "uint256"
        }
      ],
      "stateMutability": "view",
      "type": "function"
    },
    {
      "inputs": [
        {
          "internalType": "string",
          "name": "_dbUuid",
          "type": "string"
        },
        {
          "internalType": "uint256",
          "name": "_limit",
          "type": "uint256"
        }
      ],
      "name": "getTopDonors",
      "outputs": [
        {
          "internalType": "address[]",
          "name": "donors",
          "type": "address[]"
        },
        {
          "internalType": "uint256[]",
          "name": "amounts",
          "type": "uint256[]"
        }
      ],
      "stateMutability": "view",
      "type": "function"
    },
    {
      "inputs": [
        {
          "internalType": "address",
          "name": "_creator",
          "type": "address"
        }
      ],
      "name": "getUserCampaigns",
      "outputs": [
        {
          "internalType": "bytes32[]",
          "name": "",
          "type": "bytes32[]"
        }
      ],
      "stateMutability": "view",
      "type": "function"
    },
    {
      "inputs": [],
      "name": "owner",
      "outputs": [
        {
          "internalType": "address",
          "name": "",
          "type": "address"
        }
      ],
      "stateMutability": "view",
      "type": "function"
    },
    {
      "inputs": [
        {
          "internalType": "string",
          "name": "_dbUuid",
          "type": "string"
        }
      ],
      "name": "pauseCampaign",
      "outputs": [],
      "stateMutability": "nonpayable",
      "type": "function"
    },
    {
      "inputs": [],
      "name": "renounceOwnership",
      "outputs": [],
      "stateMutability": "nonpayable",
      "type": "function"
    },
    {
      "inputs": [
        {
          "internalType": "address",
          "name": "newOwner",
          "type": "address"
        }
      ],
      "name": "transferOwnership",
      "outputs": [],
      "stateMutability": "nonpayable",
      "type": "function"
    },
    {
      "inputs": [
        {
          "internalType": "string",
          "name": "_dbUuid",
          "type": "string"
        }
      ],
      "name": "unpauseCampaign",
      "outputs": [],
      "stateMutability": "nonpayable",
      "type": "function"
    },
    {
      "inputs": [
        {
          "internalType": "address",
          "name": "",
          "type": "address"
        },
        {
          "internalType": "uint256",
          "name": "",
          "type": "uint256"
        }
      ],
      "name": "userCampaigns",
      "outputs": [
        {
          "internalType": "bytes32",
          "name": "",
          "type": "bytes32"
        }
      ],
      "stateMutability": "view",
      "type": "function"
    },
    {
      "inputs": [
        {
          "internalType": "bytes32",
          "name": "",
          "type": "bytes32"
        }
      ],
      "name": "uuidExists",
      "outputs": [
        {
          "internalType": "bool",
          "name": "",
          "type": "bool"
        }
      ],
      "stateMutability": "view",
      "type": "function"
    }
  ],
  "bytecode": "0x6080806040523461007e5733156100685760008054336001600160a01b03198216811783556040519290916001600160a01b0316907f8be0079c531659141344cd1fd0a4f28419497f9722a3daafe3b4186f6b6457e09080a360018055612b6990816100848239f35b631e4fbdf760e01b815260006004820152602490fd5b600080fdfe6080604052600436101561001257600080fd5b60003560e01c806304aa2a5e146120b4578063089b5c7914611edd5780631866900514611eac57806319ac74bd14611e545780631ac44b9514611e0c5780632c7a351e14611d3957806331e7178f14611c755780634e8b87fe14611aa957806352bf36ec14611a5c5780635471b709146119f85780636caa9218146119da578063715018a614611981578063827039b614611836578063842b56b11461183b5780638aea3dc9146118365780638c7bc838146118175780638da5cb5b146117ee5780639943e3a114610ea35780639d015b8214610e515780639f18e80f14610dca578063a1e5084c14610d16578063b5aebc8014610a1b578063bbfca02f14610637578063c8d6f3c714610615578063db26aea3146105c4578063e35d66a814610322578063f2fde38b146102945763fb11e6fb1461015057600080fd5b3461028f57602036600319011261028f576004356001600160401b03811161028f576101836101909136906004016123af565b61018b61252f565b6126a1565b8060005260086020526101aa60ff604060002054166125e6565b8060005260026020526040600020600881019081549060ff821661024a576006015460ff166102055760ff1916600117905533907f8bc7fcb9a2cc7afe102fa0230bb8392b80df26a4989b3c004ecabd48da2c4221600080a3005b60405162461bcd60e51b815260206004820152601f60248201527f43616e6e6f742070617573652066696e616c697a65642063616d706169676e006044820152606490fd5b60405162461bcd60e51b815260206004820152601760248201527f43616d706169676e20616c7265616479207061757365640000000000000000006044820152606490fd5b600080fd5b3461028f57602036600319011261028f576102ad6123f6565b6102b561252f565b6001600160a01b0390811690811561030957600054826bffffffffffffffffffffffff60a01b821617600055167f8be0079c531659141344cd1fd0a4f28419497f9722a3daafe3b4186f6b6457e0600080a3005b604051631e4fbdf760e01b815260006004820152602490fd5b3461028f5760208060031936011261028f576004356001600160401b03811161028f576103539036906004016123af565b61035c816126a1565b60005260028252604060002090604051906103768261233c565b82546001600160a01b0390811683529061039260018501612746565b858401526103a260028501612746565b60408401526003840154606084015260048401546080840152600584015460a08401526006840154918060ff93848116151560c08701526008958582881c16151560e0820152610180600961010099858b85019560101c16855261040860078201612746565b610120850152888a82015481811615156101408701528b1c1615156101608501520154910152511633149081156105b6575b501561055b5761044c9061018b61267e565b928360005282855261046482604060002054166125e6565b836000526002855260406000209260068401928354908082166105185782860190815480941c166104d35761ff001992831684179055161790556005015460405190815233927fded09415775e9b5b6ee4b0de2b2ea3b607b8851e16cf30af8fb0cfe8e1feba9c91a360018055005b60405162461bcd60e51b815260048101899052601a60248201527f43616d706169676e20616c72656164792063616e63656c6c65640000000000006044820152606490fd5b6064886040519062461bcd60e51b825280600483015260248201527f43616e6e6f742063616e63656c2066696e616c697a65642063616d706169676e6044820152fd5b60405162461bcd60e51b815260048101869052602d60248201527f4f6e6c792063726561746f72206f72206f776e65722063616e20706572666f7260448201526c36903a3434b99030b1ba34b7b760991b6064820152608490fd5b90506000541633148661043a565b3461028f57602036600319011261028f5760043560075481101561028f5760209060076000527fa66cc928b5edb82af9bd49922954155ab7b0942694bea4ce44661d9a8736c6880154604051908152f35b3461028f57600036600319011261028f576020604051662386f26fc100008152f35b3461028f57606036600319011261028f576001600160401b0360043581811161028f576106689036906004016123af565b9060243581811161028f576106819036906004016123af565b9060443581811161028f5761069d6106a39136906004016123af565b936126a1565b9283600052602091600883526106c060ff604060002054166125e6565b8460005260028352604060002090600682015460018060a01b038160101c1633036109d65760ff16610991576106f88551151561255b565b6001808301928651938385116108c35761071281546125ac565b94601f9586811161094b575b50878682116001146108e457908060029493926000916108d9575b50600019600383901b1c191690851b1790555b019284519283116108c35761076184546125ac565b81811161087d575b50859083116001146107ef579282806107d297947fc42a284e79e01831af7d84ca4b25c111f34c763ca23a1ed05d3c8868a58d4f169997946107df976000936107e4575b501b916000199060031b1c19161790555b60405194859460408652604086019061245d565b918483039085015261245d565b0390a2005b86015192508c6107ad565b601f9291921982169084600052866000209160005b8181106108685750926107df95926107d2989592827fc42a284e79e01831af7d84ca4b25c111f34c763ca23a1ed05d3c8868a58d4f169b99961061084f575b5050811b0190556107be565b85015160001960f88460031b161c191690558a80610843565b87830151845592850192918801918801610804565b84600052866000208280860160051c8201928987106108ba575b0160051c019083905b8281106108ae575050610769565b600081550183906108a0565b92508192610897565b634e487b7160e01b600052604160045260246000fd5b90508a01518c610739565b6000838152898120601f198416959493879390928c8e5b89831061093457505050826002971061091b575b5050811b01905561074c565b8c015160001960f88460031b161c191690558c8061090f565b830151845589959093019291820191018c8e6108fb565b82600052886000208780840160051c8201928b8510610988575b0160051c019085905b82811061097c57505061071e565b6000815501859061096e565b92508192610965565b60405162461bcd60e51b815260048101859052601e60248201527f43616e6e6f7420656469742066696e616c697a65642063616d706169676e00006044820152606490fd5b60405162461bcd60e51b815260048101869052601e60248201527f4f6e6c792063616d706169676e2063726561746f722063616e206564697400006044820152606490fd5b60208060031936011261028f576001600160401b0360043581811161028f57610a4b610a539136906004016123af565b61018b61267e565b908160005260088352610a6d60ff604060002054166125e6565b81600052600283526040600020610a8b60ff60068301541615612632565b600881015460ff8116610cdc5760081c60ff16610c97576004810154421015610c52573415610c0d578260005260038452604060002033600052845260406000205415610bc2575b82600052600484526040600020336000528452610af53460406000205461259f565b916040516060810191818310908311176108c357600593610b5e92604052815260028682014281526040830190600082528760005260048952604060002033600052895260406000209351845551600184015551151591019060ff801983541691151516179055565b826000526003845260406000203360005284526040600020610b8134825461259f565b905501610b8f34825461259f565b90557f3c0eff4f142cbce74bccfc168392c83a24f470999e24cef8ae1558fb729effa8604051923484523393a360018055005b826000526006845260406000208054600160401b8110156108c357610bec91600182018155612422565b81546001600160a01b0360039290921b91821b19163390911b179055610ad3565b60405162461bcd60e51b815260048101859052601f60248201527f446f6e6174696f6e206d7573742062652067726561746572207468616e2030006044820152606490fd5b60405162461bcd60e51b815260048101859052601860248201527f43616d706169676e20646561646c696e652070617373656400000000000000006044820152606490fd5b60405162461bcd60e51b815260048101859052601b60248201527f43616d706169676e20686173206265656e2063616e63656c6c656400000000006044820152606490fd5b60405162461bcd60e51b815260048101869052601260248201527110d85b5c185a59db881a5cc81c185d5cd95960721b6044820152606490fd5b3461028f5760208060031936011261028f576001600160a01b03610d386123f6565b1660005260058152604060002060405190818382549182815201908192600052846000209060005b86828210610db6578686610d7682880383612373565b604051928392818401908285525180915260408401929160005b828110610d9f57505050500390f35b835185528695509381019392810192600101610d90565b835485529093019260019283019201610d60565b3461028f57604036600319011261028f576004356001600160401b03811161028f57610dfa9036906004016123af565b610e0b610e0561240c565b916126a1565b806000526008602052610e2560ff604060002054166125e6565b600052600360205260406000209060018060a01b03166000526020526020604060002054604051908152f35b3461028f57604036600319011261028f5760243560043560005260066020526040600020805482101561028f57602091610e8a91612422565b905460405160039290921b1c6001600160a01b03168152f35b3461028f5760c036600319011261028f576004356001600160a01b038116810361028f576024356001600160401b03811161028f57610ee69036906004016123af565b60449081356001600160401b03811161028f57610f079036906004016123af565b906084359060a4356001600160401b03811161028f57610f2b9036906004016123af565b916001600160a01b038616156117aa57662386f26fc100006064351061177057801561172c57610f5d8251151561255b565b60c88251116116f7578251156116bb576201518080820291820481036116a5578110611661576301e13380811161161d57610f98904261259f565b926040516020810190610fc36020828751610fb68187858c0161243a565b8101038084520182612373565b5190209485600052600860205260ff604060002054166115e5575060405190610feb8261233c565b60018060a01b038716825282602083015260408201526064356060820152836080820152600060a0820152600060c0820152600060e08201523361010082015282610120820152600061014082015260006101608201524261018082015284600052600260205260406000209060018060a01b038151166bffffffffffffffffffffffff60a01b83541617825560208101518051906001600160401b0382116108c357819061109d60018601546125ac565b601f8111611592575b50602090601f831160011461152057600092611515575b50508160011b916000199060031b1c19161760018301555b60408101518051906001600160401b0382116108c35781906110fa60028601546125ac565b601f81116114c2575b50602090601f831160011461145057600092611445575b50508160011b916000199060031b1c19161760028301555b606081015160038301556080810151600483015560a081015160058301556006820161117060c08301511515829060ff801983541691151516179055565b60e0820151815461ff00191690151560081b61ff0016178155610100820151815462010000600160b01b03191660109190911b62010000600160b01b03161790556101208101518051906001600160401b0382116108c3576111d560078501546125ac565b601f81116113fe575b50602090601f831160011461138a579180600994926101809460009261137f575b50508160011b916000199060031b1c19161760078501555b6112576008850161123b6101408401511515829060ff801983541691151516179055565b610160830151815461ff00191690151560081b61ff0016179055565b01519101553360005260056020526040600020805490600160401b91828110156108c35761128a91600182018155612422565b81549060031b9087821b91600019901b1916179055600754908110156108c357600181018060075581101561136957611336859261135e602098857f7ce78a9f2091c3ae8eb5aa2eb6eecc009740f1284c0c2517ed68e38ef038a040957fa66cc928b5edb82af9bd49922954155ab7b0942694bea4ce44661d9a8736c68801558560005260088a526040600020600160ff1982541617905560405193849360808552608085019061245d565b606435848c0152604084019890985282880360608401526001600160a01b031696339661245d565b0390a4604051908152f35b634e487b7160e01b600052603260045260246000fd5b015190508b806111ff565b90601f198316916007860160005260206000209260005b8181106113e657509260019285926101809660099896106113cd575b505050811b016007850155611217565b015160001960f88460031b161c191690558b80806113bd565b929360206001819287860151815501950193016113a1565b600785016000526020600020601f840160051c81016020851061143e575b601f830160051c820181106114325750506111de565b6000815560010161141c565b508061141c565b01519050898061111a565b9250600285016000526020600020906000935b601f19841685106114a7576001945083601f1981161061148e575b505050811b016002830155611132565b015160001960f88460031b161c1916905589808061147e565b81810151835560209485019460019093019290910190611463565b909150600285016000526020600020601f840160051c81016020851061150e575b90849392915b601f830160051c820181106114ff575050611103565b600081558594506001016114e9565b50806114e3565b0151905089806110bd565b9250600185016000526020600020906000935b601f1984168510611577576001945083601f1981161061155e575b505050811b0160018301556110d5565b015160001960f88460031b161c1916905589808061154e565b81810151835560209485019460019093019290910190611533565b909150600185016000526020600020601f840160051c8101602085106115de575b90849392915b601f830160051c820181106115cf5750506110a6565b600081558594506001016115b9565b50806115b3565b606490701555525108185b1c9958591e481d5cd959607a1b6040519162461bcd60e51b83526020600484015260116024840152820152fd5b60405162461bcd60e51b815260206004820152601a60248201527f43616d706169676e206475726174696f6e20746f6f206c6f6e6700000000000081870152606490fd5b60405162461bcd60e51b815260206004820152601b60248201527f43616d706169676e206475726174696f6e20746f6f2073686f7274000000000081870152606490fd5b634e487b7160e01b600052601160045260246000fd5b60405162461bcd60e51b8152602060048201526015602482015274125b9d985b1a590819185d1858985cd94815555251605a1b81870152606490fd5b60405162461bcd60e51b815260206004820152600e60248201526d5469746c6520746f6f206c6f6e6760901b81870152606490fd5b60405162461bcd60e51b815260206004820152601960248201527f4475726174696f6e206d75737420626520706f7369746976650000000000000081870152606490fd5b60405162461bcd60e51b8152602060048201526013602482015272476f616c20616d6f756e7420746f6f206c6f7760681b81870152606490fd5b60405162461bcd60e51b815260206004820152601b60248201527f496e76616c69642062656e65666963696172792061646472657373000000000081870152606490fd5b3461028f57600036600319011261028f576000546040516001600160a01b039091168152602090f35b3461028f57600036600319011261028f5760206040516301e133808152f35b612511565b3461028f57602036600319011261028f5760043580600052600860205261186960ff604060002054166125e6565b60005260026020526040600020604051906118838261233c565b80546001600160a01b0390811683529161197d9061016060ff6101206118ab60018701612746565b95602085019687526118bf60028201612746565b9760408601988952856003830154926060820193845260048101546080830190815260058201549060a0840191825260068301549480600960c08701958b8916151587528261010060e08a01998e8c60081c1615158b52019960101c1689528d61192b60078301612746565b9b8c9101528d8c60088301549d8e1615159d8e61014084015260081c1615159d8e91015201549b8c61018082015251169c519d519651915192519351151594511515955116956040519d8e9d8e612482565b0390f35b3461028f57600036600319011261028f5761199a61252f565b600080546001600160a01b0319811682556001600160a01b03167f8be0079c531659141344cd1fd0a4f28419497f9722a3daafe3b4186f6b6457e08280a3005b3461028f57600036600319011261028f576020600754604051908152f35b3461028f57604036600319011261028f57611a1161240c565b600435600052600460205260406000209060018060a01b03166000526020526060604060002080549060ff600260018301549201541690604051928352602083015215156040820152f35b3461028f57602036600319011261028f576004356001600160401b03811161028f5761018b611a8f9136906004016123af565b80600052600860205261186960ff604060002054166125e6565b3461028f5760208060031936011261028f576004356001600160401b03811161028f57610a4b611add9136906004016123af565b8060005260088252611af660ff604060002054166125e6565b806000526002825260066040600020015460ff811615611c375760081c60ff1615611be45780600052600382526040600020336000528252604060002054918215611ba0577ff8590cd6b8c44be7a2bc57131f10e203ec5f7d7f2f761e1508a8cc964ecb9eb7908260005260038152604060002033600052815260006040812055611b91600080808088335af1611b8b6126d1565b50612701565b6040519384523393a360018055005b6064906040519062461bcd60e51b82526004820152601960248201527f4e6f20636f6e747269627574696f6e20746f20726566756e64000000000000006044820152fd5b60405162461bcd60e51b815260048101839052602560248201527f526566756e6473206e6f7420656e61626c656420666f7220746869732063616d6044820152643830b4b3b760d91b6064820152608490fd5b60405162461bcd60e51b815260048101849052601660248201527510d85b5c185a59db881b9bdd08199a5b985b1a5e995960521b6044820152606490fd5b3461028f57604036600319011261028f576004356001600160401b03811161028f57611ca8611cb19136906004016123af565b60243590612858565b9060405191829160408301604084528151809152606084019060208093019060005b818110611d19575050508381038285015281808451928381520193019160005b828110611d0257505050500390f35b835185528695509381019392810192600101611cf3565b82516001600160a01b031684528796509284019291840191600101611cd3565b3461028f57602036600319011261028f576004356001600160401b03811161028f57610183611d6c9136906004016123af565b806000526008602052611d8660ff604060002054166125e6565b8060005260026020526008604060002001805460ff811615611dd15760ff1916905533907fafba8cf9fd271db177c9f9a77086bfadaa8f66aaf9acb5296529f201eaf12379600080a3005b60405162461bcd60e51b815260206004820152601360248201527210d85b5c185a59db881b9bdd081c185d5cd959606a1b6044820152606490fd5b3461028f57604036600319011261028f57611e2561240c565b600435600052600360205260406000209060018060a01b03166000526020526020604060002054604051908152f35b3461028f57604036600319011261028f57611e6d6123f6565b6001600160a01b031660009081526005602052604090208054602435919082101561028f57602091611e9e91612422565b90546040519160031b1c8152f35b3461028f57602036600319011261028f576004356000526008602052602060ff604060002054166040519015158152f35b3461028f5760208060031936011261028f576004356001600160401b03811161028f57610a4b611f119136906004016123af565b8060005260088252611f2a60ff604060002054166125e6565b8060005260028252604060002091600481526040600020336000528152604060002092611f5e60ff60068301541615612632565b835493841561207b57600281019081549060ff821661203657600101546201518081018091116116a5574211611ffa579160059160017fbaf3fcfeec676539460af9d422aa4c07039e500a9aafc95c49f1caaa2642b84a959460ff1916179055846000526003835260406000203360005283526000604081205501611fe48582546126c4565b9055611b91600080808088335af1611b8b6126d1565b60405162461bcd60e51b815260048101859052601460248201527311dc9858d9481c195c9a5bd908195e1c1a5c995960621b6044820152606490fd5b60405162461bcd60e51b815260048101869052601960248201527f446f6e6174696f6e20616c726561647920726566756e646564000000000000006044820152606490fd5b60405162461bcd60e51b8152600481018490526011602482015270139bc8191bdb985d1a5bdb88199bdd5b99607a1b6044820152606490fd5b3461028f5760208060031936011261028f576004356001600160401b03811161028f57610a4b6120e89136906004016123af565b90816000526008815261210260ff604060002054166125e6565b816000526002815260406000206006810180549161212360ff841615612632565b6001600160a01b039033601085901c831614801561232f575b156122df57600581019283549460038301548610801596600485015442108015906122d8575b1561227c5760ff19831660011784558780612273575b1561221a57505050506000808093819354168554905af16121976126d1565b50156121d557916040917fe1a5aef8aa244fc02b71a4ebca9b2cf92f90500087a080d530a6d09eb457033d935b54918351928352820152a260018055005b60405162461bcd60e51b815260048101849052601e60248201527f5472616e7366657220746f2062656e6566696369617279206661696c656400006044820152606490fd5b60409795507fe1a5aef8aa244fc02b71a4ebca9b2cf92f90500087a080d530a6d09eb457033d9896945081612269575b50612257575b50506121c4565b61ffff19166101011790558680612250565b905015158961224a565b50801515612178565b60405162461bcd60e51b8152600481018a9052602e60248201527f43616d706169676e20646561646c696e65206e6f74207265616368656420616e60448201526d190819dbd85b081b9bdd081b595d60921b6064820152608490fd5b5087612162565b60405162461bcd60e51b815260048101869052602260248201527f4f6e6c792063726561746f72206f72206f776e65722063616e2066696e616c696044820152617a6560f01b6064820152608490fd5b508160005416331461213c565b6101a081019081106001600160401b038211176108c357604052565b602081019081106001600160401b038211176108c357604052565b90601f801991011681019081106001600160401b038211176108c357604052565b6001600160401b0381116108c357601f01601f191660200190565b81601f8201121561028f578035906123c682612394565b926123d46040519485612373565b8284526020838301011161028f57816000926020809301838601378301015290565b600435906001600160a01b038216820361028f57565b602435906001600160a01b038216820361028f57565b80548210156113695760005260206000200190600090565b60005b83811061244d5750506000910152565b818101518382015260200161243d565b906020916124768151809281855285808601910161243a565b601f01601f1916010190565b999590946124c96101809c9f9e9d9a959893946124bb6124fc9b968e60018060a01b03809b1681526101a090816020820152019061245d565b8d810360408f01529061245d565b9760608c015260808b015260a08a0152151560c0890152151560e08801521661010086015284820361012086015261245d565b95151561014083015215156101608201520152565b3461028f57600036600319011261028f576020604051620151808152f35b6000546001600160a01b0316330361254357565b60405163118cdaa760e01b8152336004820152602490fd5b1561256257565b60405162461bcd60e51b81526020600482015260156024820152745469746c652063616e6e6f7420626520656d70747960581b6044820152606490fd5b919082018092116116a557565b90600182811c921680156125dc575b60208310146125c657565b634e487b7160e01b600052602260045260246000fd5b91607f16916125bb565b156125ed57565b60405162461bcd60e51b815260206004820152601760248201527f43616d706169676e20646f6573206e6f742065786973740000000000000000006044820152606490fd5b1561263957565b60405162461bcd60e51b815260206004820152601a60248201527f43616d706169676e20616c72656164792066696e616c697a65640000000000006044820152606490fd5b60026001541461268f576002600155565b604051633ee5aeb560e01b8152600490fd5b6040516126be60208281610fb6818301968781519384920161243a565b51902090565b919082039182116116a557565b3d156126fc573d906126e282612394565b916126f06040519384612373565b82523d6000602084013e565b606090565b1561270857565b60405162461bcd60e51b81526020600482015260166024820152751499599d5b99081d1c985b9cd9995c8819985a5b195960521b6044820152606490fd5b906040519182600082549261275a846125ac565b9081845260019485811690816000146127c95750600114612786575b505061278492500383612373565b565b9093915060005260209081600020936000915b8183106127b157505061278493508201013880612776565b85548884018501529485019487945091830191612799565b91505061278494506020925060ff191682840152151560051b8201013880612776565b6001600160401b0381116108c35760051b60200190565b9061280d826127ec565b61281a6040519182612373565b828152809261282b601f19916127ec565b0190602036910137565b60001981146116a55760010190565b80518210156113695760209160051b010190565b612861906126a1565b60009281845260209060088252604061287f60ff82882054166125e6565b838652600683528086209381518086868298549384815201908a52868a20928a5b88828210612b14575050506128b792500386612373565b8451958615612ae95780871015612ae3575085915b6128d587612803565b956128df88612803565b95895b898110612a915750505050508591600019918287019187831191825b612a7d5783861015612a0e57895b612916878b6126c4565b8681019081116129fa578110156129e0576129318189612844565b5160018201908183116129cc579061295b929161294e828c612844565b5111612960575b50612835565b61290c565b61296a828b612844565b51612975828c612844565b51612980848d612844565b5261298b828c612844565b526001600160a01b03906129c5908c6129be85856129a98285612844565b5116956129b68585612844565b511692612844565b528c612844565b5238612955565b634e487b7160e01b8d52601160045260248dfd5b5091946129ef90939193612835565b9491829391936128fe565b634e487b7160e01b8c52601160045260248cfd5b9594509650505050612a1f82612803565b92612a2983612803565b955b838110612a3a57505050509190565b612a78906001600160a01b03612a508285612844565b5116612a5c8288612844565b52612a678185612844565b51612a72828a612844565b52612835565b612a2b565b634e487b7160e01b8a52601160045260248afd5b612ade906001600160a01b0380612aa88387612844565b5116612ab4838d612844565b52868d5260038452858d2090612aca8387612844565b51168d528352848c2054612a72828b612844565b6128e2565b916128cc565b50509250925050805190612afc82612358565b8382525192612b0a84612358565b8084523681379190565b85546001600160a01b031684526001958601958b9550930192016128a056fea2646970667358221220c9dd2c86f6a9a5b99fa8e23e3eaba283a8d974f84d3cc9f676f257ea85d6365d64736f6c63430008140033",
  "linkReferences": {},
  "deployedLinkReferences": {}
}