{
  "_format": "hh-sol-artifact-1",
  "contractName": "CharityCampaignFactory",
  "sourceName": "contracts/CharityCampaignFactory.sol",
  "abi": [
    {
      "inputs": [],
      "stateMutability": "nonpayable",
      "type": "constructor"
    },
    {
      "inputs": [
        {
          "internalType": "address",
          "name": "owner",
          "type": "address"
        }
      ],
      "name": "OwnableInvalidOwner",
      "type": "error"
    },
    {
      "inputs": [
        {
          "internalType": "address",
          "name": "account",
          "type": "address"
        }
      ],
      "name": "OwnableUnauthorizedAccount",
      "type": "error"
    },
    {
      "inputs": [],
      "name": "ReentrancyGuardReentrantCall",
      "type": "error"
    },
    {
      "anonymous": false,
      "inputs": [
        {
          "indexed": true,
          "internalType": "uint256",
          "name": "campaignId",
          "type": "uint256"
        },
        {
          "indexed": true,
          "internalType": "address",
          "name": "creator",
          "type": "address"
        },
        {
          "indexed": true,
          "internalType": "address",
          "name": "beneficiary",
          "type": "address"
        },
        {
          "indexed": false,
          "internalType": "string",
          "name": "title",
          "type": "string"
        },
        {
          "indexed": false,
          "internalType": "uint256",
          "name": "goalAmount",
          "type": "uint256"
        },
        {
          "indexed": false,
          "internalType": "uint256",
          "name": "deadline",
          "type": "uint256"
        },
        {
          "indexed": false,
          "internalType": "uint256",
          "name": "dbId",
          "type": "uint256"
        }
      ],
      "name": "CampaignCreated",
      "type": "event"
    },
    {
      "anonymous": false,
      "inputs": [
        {
          "indexed": true,
          "internalType": "uint256",
          "name": "campaignId",
          "type": "uint256"
        },
        {
          "indexed": false,
          "internalType": "string",
          "name": "newTitle",
          "type": "string"
        },
        {
          "indexed": false,
          "internalType": "string",
          "name": "newDescription",
          "type": "string"
        }
      ],
      "name": "CampaignEdited",
      "type": "event"
    },
    {
      "anonymous": false,
      "inputs": [
        {
          "indexed": true,
          "internalType": "uint256",
          "name": "campaignId",
          "type": "uint256"
        },
        {
          "indexed": false,
          "internalType": "uint256",
          "name": "totalRaised",
          "type": "uint256"
        },
        {
          "indexed": false,
          "internalType": "bool",
          "name": "goalReached",
          "type": "bool"
        }
      ],
      "name": "CampaignFinalized",
      "type": "event"
    },
    {
      "anonymous": false,
      "inputs": [
        {
          "indexed": true,
          "internalType": "uint256",
          "name": "campaignId",
          "type": "uint256"
        },
        {
          "indexed": true,
          "internalType": "address",
          "name": "donor",
          "type": "address"
        },
        {
          "indexed": false,
          "internalType": "uint256",
          "name": "amount",
          "type": "uint256"
        }
      ],
      "name": "DonationReceived",
      "type": "event"
    },
    {
      "anonymous": false,
      "inputs": [
        {
          "indexed": true,
          "internalType": "address",
          "name": "previousOwner",
          "type": "address"
        },
        {
          "indexed": true,
          "internalType": "address",
          "name": "newOwner",
          "type": "address"
        }
      ],
      "name": "OwnershipTransferred",
      "type": "event"
    },
    {
      "anonymous": false,
      "inputs": [
        {
          "indexed": true,
          "internalType": "uint256",
          "name": "campaignId",
          "type": "uint256"
        },
        {
          "indexed": true,
          "internalType": "address",
          "name": "donor",
          "type": "address"
        },
        {
          "indexed": false,
          "internalType": "uint256",
          "name": "amount",
          "type": "uint256"
        }
      ],
      "name": "RefundIssued",
      "type": "event"
    },
    {
      "inputs": [
        {
          "internalType": "uint256",
          "name": "",
          "type": "uint256"
        },
        {
          "internalType": "uint256",
          "name": "",
          "type": "uint256"
        }
      ],
      "name": "campaignDonors",
      "outputs": [
        {
          "internalType": "address",
          "name": "",
          "type": "address"
        }
      ],
      "stateMutability": "view",
      "type": "function"
    },
    {
      "inputs": [
        {
          "internalType": "uint256",
          "name": "",
          "type": "uint256"
        }
      ],
      "name": "campaigns",
      "outputs": [
        {
          "internalType": "address payable",
          "name": "beneficiary",
          "type": "address"
        },
        {
          "internalType": "string",
          "name": "title",
          "type": "string"
        },
        {
          "internalType": "string",
          "name": "description",
          "type": "string"
        },
        {
          "internalType": "uint256",
          "name": "goalAmount",
          "type": "uint256"
        },
        {
          "internalType": "uint256",
          "name": "deadline",
          "type": "uint256"
        },
        {
          "internalType": "uint256",
          "name": "totalRaised",
          "type": "uint256"
        },
        {
          "internalType": "bool",
          "name": "finalized",
          "type": "bool"
        },
        {
          "internalType": "bool",
          "name": "refundEnabled",
          "type": "bool"
        },
        {
          "internalType": "address",
          "name": "creator",
          "type": "address"
        },
        {
          "internalType": "uint256",
          "name": "dbId",
          "type": "uint256"
        }
      ],
      "stateMutability": "view",
      "type": "function"
    },
    {
      "inputs": [
        {
          "internalType": "uint256",
          "name": "_campaignId",
          "type": "uint256"
        }
      ],
      "name": "claimRefund",
      "outputs": [],
      "stateMutability": "nonpayable",
      "type": "function"
    },
    {
      "inputs": [
        {
          "internalType": "uint256",
          "name": "",
          "type": "uint256"
        },
        {
          "internalType": "address",
          "name": "",
          "type": "address"
        }
      ],
      "name": "contributions",
      "outputs": [
        {
          "internalType": "uint256",
          "name": "",
          "type": "uint256"
        }
      ],
      "stateMutability": "view",
      "type": "function"
    },
    {
      "inputs": [
        {
          "internalType": "address payable",
          "name": "_beneficiary",
          "type": "address"
        },
        {
          "internalType": "string",
          "name": "_title",
          "type": "string"
        },
        {
          "internalType": "string",
          "name": "_description",
          "type": "string"
        },
        {
          "internalType": "uint256",
          "name": "_goalAmount",
          "type": "uint256"
        },
        {
          "internalType": "uint256",
          "name": "_durationDays",
          "type": "uint256"
        },
        {
          "internalType": "uint256",
          "name": "_dbId",
          "type": "uint256"
        }
      ],
      "name": "createCampaign",
      "outputs": [
        {
          "internalType": "uint256",
          "name": "",
          "type": "uint256"
        }
      ],
      "stateMutability": "nonpayable",
      "type": "function"
    },
    {
      "inputs": [
        {
          "internalType": "uint256",
          "name": "_campaignId",
          "type": "uint256"
        }
      ],
      "name": "donate",
      "outputs": [],
      "stateMutability": "payable",
      "type": "function"
    },
    {
      "inputs": [
        {
          "internalType": "uint256",
          "name": "_campaignId",
          "type": "uint256"
        },
        {
          "internalType": "string",
          "name": "_newTitle",
          "type": "string"
        },
        {
          "internalType": "string",
          "name": "_newDescription",
          "type": "string"
        }
      ],
      "name": "editCampaign",
      "outputs": [],
      "stateMutability": "nonpayable",
      "type": "function"
    },
    {
      "inputs": [
        {
          "internalType": "uint256",
          "name": "_campaignId",
          "type": "uint256"
        }
      ],
      "name": "finalizeCampaign",
      "outputs": [],
      "stateMutability": "nonpayable",
      "type": "function"
    },
    {
      "inputs": [
        {
          "internalType": "uint256",
          "name": "_campaignId",
          "type": "uint256"
        }
      ],
      "name": "getCampaign",
      "outputs": [
        {
          "internalType": "address",
          "name": "beneficiary",
          "type": "address"
        },
        {
          "internalType": "string",
          "name": "title",
          "type": "string"
        },
        {
          "internalType": "string",
          "name": "description",
          "type": "string"
        },
        {
          "internalType": "uint256",
          "name": "goalAmount",
          "type": "uint256"
        },
        {
          "internalType": "uint256",
          "name": "deadline",
          "type": "uint256"
        },
        {
          "internalType": "uint256",
          "name": "totalRaised",
          "type": "uint256"
        },
        {
          "internalType": "bool",
          "name": "finalized",
          "type": "bool"
        },
        {
          "internalType": "bool",
          "name": "refundEnabled",
          "type": "bool"
        },
        {
          "internalType": "address",
          "name": "creator",
          "type": "address"
        },
        {
          "internalType": "uint256",
          "name": "dbId",
          "type": "uint256"
        }
      ],
      "stateMutability": "view",
      "type": "function"
    },
    {
      "inputs": [],
      "name": "getCampaignCount",
      "outputs": [
        {
          "internalType": "uint256",
          "name": "",
          "type": "uint256"
        }
      ],
      "stateMutability": "view",
      "type": "function"
    },
    {
      "inputs": [
        {
          "internalType": "uint256",
          "name": "_campaignId",
          "type": "uint256"
        },
        {
          "internalType": "address",
          "name": "_donor",
          "type": "address"
        }
      ],
      "name": "getContribution",
      "outputs": [
        {
          "internalType": "uint256",
          "name": "",
          "type": "uint256"
        }
      ],
      "stateMutability": "view",
      "type": "function"
    },
    {
      "inputs": [
        {
          "internalType": "uint256",
          "name": "_campaignId",
          "type": "uint256"
        },
        {
          "internalType": "uint256",
          "name": "_limit",
          "type": "uint256"
        }
      ],
      "name": "getTopDonors",
      "outputs": [
        {
          "internalType": "address[]",
          "name": "donors",
          "type": "address[]"
        },
        {
          "internalType": "uint256[]",
          "name": "amounts",
          "type": "uint256[]"
        }
      ],
      "stateMutability": "view",
      "type": "function"
    },
    {
      "inputs": [
        {
          "internalType": "address",
          "name": "_creator",
          "type": "address"
        }
      ],
      "name": "getUserCampaigns",
      "outputs": [
        {
          "internalType": "uint256[]",
          "name": "",
          "type": "uint256[]"
        }
      ],
      "stateMutability": "view",
      "type": "function"
    },
    {
      "inputs": [],
      "name": "owner",
      "outputs": [
        {
          "internalType": "address",
          "name": "",
          "type": "address"
        }
      ],
      "stateMutability": "view",
      "type": "function"
    },
    {
      "inputs": [],
      "name": "renounceOwnership",
      "outputs": [],
      "stateMutability": "nonpayable",
      "type": "function"
    },
    {
      "inputs": [
        {
          "internalType": "address",
          "name": "newOwner",
          "type": "address"
        }
      ],
      "name": "transferOwnership",
      "outputs": [],
      "stateMutability": "nonpayable",
      "type": "function"
    },
    {
      "inputs": [
        {
          "internalType": "address",
          "name": "",
          "type": "address"
        },
        {
          "internalType": "uint256",
          "name": "",
          "type": "uint256"
        }
      ],
      "name": "userCampaigns",
      "outputs": [
        {
          "internalType": "uint256",
          "name": "",
          "type": "uint256"
        }
      ],
      "stateMutability": "view",
      "type": "function"
    }
  ],
  "bytecode": "0x608060405234801561001057600080fd5b50338061003757604051631e4fbdf760e01b81526000600482015260240160405180910390fd5b6100408161004a565b506001805561009a565b600080546001600160a01b038381166001600160a01b0319831681178455604051919092169283917f8be0079c531659141344cd1fd0a4f28419497f9722a3daafe3b4186f6b6457e09190a35050565b6123ea806100a96000396000f3fe6080604052600436106100fe5760003560e01c8063715018a611610095578063ab2d05da11610064578063ab2d05da146102d3578063e081dbf914610301578063f14faf6f14610321578063f25e1e9314610334578063f2fde38b1461035457600080fd5b8063715018a61461023f5780638da5cb5b14610254578063a1e5084c14610286578063a3012d53146102b357600080fd5b80635b7baf64116100d15780635b7baf64146101c85780636568a2f2146101ea5780636b5ca27d1461020a5780636caa92181461022a57600080fd5b8063141961bc1461010357806319ac74bd146101425780633d891f59146101705780635598f8cc146101a8575b600080fd5b34801561010f57600080fd5b5061012361011e366004611d76565b610374565b6040516101399a99989796959493929190611dd5565b60405180910390f35b34801561014e57600080fd5b5061016261015d366004611e63565b610502565b604051908152602001610139565b34801561017c57600080fd5b5061016261018b366004611e8f565b600360209081526000928352604080842090915290825290205481565b3480156101b457600080fd5b506101236101c3366004611d76565b610533565b3480156101d457600080fd5b506101e86101e3366004611d76565b6107c1565b005b3480156101f657600080fd5b506101e8610205366004611f62565b610a1d565b34801561021657600080fd5b506101e8610225366004611d76565b610bda565b34801561023657600080fd5b50600254610162565b34801561024b57600080fd5b506101e8610ecd565b34801561026057600080fd5b506000546001600160a01b03165b6040516001600160a01b039091168152602001610139565b34801561029257600080fd5b506102a66102a1366004611fcf565b610ee1565b604051610139919061202e565b3480156102bf57600080fd5b506101626102ce366004612041565b610f4d565b3480156102df57600080fd5b506102f36102ee3660046120d3565b6112fc565b6040516101399291906120f5565b34801561030d57600080fd5b5061016261031c366004611e8f565b611842565b6101e861032f366004611d76565b61186c565b34801561034057600080fd5b5061026e61034f3660046120d3565b611c59565b34801561036057600080fd5b506101e861036f366004611fcf565b611c91565b6002818154811061038457600080fd5b6000918252602090912060089091020180546001820180546001600160a01b039092169350906103b390612155565b80601f01602080910402602001604051908101604052809291908181526020018280546103df90612155565b801561042c5780601f106104015761010080835404028352916020019161042c565b820191906000526020600020905b81548152906001019060200180831161040f57829003601f168201915b50505050509080600201805461044190612155565b80601f016020809104026020016040519081016040528092919081815260200182805461046d90612155565b80156104ba5780601f1061048f576101008083540402835291602001916104ba565b820191906000526020600020905b81548152906001019060200180831161049d57829003601f168201915b505050506003830154600484015460058501546006860154600790960154949592949193509160ff808216926101008304909116916201000090046001600160a01b0316908a565b6004602052816000526040600020818154811061051e57600080fd5b90600052602060002001600091509150505481565b600060608060008060008060008060008a60028054905081106105715760405162461bcd60e51b81526004016105689061218f565b60405180910390fd5b600060028d81548110610586576105866121c6565b600091825260209182902060408051610140810190915260089092020180546001600160a01b0316825260018101805492939192918401916105c790612155565b80601f01602080910402602001604051908101604052809291908181526020018280546105f390612155565b80156106405780601f1061061557610100808354040283529160200191610640565b820191906000526020600020905b81548152906001019060200180831161062357829003601f168201915b5050505050815260200160028201805461065990612155565b80601f016020809104026020016040519081016040528092919081815260200182805461068590612155565b80156106d25780601f106106a7576101008083540402835291602001916106d2565b820191906000526020600020905b8154815290600101906020018083116106b557829003601f168201915b505050505081526020016003820154815260200160048201548152602001600582015481526020016006820160009054906101000a900460ff161515151581526020016006820160019054906101000a900460ff161515151581526020016006820160029054906101000a90046001600160a01b03166001600160a01b03166001600160a01b031681526020016007820154815250509050806000015181602001518260400151836060015184608001518560a001518660c001518760e001518861010001518961012001519b509b509b509b509b509b509b509b509b509b5050509193959799509193959799565b600254819081106107e45760405162461bcd60e51b81526004016105689061218f565b6107ec611ccf565b600060028381548110610801576108016121c6565b60009182526020909120600890910201600681015490915060ff166108615760405162461bcd60e51b815260206004820152601660248201527510d85b5c185a59db881b9bdd08199a5b985b1a5e995960521b6044820152606401610568565b6006810154610100900460ff166108c85760405162461bcd60e51b815260206004820152602560248201527f526566756e6473206e6f7420656e61626c656420666f7220746869732063616d6044820152643830b4b3b760d91b6064820152608401610568565b60008381526003602090815260408083203384529091529020548061092f5760405162461bcd60e51b815260206004820152601960248201527f4e6f20636f6e747269627574696f6e20746f20726566756e64000000000000006044820152606401610568565b60008481526003602090815260408083203380855292528083208390555183908381818185875af1925050503d8060008114610987576040519150601f19603f3d011682016040523d82523d6000602084013e61098c565b606091505b50509050806109d65760405162461bcd60e51b81526020600482015260166024820152751499599d5b99081d1c985b9cd9995c8819985a5b195960521b6044820152606401610568565b604051828152339086907f7a482fdeb6bc9a1376f597068a214a7a39472bb2eff1b8cad21ba04f49ddca1b9060200160405180910390a3505050610a1960018055565b5050565b60025483908110610a405760405162461bcd60e51b81526004016105689061218f565b600060028581548110610a5557610a556121c6565b906000526020600020906008020190508060060160029054906101000a90046001600160a01b03166001600160a01b0316336001600160a01b031614610add5760405162461bcd60e51b815260206004820152601e60248201527f4f6e6c792063616d706169676e2063726561746f722063616e206564697400006044820152606401610568565b600681015460ff1615610b325760405162461bcd60e51b815260206004820152601e60248201527f43616e6e6f7420656469742066696e616c697a65642063616d706169676e00006044820152606401610568565b6000845111610b7b5760405162461bcd60e51b81526020600482015260156024820152745469746c652063616e6e6f7420626520656d70747960581b6044820152606401610568565b60018101610b89858261222b565b5060028101610b98848261222b565b50847fb5ee6f58aef80bee66f974df80f0c9c1e3878126cb7e52fcfe243cb07fefdcbd8585604051610bcb9291906122eb565b60405180910390a25050505050565b60025481908110610bfd5760405162461bcd60e51b81526004016105689061218f565b610c05611ccf565b600060028381548110610c1a57610c1a6121c6565b60009182526020909120600890910201600681015490915060ff1615610c825760405162461bcd60e51b815260206004820152601a60248201527f43616d706169676e20616c72656164792066696e616c697a65640000000000006044820152606401610568565b60068101546201000090046001600160a01b0316331480610cad57506000546001600160a01b031633145b610d045760405162461bcd60e51b815260206004820152602260248201527f4f6e6c792063726561746f72206f72206f776e65722063616e2066696e616c696044820152617a6560f01b6064820152608401610568565b60008160030154826005015410159050816004015442101580610d245750805b610d875760405162461bcd60e51b815260206004820152602e60248201527f43616d706169676e20646561646c696e65206e6f74207265616368656420616e60448201526d190819dbd85b081b9bdd081b595d60921b6064820152608401610568565b60068201805460ff19166001179055808015610da7575060008260050154115b15610e5857815460058301546040516000926001600160a01b031691908381818185875af1925050503d8060008114610dfc576040519150601f19603f3d011682016040523d82523d6000602084013e610e01565b606091505b5050905080610e525760405162461bcd60e51b815260206004820152601e60248201527f5472616e7366657220746f2062656e6566696369617279206661696c656400006044820152606401610568565b50610e81565b80158015610e6a575060008260050154115b15610e815760068201805461ff0019166101001790555b600582015460408051918252821515602083015285917f58d612671e6b4848a067857f6d94e86ccf9b5e3c3938e0367f7b3e4bbacf2652910160405180910390a25050610a1960018055565b610ed5611cf9565b610edf6000611d26565b565b6001600160a01b038116600090815260046020908152604091829020805483518184028101840190945280845260609392830182828015610f4157602002820191906000526020600020905b815481526020019060010190808311610f2d575b50505050509050919050565b60006001600160a01b038716610fa55760405162461bcd60e51b815260206004820152601b60248201527f496e76616c69642062656e6566696369617279206164647265737300000000006044820152606401610568565b600084116110005760405162461bcd60e51b815260206004820152602260248201527f476f616c20616d6f756e74206d7573742062652067726561746572207468616e604482015261020360f41b6064820152608401610568565b600083118015611012575061016d8311155b6110515760405162461bcd60e51b815260206004820152601060248201526f24b73b30b634b210323ab930ba34b7b760811b6044820152606401610568565b600086511161109a5760405162461bcd60e51b81526020600482015260156024820152745469746c652063616e6e6f7420626520656d70747960581b6044820152606401610568565b600082116110e05760405162461bcd60e51b8152602060048201526013602482015272125b9d985b1a590819185d1858985cd9481251606a1b6044820152606401610568565b60006110ef846201518061232f565b6110f99042612346565b60408051610140810182526001600160a01b038b81168252602082018b81529282018a90526060820189905260808201849052600060a0830181905260c0830181905260e0830181905233610100840152610120830188905260028054600181018255915282517f405787fa12a823e0f2b7631cc41b3ba8828b3321ca811111fa75cd3aa3bb5ace600890920291820180546001600160a01b031916919093161782559251939450909283927f405787fa12a823e0f2b7631cc41b3ba8828b3321ca811111fa75cd3aa3bb5acf01906111d2908261222b565b50604082015160028201906111e7908261222b565b50606082015160038201556080820151600482015560a0820151600582015560c082015160068201805460e08501516101008087015161ffff1990931694151561ff001916949094179015159093029290921762010000600160b01b031916620100006001600160a01b03909316929092029190911790556101209091015160079091015560025460009061127e90600190612359565b33600081815260046020908152604080832080546001810182559084529190922001839055519192506001600160a01b038c169183907f9acde30d58f1090eba97bec1b8edd6738fbba1d83366d3771782db7efbdce030906112e7908e908d908a908d9061236c565b60405180910390a49998505050505050505050565b6060808360028054905081106113245760405162461bcd60e51b81526004016105689061218f565b60008581526005602090815260408083208054825181850281018501909352808352919290919083018282801561138457602002820191906000526020600020905b81546001600160a01b03168152600190910190602001808311611366575b50505050509050600081519050806000036113ba575050604080516000808252602082019081528183019092529350915061183a565b60008682106113c957866113cb565b815b905060008267ffffffffffffffff8111156113e8576113e8611ebf565b604051908082528060200260200182016040528015611411578160200160208202803683370190505b50905060008367ffffffffffffffff81111561142f5761142f611ebf565b604051908082528060200260200182016040528015611458578160200160208202803683370190505b50905060005b8481101561153157858181518110611478576114786121c6565b6020026020010151838281518110611492576114926121c6565b60200260200101906001600160a01b031690816001600160a01b031681525050600360008c815260200190815260200160002060008783815181106114d9576114d96121c6565b60200260200101516001600160a01b03166001600160a01b0316815260200190815260200160002054828281518110611514576115146121c6565b6020908102919091010152806115298161239b565b91505061145e565b5060005b611540600186612359565b8110156117085760005b60016115568388612359565b6115609190612359565b8110156116f55782611573826001612346565b81518110611583576115836121c6565b602002602001015183828151811061159d5761159d6121c6565b602002602001015110156116e35760008382815181106115bf576115bf6121c6565b60200260200101519050838260016115d79190612346565b815181106115e7576115e76121c6565b6020026020010151848381518110611601576116016121c6565b60209081029190910101528084611619846001612346565b81518110611629576116296121c6565b6020026020010181815250506000858381518110611649576116496121c6565b60200260200101519050858360016116619190612346565b81518110611671576116716121c6565b602002602001015186848151811061168b5761168b6121c6565b6001600160a01b039092166020928302919091019091015280866116b0856001612346565b815181106116c0576116c06121c6565b60200260200101906001600160a01b031690816001600160a01b03168152505050505b806116ed8161239b565b91505061154a565b50806117008161239b565b915050611535565b508267ffffffffffffffff81111561172257611722611ebf565b60405190808252806020026020018201604052801561174b578160200160208202803683370190505b5097508267ffffffffffffffff81111561176757611767611ebf565b604051908082528060200260200182016040528015611790578160200160208202803683370190505b50965060005b83811015611833578281815181106117b0576117b06121c6565b60200260200101518982815181106117ca576117ca6121c6565b60200260200101906001600160a01b031690816001600160a01b0316815250508181815181106117fc576117fc6121c6565b6020026020010151888281518110611816576118166121c6565b60209081029190910101528061182b8161239b565b915050611796565b5050505050505b509250929050565b60008281526003602090815260408083206001600160a01b03851684529091529020545b92915050565b6002548190811061188f5760405162461bcd60e51b81526004016105689061218f565b816000600282815481106118a5576118a56121c6565b600091825260209182902060408051610140810190915260089092020180546001600160a01b0316825260018101805492939192918401916118e690612155565b80601f016020809104026020016040519081016040528092919081815260200182805461191290612155565b801561195f5780601f106119345761010080835404028352916020019161195f565b820191906000526020600020905b81548152906001019060200180831161194257829003601f168201915b5050505050815260200160028201805461197890612155565b80601f01602080910402602001604051908101604052809291908181526020018280546119a490612155565b80156119f15780601f106119c6576101008083540402835291602001916119f1565b820191906000526020600020905b8154815290600101906020018083116119d457829003601f168201915b5050509183525050600382015460208201526004820154604082015260058201546060820152600682015460ff80821615156080840152610100820416151560a08301526201000090046001600160a01b031660c08083019190915260079092015460e09091015281015190915015611aac5760405162461bcd60e51b815260206004820152601a60248201527f43616d706169676e20616c72656164792066696e616c697a65640000000000006044820152606401610568565b80608001514210611aff5760405162461bcd60e51b815260206004820152601860248201527f43616d706169676e20646561646c696e652070617373656400000000000000006044820152606401610568565b611b07611ccf565b60003411611b575760405162461bcd60e51b815260206004820152601f60248201527f446f6e6174696f6e206d7573742062652067726561746572207468616e2030006044820152606401610568565b600060028581548110611b6c57611b6c6121c6565b600091825260208083208884526003825260408085203386529092529083205460089092020192509003611bc95760008581526005602090815260408220805460018101825590835291200180546001600160a01b031916331790555b600085815260036020908152604080832033845290915281208054349290611bf2908490612346565b9250508190555034816005016000828254611c0d9190612346565b9091555050604051348152339086907f0b5b4c52969ff7329ecf7ee536409fda87812b15a8622bc6e8cdeab3aee14a269060200160405180910390a350611c5360018055565b50505050565b60056020528160005260406000208181548110611c7557600080fd5b6000918252602090912001546001600160a01b03169150829050565b611c99611cf9565b6001600160a01b038116611cc357604051631e4fbdf760e01b815260006004820152602401610568565b611ccc81611d26565b50565b600260015403611cf257604051633ee5aeb560e01b815260040160405180910390fd5b6002600155565b6000546001600160a01b03163314610edf5760405163118cdaa760e01b8152336004820152602401610568565b600080546001600160a01b038381166001600160a01b0319831681178455604051919092169283917f8be0079c531659141344cd1fd0a4f28419497f9722a3daafe3b4186f6b6457e09190a35050565b600060208284031215611d8857600080fd5b5035919050565b6000815180845260005b81811015611db557602081850181015186830182015201611d99565b506000602082860101526020601f19601f83011685010191505092915050565b6001600160a01b038b8116825261014060208301819052600091611dfb8483018e611d8f565b91508382036040850152611e0f828d611d8f565b606085019b909b526080840199909952505060a081019590955292151560c085015290151560e084015290921661010082015261012001529392505050565b6001600160a01b0381168114611ccc57600080fd5b60008060408385031215611e7657600080fd5b8235611e8181611e4e565b946020939093013593505050565b60008060408385031215611ea257600080fd5b823591506020830135611eb481611e4e565b809150509250929050565b634e487b7160e01b600052604160045260246000fd5b600082601f830112611ee657600080fd5b813567ffffffffffffffff80821115611f0157611f01611ebf565b604051601f8301601f19908116603f01168101908282118183101715611f2957611f29611ebf565b81604052838152866020858801011115611f4257600080fd5b836020870160208301376000602085830101528094505050505092915050565b600080600060608486031215611f7757600080fd5b83359250602084013567ffffffffffffffff80821115611f9657600080fd5b611fa287838801611ed5565b93506040860135915080821115611fb857600080fd5b50611fc586828701611ed5565b9150509250925092565b600060208284031215611fe157600080fd5b8135611fec81611e4e565b9392505050565b600081518084526020808501945080840160005b8381101561202357815187529582019590820190600101612007565b509495945050505050565b602081526000611fec6020830184611ff3565b60008060008060008060c0878903121561205a57600080fd5b863561206581611e4e565b9550602087013567ffffffffffffffff8082111561208257600080fd5b61208e8a838b01611ed5565b965060408901359150808211156120a457600080fd5b506120b189828a01611ed5565b945050606087013592506080870135915060a087013590509295509295509295565b600080604083850312156120e657600080fd5b50508035926020909101359150565b604080825283519082018190526000906020906060840190828701845b828110156121375781516001600160a01b031684529284019290840190600101612112565b5050508381038285015261214b8186611ff3565b9695505050505050565b600181811c9082168061216957607f821691505b60208210810361218957634e487b7160e01b600052602260045260246000fd5b50919050565b60208082526017908201527f43616d706169676e20646f6573206e6f74206578697374000000000000000000604082015260600190565b634e487b7160e01b600052603260045260246000fd5b601f82111561222657600081815260208120601f850160051c810160208610156122035750805b601f850160051c820191505b818110156122225782815560010161220f565b5050505b505050565b815167ffffffffffffffff81111561224557612245611ebf565b612259816122538454612155565b846121dc565b602080601f83116001811461228e57600084156122765750858301515b600019600386901b1c1916600185901b178555612222565b600085815260208120601f198616915b828110156122bd5788860151825594840194600190910190840161229e565b50858210156122db5787850151600019600388901b60f8161c191681555b5050505050600190811b01905550565b6040815260006122fe6040830185611d8f565b82810360208401526123108185611d8f565b95945050505050565b634e487b7160e01b600052601160045260246000fd5b808202811582820484141761186657611866612319565b8082018082111561186657611866612319565b8181038181111561186657611866612319565b60808152600061237f6080830187611d8f565b6020830195909552506040810192909252606090910152919050565b6000600182016123ad576123ad612319565b506001019056fea2646970667358221220020cbbf4b82137f73bd78010cc50d064ddf1b1481c60ab65b551c2497d8b8e2864736f6c63430008140033",
  "linkReferences": {},
  "deployedLinkReferences": {}
}